:020000040800F2
:10000000005000200D2E0008CD2B0008D32B000837
:10001000D92B0008DF2B0008E52B000800000000AA
:10002000000000000000000000000000EB2B0008B2
:10003000F72B000800000000032C00080F2C00081C
:10004000552E0008552E0008552E0008552E000884
:10005000552E0008552E0008552E0008552E000874
:10006000552E0008552E0008552E0008552E000864
:10007000552E0008552E0008552E0008552E000854
:10008000552E0008552E0008552E0008552E000844
:10009000552E0008552E0008552E0008552E000834
:1000A000552E0008552E0008552E0008552E000824
:1000B0001D2C0008312C0008452C0008552E000886
:1000C000552E0008552E0008552E0008552E000804
:1000D000552E0008552E0008552E0008552E0008F4
:1000E000592C0008552E0008552E0008000000006D
:1000F0000000000000000000000000000000000000
:0C01000000000000000000005FF808F1A3
:1001100010B5054C237833B9044B13B10448AFF341
:1001200000800123237010BDE401002000000000C6
:100130003C90000808B5034B1BB103490348AFF3DB
:10014000008008BD00000000E80100203C9000088D
:10015000034613F8012B002AFBD1181A0138704707
:1001600081F0004102E000BF83F0004330B54FEA68
:1001700041044FEA430594EA050F08BF90EA020FD5
:100180001FBF54EA000C55EA020C7FEA645C7FEA68
:10019000655C00F0E2804FEA5454D4EB5555B8BF8B
:1001A0006D420CDD2C4480EA020281EA030382EAFC
:1001B000000083EA010180EA020281EA0303362D8E
:1001C00088BF30BD11F0004F4FEA01314FF4801C61
:1001D0004CEA113102D0404261EB410113F0004F73
:1001E0004FEA03334CEA133302D0524263EB43032A
:1001F00094EA050F00F0A780A4F10104D5F1200EC8
:100200000DDB02FA0EFC22FA05F2801841F1000122
:1002100003FA0EF2801843FA05F359410EE0A5F1F6
:1002200020050EF1200E012A03FA0EFC28BF4CF027
:10023000020C43FA05F3C01851EBE37101F00045DD
:1002400007D54FF0000EDCF1000C7EEB00006EEBEA
:100250000101B1F5801F1BD3B1F5001F0CD3490874
:100260005FEA30004FEA3C0C04F101044FEA4452CB
:1002700012F5800F80F09A80BCF1004F08BF5FEA52
:10028000500C50F1000041EB045141EA050130BD32
:100290005FEA4C0C404141EB0101013C28BFB1F544
:1002A000801FE9D291F0000F04BF01460020B1FA8F
:1002B00081F308BF2033A3F10B03B3F120020CDA62
:1002C0000C3208DD02F1140CC2F10C0201FA0CF040
:1002D00021FA02F10CE002F11402D8BFC2F1200CA5
:1002E00001FA02F120FA0CFCDCBF41EA0C0190405B
:1002F000E41AA2BF01EB0451294330BD6FEA0404A4
:100300001F3C1CDA0C340EDC04F11404C4F120028E
:1003100020FA04F001FA02F340EA030021FA04F3A0
:1003200045EA030130BDC4F10C04C4F1200220FAF7
:1003300002F001FA04F340EA0300294630BD21FA35
:1003400004F0294630BD94F0000F83F4801306BFFB
:1003500081F480110134013D4EE77FEA645C18BFEF
:100360007FEA655C29D094EA050F08BF90EA020F86
:1003700005D054EA000C04BF1946104630BD91EA7E
:10038000030F1EBF0021002030BD5FEA545C05D181
:100390004000494128BF41F0004130BD14F58004C0
:1003A0003CBF01F5801130BD01F0004545F0FE4134
:1003B00041F470014FF0000030BD7FEA645C1ABF69
:1003C000194610467FEA655C1CBF0B46024650EAA0
:1003D000013406BF52EA033591EA030F41F40021CC
:1003E00030BD00BF90F0000F04BF0021704730B552
:1003F0004FF4806404F132044FF000054FF0000127
:1004000050E700BF90F0000F04BF0021704730B5E7
:100410004FF4806404F1320410F0004548BF4042BC
:100420004FF000013EE700BF42004FEAE2014FEA11
:1004300031014FEA02701FBF12F07F4393F07F4FEC
:1004400081F06051704732F07F4208BF704793F0EF
:100450007F4F04BF41F40021704730B54FF4607402
:1004600001F0004521F000411CE700BF50EA010205
:1004700008BF704730B54FF000050AE050EA0102AE
:1004800008BF704730B511F0004502D5404261EB1E
:1004900041014FF4806404F132045FEA915C3FF45F
:1004A000D8AE4FF003025FEADC0C18BF03325FEAFC
:1004B000DC0C18BF033202EBDC02C2F1200300FAAD
:1004C00003FC20FA02F001FA03FE40EA0E0021FAD2
:1004D00002F11444BDE600BF70B54FF0FF0C4CF4C0
:1004E000E06C1CEA11541DBF1CEA135594EA0C0F72
:1004F00095EA0C0F00F0DEF82C4481EA030621EAAD
:100500004C5123EA4C5350EA013518BF52EA0335E7
:1005100041F4801143F4801338D0A0FB02CE4FF099
:100520000005E1FB02E506F00042E0FB03E54FF0C9
:100530000006E1FB03569CF0000F18BF4EF0010EC1
:10054000A4F1FF04B6F5007F64F5407404D25FEABD
:100550004E0E6D4146EB060642EAC62141EA555170
:100560004FEAC52040EA5E504FEACE2EB4F1FD0CB2
:1005700088BFBCF5E06F1ED8BEF1004F08BF5FEA30
:10058000500E50F1000041EB045170BD06F00046E2
:1005900046EA010140EA020081EA0301B4EB5C048F
:1005A000C2BFD4EB0C0541EA045170BD41F4801187
:1005B0004FF0000E013C00F3AB8014F1360FDEBFAC
:1005C000002001F0004170BDC4F10004203C35DA88
:1005D0000C341BDC04F11404C4F1200500FA05F30B
:1005E00020FA04F001FA05F240EA020001F00042AC
:1005F00021F0004110EBD37021FA04F642EB060122
:100600005EEA430E08BF20EAD37070BDC4F10C044B
:10061000C4F1200500FA04F320FA05F001FA04F20F
:1006200040EA020001F0004110EBD37041F10001FB
:100630005EEA430E08BF20EAD37070BDC4F1200506
:1006400000FA05F24EEA020E20FA04F301FA05F26E
:1006500043EA020321FA04F001F0004121FA04F216
:1006600020EA020000EBD3705EEA430E08BF20EAE6
:10067000D37070BD94F0000F0FD101F00046400020
:1006800041EB010111F4801F08BF013CF7D041EAA2
:10069000060195F0000F18BF704703F000465200A6
:1006A00043EB030313F4801F08BF013DF7D043EA77
:1006B0000603704794EA0C0F0CEA135518BF95EA2D
:1006C0000C0F0CD050EA410618BF52EA4306D1D1B4
:1006D00081EA030101F000414FF0000070BD50EAD3
:1006E000410606BF1046194652EA430619D094EA5D
:1006F0000C0F02D150EA013613D195EA0C0F05D147
:1007000052EA03361CBF104619460AD181EA03019A
:1007100001F0004141F0FE4141F470014FF0000052
:1007200070BD41F0FE4141F4780170BD70B54FF0ED
:10073000FF0C4CF4E06C1CEA11541DBF1CEA13556D
:1007400094EA0C0F95EA0C0F00F0A7F8A4EB05044F
:1007500081EA030E52EA03354FEA013100F0888046
:100760004FEA03334FF0805545EA131343EA12630F
:100770004FEA022245EA111545EA10654FEA0026C4
:100780000EF000419D4208BF964244F1FD0404F57D
:10079000407402D25B084FEA3202B61A65EB0305D9
:1007A0005B084FEA32024FF480104FF4002CB6EB96
:1007B000020E75EB030E22BFB61A754640EA0C0016
:1007C0005B084FEA3202B6EB020E75EB030E22BF56
:1007D000B61A754640EA5C005B084FEA3202B6EB97
:1007E000020E75EB030E22BFB61A754640EA9C0056
:1007F0005B084FEA3202B6EB020E75EB030E22BF26
:10080000B61A754640EADC0055EA060E18D04FEAE3
:10081000051545EA16754FEA06164FEAC30343EA83
:1008200052734FEAC2025FEA1C1CC0D111F4801F50
:100830000BD141EA00014FF000004FF0004CB6E749
:1008400011F4801F04BF01430020B4F1FD0C88BFE8
:10085000BCF5E06F3FF6AFAEB5EB030C04BFB6EBF3
:10086000020C5FEA500C50F1000041EB045170BDE6
:100870000EF0004E4EEA113114EB5C04C2BFD4EB13
:100880000C0541EA045170BD41F480114FF0000E97
:10089000013C90E645EA060E8DE60CEA135594EA13
:1008A0000C0F08BF95EA0C0F3FF43BAF94EA0C0F16
:1008B0000AD150EA01347FF434AF95EA0C0F7FF48B
:1008C00025AF104619462CE795EA0C0F06D152EADF
:1008D00003353FF4FDAE1046194622E750EA4106C3
:1008E00018BF52EA43067FF4C5AE50EA41047FF4D4
:1008F0000DAF52EA43057FF4EBAE12E74FF0FF3C39
:1009000006E000BF4FF0010C02E000BF4FF0010C09
:100910004DF804CD4FEA410C7FEA6C5C4FEA430C82
:1009200018BF7FEA6C5C1BD001B050EA410C0CBFD1
:1009300052EA430C91EA030F02BF90EA020F002033
:10094000704710F1000F91EA030F58BF994208BF9A
:1009500090422CBFD8176FEAE37040F00100704757
:100960004FEA410C7FEA6C5C02D150EA013C07D1AE
:100970004FEA430C7FEA6C5CD6D152EA033CD3D0F9
:100980005DF8040B704700BF8446104662468C46F3
:100990001946634600E000BF01B5FFF7B7FF002826
:1009A00048BF10F1000F01BD4DF808EDFFF7F4FF4F
:1009B0000CBF012000205DF808FB00BF4DF808EDDA
:1009C000FFF7EAFF34BF012000205DF808FB00BFFD
:1009D0004DF808EDFFF7E0FF94BF012000205DF81F
:1009E00008FB00BF4DF808EDFFF7CEFF94BF0120D4
:1009F00000205DF808FB00BF4DF808EDFFF7C4FFCD
:100A000034BF012000205DF808FB00BF4FEA410C15
:100A10007FEA6C5C02D150EA013C0AD14FEA430CF8
:100A20007FEA6C5C02D152EA033C02D14FF0000035
:100A300070474FF0010070474FEA410212F5001273
:100A400015D211D56FF47873B3EB625212D94FEA15
:100A5000C12343F0004343EA505311F0004F23FAFF
:100A600002F018BF404270474FF00000704750EA54
:100A7000013005D111F0004008BF6FF00040704711
:100A80004FF00000704700BF4A0011D212F500126B
:100A900011D20DD56FF47873B3EB62520ED44FEAD6
:100AA000C12343F0004343EA505323FA02F0704756
:100AB0004FF00000704750EA013002D14FF0FF3094
:100AC00070474FF0000070474FEA4102B2F1E04337
:100AD00024BFB3F5001CDCF1FE5C0DD901F0004C25
:100AE0004FEAC0024CEA5070B2F1004F40EB830075
:100AF00008BF20F00100704711F0804F21D113F1A1
:100B00003872BCBF01F00040704741F480114FEAD9
:100B10005252C2F11802C2F1200C10FA0CF320FA62
:100B200002F018BF40F001004FEAC1234FEAD3237F
:100B300003FA0CFC40EA0C0023FA02F34FEA4303E9
:100B4000CCE77FEA625307D150EA01331EBF4FF072
:100B5000FE4040F44000704701F0004040F0FE408D
:100B600040F40000704700BF80F0004002E000BF8A
:100B700081F0004142001FBF5FEA410392EA030F88
:100B80007FEA226C7FEA236C6AD04FEA1262D2EBD2
:100B90001363C1BFD218414048404140B8BF5B42D7
:100BA000192B88BF704710F0004F40F4000020F070
:100BB0007F4018BF404211F0004F41F4000121F086
:100BC0007F4118BF494292EA030F3FD0A2F10102D0
:100BD00041FA03FC10EB0C00C3F1200301FA03F10E
:100BE00000F0004302D5494260EB4000B0F5000F31
:100BF00013D3B0F1807F06D340084FEA310102F1F0
:100C00000102FE2A51D2B1F1004F40EBC25008BFA1
:100C100020F0010040EA03007047490040EB00006B
:100C2000013A28BFB0F5000FEDD2B0FA80FCACF16C
:100C3000080CB2EB0C0200FA0CF0AABF00EBC25099
:100C400052421843BCBFD0401843704792F0000F87
:100C500081F4000106BF80F400000132013BB5E7DA
:100C60004FEA41037FEA226C18BF7FEA236C21D050
:100C700092EA030F04D092F0000F08BF08467047B5
:100C800090EA010F1CBF0020704712F07F4F04D183
:100C9000400028BF40F00040704712F100723CBF96
:100CA00000F50000704700F0004343F0FE4040F4C0
:100CB000000070477FEA226216BF08467FEA23637E
:100CC0000146420206BF5FEA412390EA010F40F469
:100CD000800070474FF0000304E000BF10F00043B5
:100CE00048BF40425FEA000C08BF704743F096439C
:100CF00001464FF000001CE050EA010208BF7047B7
:100D00004FF000030AE000BF50EA010208BF70473D
:100D100011F0004302D5404261EB41015FEA010C52
:100D200002BF84460146002043F0B64308BFA3F14A
:100D30008053A3F50003BCFA8CF2083AA3EBC2532C
:100D400010DB01FA02FC634400FA02FCC2F120024B
:100D5000BCF1004F20FA02F243EB020008BF20F082
:100D60000100704702F1200201FA02FCC2F12002E8
:100D700050EA4C0021FA02F243EB020008BF20EADD
:100D8000DC7070474FF0FF0C1CEAD0521EBF1CEA0B
:100D9000D15392EA0C0F93EA0C0F6FD01A4480EAF9
:100DA000010C400218BF5FEA41211ED04FF00063E2
:100DB00043EA501043EA5111A0FB01310CF000400E
:100DC000B1F5000F3EBF490041EAD3715B0040EA34
:100DD000010062F17F02FD2A1DD8B3F1004F40EB04
:100DE000C25008BF20F00100704790F0000F0CF0D7
:100DF000004C08BF49024CEA502040EA51207F3A9B
:100E0000C2BFD2F1FF0340EAC250704740F4000075
:100E10004FF00003013A5DDC12F1190FDCBF00F066
:100E200000407047C2F10002410021FA02F1C2F114
:100E3000200200FA02FC5FEA310040F1000053EAB0
:100E40004C0308BF20EADC70704792F0000F00F0FE
:100E5000004C02BF400010F4000F013AF9D040EA04
:100E60000C0093F0000F01F0004C02BF490011F498
:100E7000000F013BF9D041EA0C018FE70CEAD15396
:100E800092EA0C0F18BF93EA0C0F0AD030F0004C16
:100E900018BF31F0004CD8D180EA010000F00040CA
:100EA000704790F0000F17BF90F0004F084691F088
:100EB000000F91F0004F14D092EA0C0F01D14202C2
:100EC0000FD193EA0C0F03D14B0218BF084608D18B
:100ED00080EA010000F0004040F0FE4040F40000D5
:100EE000704740F0FE4040F4400070474FF0FF0C68
:100EF0001CEAD0521EBF1CEAD15392EA0C0F93EAAF
:100F00000C0F69D0A2EB030280EA010C49024FEA00
:100F1000402037D04FF0805343EA111143EA1013B9
:100F20000CF000408B4238BF5B0042F17D024FF471
:100F3000000C8B4224BF5B1A40EA0C00B3EB510F4C
:100F400024BFA3EB510340EA5C00B3EB910F24BF35
:100F5000A3EB910340EA9C00B3EBD10F24BFA3EBBA
:100F6000D10340EADC001B0118BF5FEA1C1CE0D182
:100F7000FD2A3FF650AF8B4240EBC25008BF20F035
:100F8000010070470CF0004C4CEA50207F32C2BF89
:100F9000D2F1FF0340EAC250704740F400004FF026
:100FA0000003013A37E792F0000F00F0004C02BF57
:100FB000400010F4000F013AF9D040EA0C0093F021
:100FC000000F01F0004C02BF490011F4000F013B7B
:100FD000F9D041EA0C0195E70CEAD15392EA0C0FE3
:100FE00008D142027FF47DAF93EA0C0F7FF470AF1B
:100FF000084676E793EA0C0F04D14B023FF44CAF5E
:1010000008466EE730F0004C18BF31F0004CCAD1F2
:1010100030F000427FF45CAF31F000437FF43CAF2E
:101020005FE700BF4FF0FF3C06E000BF4FF0010C50
:1010300002E000BF4FF0010C4DF804CD4FEA400232
:101040004FEA41037FEA226C18BF7FEA236C11D07C
:1010500001B052EA530C18BF90EA010F58BFB2EB2F
:10106000030088BFC81738BF6FEAE17018BF40F0AF
:10107000010070477FEA226C02D15FEA402C05D163
:101080007FEA236CE4D15FEA412CE1D05DF8040BE8
:10109000704700BF844608466146FFE70FB5FFF77B
:1010A000C9FF002848BF10F1000F0FBD4DF808ED33
:1010B000FFF7F4FF0CBF012000205DF808FB00BF24
:1010C0004DF808EDFFF7EAFF34BF012000205DF87E
:1010D00008FB00BF4DF808EDFFF7E0FF94BF0120CB
:1010E00000205DF808FB00BF4DF808EDFFF7D2FFC8
:1010F00094BF012000205DF808FB00BF4DF808ED0B
:10110000FFF7C8FF34BF012000205DF808FB00BFD7
:1011100042000ED2B2F1FE4F0BD34FF09E03B3EB61
:10112000126209D44FEA002343F0004323FA02F08D
:1011300070474FF00000704712F1610F01D1420279
:1011400002D14FF0FF3070474FF00000704700BFF2
:1011500080B500AF00220121144802F071F901228C
:101160000221124802F06CF9012204210F4802F01A
:1011700067F9002208210D4802F062F900224FF4BD
:1011800000410A4802F05CF901220821084802F0F7
:1011900057F901221021064802F052F900222021BD
:1011A000034802F04DF900BF80BD00BF00080140B8
:1011B000000C014080B500AF00220121144802F06C
:1011C0003FF901220221124802F03AF900220421DB
:1011D0000F4802F035F9012208210D4802F030F9DC
:1011E00001224FF400410A4802F02AF900220821A6
:1011F000084802F025F901221021064802F020F9E2
:1012000000222021034802F01BF900BF80BD00BF6F
:1012100000080140000C014080B500AF0022012110
:10122000144802F00DF900220221124802F008F9D8
:10123000002204210F4802F003F9002208210D4882
:1012400002F0FEF800224FF400410A4802F0F8F8DC
:1012500000220821084802F0F3F800221021064875
:1012600002F0EEF800222021034802F0E9F800BF66
:1012700080BD00BF00080140000C014080B485B073
:1012800000AFF860B9607A603B60FB68BA681A60CA
:10129000FB687A685A60FB683A689A60FB684FF0AE
:1012A0000002DA60FB684FF000021A61FB684FF041
:1012B00000025A61FB684FF000029A61FB68BA694C
:1012C000DA61FB68FA691A6200BF1437BD4680BC58
:1012D0007047000000000000B0B586B000AF786035
:1012E00039607B68DB6839681846FFF741FC0346C4
:1012F0003B617B681B691846FFF796F804460D466C
:101300003869FFF791F848A3D3E90023FFF7E4F821
:1013100002460B4620462946FEF728FF02460B46AA
:1013200010461946FFF7D0FB02467B681A617B68BE
:101330005B6919463869FFF71BFC03461846FFF73F
:1013400073F839A3D3E90023FFF7F0F902460B46FF
:1013500010461946FFF7B8FB0346FB607B681B6825
:1013600039691846FFF70EFD03461C467B685A682C
:101370007B681B6919461046FFF704FD03461946B2
:101380002046FFF7F7FB03461C467B689B68F9681D
:101390001846FFF7F7FC034619462046FFF7EAFB1D
:1013A00003467B617B681B6A19467869FFF7A6FED6
:1013B0000346002B02D07B681B6A7B617B68DB697C
:1013C00019467869FFF77CFE0346002B02D07B6844
:1013D000DB697B617B683A695A617B683A689A612C
:1013E0007869FFF721F804460D467B681B6A1846AA
:1013F000FFF71AF802460B460DA1D1E90001FFF7ED
:1014000095F902460B4620462946FFF765F8024645
:101410000B4610461946FFF757FB0346BB607B6936
:1014200018461837BD46B0BD9A9999999999B93F10
:101430000000000000FEAF4080B586B004AF464B10
:101440001B7899B264230293012301937B1D0093BF
:1014500001237522414802F061FA7B79682B77D12C
:1014600000233B713C4B1B7899B264230293012308
:1014700001933B1D009301236B22384802F054F97D
:1014800007233B71344B1B7899B2642302930123E9
:1014900001933B1D009301231922304802F044F9C7
:1014A0002D4B1B7899B264230293012301933B1DBA
:1014B000009301231C22294802F030FA0023FB711B
:1014C0003B7923F01803DBB23B71FB79DB005AB2A6
:1014D0003B795BB213435BB2DBB23B711E4B1B78B3
:1014E00099B264230293012301933B1D00930123CE
:1014F0001C221A4802F018F9174B1B7899B2642382
:101500000293012301933B1D009301231B221348E7
:1015100002F004FA0023BB713B7923F01803DBB21D
:101520003B71BB79DB005AB23B795BB213435BB2D0
:10153000DBB23B71084B1B7899B264230293012301
:1015400001933B1D009301231B22044802F0ECF899
:1015500000BF0837BD4680BD00000020000200200B
:1015600080B586B004AF664B1B78042B00F29480E4
:10157000644B1B7899B24FF47A730293062301935C
:10158000614B009301234322604802F0C7F9604B8E
:101590007B605D4B1B781B021AB25B4B5B781BB206
:1015A00013431BB21846FFF799FB034679681846A8
:1015B000FFF7E8FB03464FF08E411846FFF796FC15
:1015C00003461A46534B1A604F4B9B781B021AB2C4
:1015D0004D4BDB781BB213431BB21846FFF77EFB63
:1015E000034679681846FFF7CDFB03464FF08E415E
:1015F0001846FFF77BFC03461A46474B1A60424BDE
:101600001B791B021AB2404B5B791BB213431BB20E
:101610001846FFF763FB034679681846FFF7B2FBED
:1016200003464FF08E411846FFF760FC03461A460A
:101630003A4B1A60374B1B68394A126811461846F4
:10164000FFF798FA03461A46324B1A60324B1B6872
:10165000344A126811461846FFF78CFA03461A46B8
:101660002D4B1A602D4B1B682F4A126811461846E5
:10167000FFF780FA03461A46284B1A60204B1B7866
:101680001946264B1B68294A42F821301C4B1B780F
:101690000133DAB21A4B1A70194B1B78052B2BD178
:1016A000224B1B68214A526811461846FFF762FA1E
:1016B00003461A461D4B9B6819461046FFF75AFA17
:1016C00003461A46194BDB6819461046FFF752FAD3
:1016D00003461A46154B1B6919461046FFF74AFA8E
:1016E000034613491846FFF701FC03461A46114BFF
:1016F0001A60034B00221A7000BF0837BD4680BD38
:10170000B805002000000020BC03002000020020DB
:1017100000007A43C4030020C8030020CC0300204B
:10172000F4030020F8030020FC030020D003002075
:101730000000A040E403002090B585B000AF002376
:10174000FB8101F0E1FB78600023BB602FE0FFF735
:1017500007FF354B1B68354A126811461846FFF7DC
:1017600009FA03461A46304B1A60314B1B68314A5E
:10177000126811461846FFF7FDF903461A462C4B2E
:101780001A602D4B1B682D4A126811461846FFF748
:10179000F1F903461A46284B1A60FB890133FB8195
:1017A00001F0B2FB38603A687B68D31ABB60BB6853
:1017B00042F227329342CAD91B4B1B6883F0004484
:1017C000FB891846FFF78AFA034619462046FFF7B9
:1017D0008DFB03461A461A4B1A60154B1B6883F0A3
:1017E0000044FB891846FFF779FA0346194620465C
:1017F000FFF77CFB03461A46124B1A600E4B1B6820
:1018000083F00044FB891846FFF768FA034619463F
:101810002046FFF76BFB03461A460B4B1A6000BFCE
:101820001437BD4690BD00BFE8030020C40300206C
:10183000EC030020C8030020F0030020CC030020AC
:10184000F4030020F8030020FC03002090B585B0CD
:1018500000AF0346FB710023FB73FB791846FFF7CB
:101860003DFA0246204B1B6819461046FFF78AFADC
:1018700003461E491846FFF739FB03461A461C4B20
:101880001B6819461046FFF775F903461A46194BAF
:101890001A60FB7BC3F101031846FFF71FFA0246EB
:1018A000134B1B6819461046FFF76CFA03461C469B
:1018B000FB7B1846FFF712FA02460E4B1B681946CF
:1018C0001046FFF75FFA034619462046FFF752F924
:1018D00003461A46084B1A60064B1B68044A1360FD
:1018E00000BF1437BD4690BDCC03002000007A44F1
:1018F00008040020040400200004002080B584B007
:1019000004AF0F4B1B7899B2642302930123019318
:101910000C4B0093012308220B4801F005FF084BF4
:101920001B7899B26423029301230193074B009320
:1019300001230922044801F0F7FE00BFBD4680BD27
:10194000010000200C000020000200200D000020FB
:1019500090B58DB002AF01F07FFA00F069FA00F0A7
:10196000ADFC00F0CFFA00F099FB00F07DFC00F038
:101970002DFC00F045FB00F0F3FA00F09EFA984BC6
:101980001B7899B264230A22964802F02FFA034684
:1019900087F82330944B1B7899B24FF47A730A225C
:1019A000904802F023FA034687F8223097F8233054
:1019B000002B17D100224FF400518C4801F040FD5C
:1019C0003B1D8B49184605F0EBF9034687F821309B
:1019D00097F821309AB2391D4FF4FA73854804F014
:1019E000ADFA05E001224FF40051804801F028FDD6
:1019F000FFF784FFFFF720FDFFF79EFE7E4803F010
:101A000037FB7E4803F034FB00217D4803F0DAFB0E
:101A100004217B4803F0D6FB0821794803F0D2FB70
:101A20000C21774803F0CEFB764B01934FF0000377
:101A30000093754B754A76497648FFF71FFC714B4A
:101A400001934FF0000300936F4B704A7249734843
:101A5000FFF714FC6B4B01934FF0000300936A4BAC
:101A60006A4A6F496F48FFF709FC664B01934FF0D4
:101A7000000300936C4B6D4A6D496E48FFF7FEFB07
:101A8000644B604ADA60654B5E4ADA60654B5D4ADA
:101A9000DA60684B5B4ADA60642303226649554882
:101AA00004F0CFFA654B1B78012B02D0022B5FD0DC
:101AB000DAE0FFF74DFB624B624A1A60624B614A03
:101AC0001A60624B5F4A1A60614B5E4A1A60614B52
:101AD0001B681846FEF7A8FC3FA3D3E90023FEF7D6
:101AE000FBFC02460B4646490C6810461946FEF7B9
:101AF000CBFF03466363584B1B681846FEF794FC04
:101B000035A3D3E90023FEF7E7FC02460B463C4928
:101B10000C6810461946FEF7B7FF0346A3634F4B08
:101B20001B681846FEF780FC2BA3D3E90023FEF7C1
:101B3000D3FC02460B4632490C6810461946FEF7A4
:101B4000A3FF0346E363464B1B681846FEF76CFC95
:101B500021A3D3E90023FEF7BFFC02460B46284928
:101B60000C6810461946FEF78FFF034623647EE09B
:101B7000FFF720FB344B3B4A1A60344B394A1A605A
:101B8000334B384A1A602E4B364A1A60304B1B686A
:101B90001B4A14681846FFF7BBFA03466363284BD9
:101BA0001B68174A14681846FFF7B2FA0346A36386
:101BB000254B1B68124A14681846FFF7A9FA03461A
:101BC000E363224B1B680E4A14681846FFF7A0FA1D
:101BD000034623644BE000BFCDCCCCCCCC4C2B4097
:101BE0000000002000020020010000200010014041
:101BF00058900008740300202C0300209C02002051
:101C0000E402002000009643CDCCCC3C00002041F3
:101C1000C1CA71405C040020F2D24D408004002013
:101C2000A8C65340A4040020BA49EC3F13F2813EF9
:101C3000643BAF3FC8040020EC0400200C040020EB
:101C40003C04002000F07F454404002040040020B4
:101C500038040020280400202C0400203004002038
:101C6000340400200000C842FFF7D6FA00BF01F09C
:101C70004BF9F861FA697B6AD31ABB615B4B1B783D
:101C8000002B1BD15A4B1B78532B74D101F03CF91C
:101C900078620023BB61574B574ADA60574B564A6C
:101CA000DA60574B544ADA60564B534ADA604F4B6E
:101CB0001B780133DAB24D4B1A705CE04B4B1B784A
:101CC000012B24D1504B1B6850491846FFF716FAD8
:101CD0000346002B4FD0474B4FF00002DA60474BD2
:101CE0004FF00002DA60464B4FF00002DA60454BDD
:101CF0004FF00002DA6001F007F978620023BB615F
:101D00003A4B1B780133DAB2384B1A7033E0374B59
:101D10001B78022B2FD13E4B1B683E4A126811469E
:101D20001846FFF7D7F90346002B24D0394B1B6820
:101D3000374A126811461846FEF71AFF034636491D
:101D40001846FEF715FF03461A46324B1B68194624
:101D50001046FEF70FFF03461A462E4B1A60FFF798
:101D60005BFAFFF7E9FC01F0CFF878620023BB6172
:101D70001E4B01221A701E4B1B78452B7FF48CAE34
:101D8000FFF74AFA194B00221A70244B4FF0000259
:101D90001A60234B4FF000021A60224B4FF00002F2
:101DA0001A60214B4FF000021A60204B1B68002282
:101DB0005A631E4B1B6800229A631C4B1B6800224F
:101DC000DA631A4B1B6800221A640A4B4FF00002B8
:101DD000DA600A4B4FF00002DA60094B4FF0000264
:101DE000DA60084B4FF00002DA6055E60C04002080
:101DF000EC0400205C040020000034438004002038
:101E0000A4040020C80400205804002000007A44E4
:101E100000040020040000200000B442440400201C
:101E200040040020380400203C040020E40200208C
:101E300080B590B000AF07F11803282200211846A2
:101E400005F011F83B1D00221A605A609A60DA60B2
:101E50001A610123BB614FF48033FB6100233B62B5
:101E60000123BB6202237B634FF48033BB634FF4D7
:101E7000E013FB6307F11803184602F099FC0346D0
:101E8000002B01D000F03CFD0F237B600223BB60E0
:101E90000023FB604FF480633B6100237B613B1DAB
:101EA0000221184602F006FF0346002B01D000F085
:101EB00027FD00BF4037BD4680BD80B500AF002282
:101EC0000021282001F001F9282001F01AF9002250
:101ED00000211E2001F0F9F81E2001F012F9002265
:101EE00000211C2001F0F1F81C2001F00AF9002269
:101EF00000211D2001F0E9F81D2001F002F900BFCA
:101F000080BD000080B500AF124B134A1A60114B20
:101F1000124A5A600F4B00229A600E4B0022DA6080
:101F20000C4B4FF480421A610A4B00225A61094B54
:101F300000229A61074B0022DA61064B00221A62E6
:101F4000044801F0ADFA0346002B01D000F0D8FCA4
:101F500000BF80BD0002002000540040A0860100A8
:101F600080B586B000AF07F1080300221A605A60FE
:101F70009A60DA603B4600221A605A601E4B1F4A84
:101F80001A601D4B00225A601B4B00229A601A4BAC
:101F90004FF6FF72DA60184B00221A61164B0022CE
:101FA0005A61154B00229A61134803F011F8034659
:101FB000002B01D000F0A4FC4FF48053BB6007F16C
:101FC000080319460C4803F069FB0346002B01D0B7
:101FD00000F096FC00233B6000237B603B461946E3
:101FE000054803F0EBFE0346002B01D000F088FC0F
:101FF00000BF1837BD4680BD54020020002C0140B0
:1020000080B586B000AF07F1080300221A605A605D
:102010009A60DA603B4600221A605A601E4B4FF00D
:1020200080421A601C4B41F61F425A601A4B002234
:102030009A60194B40F2E732DA60174B00221A61BE
:10204000154B00229A61144802F0C2FF0346002B90
:1020500001D000F055FC4FF48053BB6007F108033A
:1020600019460D4803F01AFB0346002B01D000F07F
:1020700047FC00233B6000237B603B461946064833
:1020800003F09CFE0346002B01D000F039FC00BF9A
:102090001837BD4680BD00BF9C02002080B58EB0C1
:1020A00000AF07F1280300221A605A609A60DA60D4
:1020B00007F1200300221A605A603B1D00221A60BB
:1020C0005A609A60DA601A615A619A613D4B3E4AE1
:1020D0001A603C4B00225A603A4B00229A60394BFE
:1020E00040F6FF72DA60374B00221A61354B00224E
:1020F0009A61344802F06CFF0346002B01D000F0D7
:10210000FFFB4FF48053BB6207F1280319462D48AB
:1021100003F0C4FA0346002B01D000F0F1FB29487C
:1021200002F0F8FF0346002B01D000F0E9FB00238A
:102130003B6200237B6207F120031946214803F02C
:102140003DFE0346002B01D000F0DAFB60237B60EC
:102150000023BB600023FB6000237B613B1D00224A
:102160001946184803F0D8F90346002B01D000F0B7
:10217000C7FB3B1D04221946124803F0CDF9034664
:10218000002B01D000F0BCFB3B1D082219460D4876
:1021900003F0C2F90346002B01D000F0B1FB3B1D58
:1021A0000C221946074803F0B7F90346002B01D06B
:1021B00000F0A6FB034800F071FC00BF3837BD46B5
:1021C00080BD00BFE40200200004004080B586B05E
:1021D00000AF07F1080300221A605A609A60DA60C3
:1021E0003B4600221A605A601D4B1E4A1A601C4B67
:1021F00041F61F425A601A4B00229A60184B632224
:10220000DA60174B00221A61154B00229A611448BC
:1022100002F0DEFE0346002B01D000F071FB4FF40C
:102220008053BB6007F1080319460D4803F036FAE6
:102230000346002B01D000F063FB00233B6000232A
:102240007B603B461946064803F0B8FD0346002B69
:1022500001D000F055FB00BF1837BD4680BD00BF60
:102260002C0300200008004080B500AF114B124A3B
:102270001A60104B4FF416525A600E4B00229A60AF
:102280000C4B0022DA600B4B00221A61094B0C2226
:102290005A61084B00229A61064B0022DA61054818
:1022A00003F0FCFD0346002B01D000F029FB00BF2A
:1022B00080BD00BF740300200038014080B588B0A5
:1022C00000AF07F1100300221A605A609A60DA60CA
:1022D000454B9B69444A43F010039361424B9B6911
:1022E00003F01003FB60FB683F4B9B693E4A43F0E1
:1022F000200393613C4B9B6903F02003BB60BB68E8
:10230000394B9B69384A43F004039361364B9B6910
:1023100003F004037B607B68334B9B69324A43F0D4
:1023200008039361304B9B6903F008033B603B68F3
:1023300000224FF400512D4801F082F8002248F2AB
:102340000F012B4801F07CF800223821294801F0C8
:1023500077F84FF400533B6101237B610023BB619D
:102360000223FB6107F110031946204800F0E4FE48
:1023700048F20F033B6101237B610023BB61022311
:10238000FB6107F110031946194800F0D5FE4FF420
:1023900070433B61184B7B610223BB6107F1100363
:1023A0001946144800F0C8FE4FF480733B610023C7
:1023B0007B610223BB6107F1100319460C4800F052
:1023C000BBFE38233B6101237B610023BB610223F9
:1023D000FB6107F110031946064800F0ADFE00BF8F
:1023E0002037BD4680BD00BF0010024000100140F4
:1023F00000080140000C0140000031100000000006
:102400002DE9B04F9EB010AFF862FB6A1B68B3F1C4
:10241000804F40F0EE81B64B1B781A464EF6602393
:1024200003FB02F2B34B1B781946642301FB03F351
:1024300092FBF3F31846FEF751FC0346AE4A1360D5
:10244000AE4B1B781A464EF6602303FB02F2A94BF3
:102450001B781946642301FB03F392FBF3F3184640
:10246000FEF73CFC0346A64A1360A64B1B781A46AF
:102470004EF6602303FB02F29E4B1B781946642341
:1024800001FB03F392FBF3F31846FEF727FC034628
:102490009D4A13609D4B1B781A464EF6602303FB42
:1024A00002F2944B1B781946642301FB03F392FB61
:1024B000F3F31846FEF712FC0346954A1360954B5A
:1024C0001B681846FDF7B0FF04460D46884B1B7885
:1024D0001846FDF797FF84A3D3E90023FDF7FCFF1F
:1024E00002460B46104619464FF000028A4BFEF793
:1024F0001DF902460B4620462946FDF737FE0246E7
:102500000B4610461946FEF7DFFA0346814A136070
:10251000824B1B681846FDF787FF04460D46774B34
:102520001B781846FDF76EFF6FA3D3E90023FDF774
:10253000D3FF02460B46104619464FF00002764B79
:10254000FEF7F4F802460B4620462946FDF70EFE3C
:1025500002460B4610461946FEF7B6FA03466F4A86
:1025600013606F4B1B681846FDF75EFF04460D466F
:10257000644B1B781846FDF745FF5BA3D3E90023A6
:10258000FDF7AAFF02460B46104619464FF000021F
:10259000614BFEF7CBF802460B4620462946FDF775
:1025A000E5FD02460B4610461946FEF78DFA034636
:1025B0005B4A13605B4B1B681846FDF735FF04460A
:1025C0000D46524B1B781846FDF71CFF46A3D3E976
:1025D0000023FDF781FF02460B46104619464FF0D7
:1025E00000024D4BFEF7A2F802460B462046294654
:1025F000FDF7BCFD02460B4610461946FEF764FA8D
:102600000346484A1360434B1B68444A126811460C
:102610001846FEF7AFFA03464FF080411846FEF722
:1026200065FC03461A46404B1B6819461046FEF7E8
:10263000A1FA03461A463C4B1A60364B4FF0000293
:102640001A60364B4FF000021A60354B4FF0000213
:102650001A60344B4FF000021A60254B00221A70AA
:10266000264B00221A70274B00221A70274B00229B
:102670001A70234B1B6819462C48FEF72DFE0346A3
:102680002B4A13601C4B1B6819462A48FEF724FE90
:102690000346294A13601E4B1B6819462748FEF75C
:1026A0001BFE0346264A1360174B1B681946254834
:1026B000FEF712FE0346244A13601D4B1B681846A2
:1026C000FDF7B2FEC7E908011B4B1B681846FDF772
:1026D000ABFEC7E906011A4B1B681846FDF7A4FEBE
:1026E000C7E9040132E000BF79E9263108BC444063
:1026F00024040020080000201404002025040020E9
:1027000018040020260400201C04002027040020B8
:102710002004002048040020000034404C04002025
:10272000500400205404002058040020800400209D
:10273000280400205C0400202C040020C804002091
:1027400030040020A404002034040020324B1B6815
:102750001846FDF769FEC7E90201304B1B681846B1
:10276000FDF762FEC7E900012D4B1B681846FDF717
:102770005BFE82468B462B4B1B681846FDF754FECA
:1027800080468946284B1B681846FDF74DFE0446D7
:102790000D46264B1B681846FDF746FE02460B46C3
:1027A000CDE90E23CDE90C45CDE90A89CDE908AB89
:1027B000D7E90034CDE90634D7E90234CDE9043451
:1027C000D7E90434CDE90234D7E90634CDE9003441
:1027D000D7E908231649174804F0E2FA034687F8B8
:1027E000373097F837309AB2C8231249124803F0AD
:1027F000A5FBFB6A1B68114A934208D1104B1B785A
:10280000042B02D16420FFF721F8FEF7A9FE00BFD8
:102810003837BD46BDE8B08F3404002018040020CE
:1028200014040020200400201C0400205804002070
:102830006C900008F00400207403002000080040A1
:10284000B805002080B483B000AF0346FB80FB884E
:10285000B3F5004F0CD1224B1B78DBB20133DAB257
:102860001F4B1A701F4B1B780133DAB21D4B1A70C5
:10287000FB88B3F5804F0CD11B4B1B78DBB20133C7
:10288000DAB2194B1A70194B1B780133DAB2174BB5
:102890001A70FB88B3F5005F0CD1154B1B78DBB2C7
:1028A0000133DAB2124B1A70124B1B780133DAB2D1
:1028B000104B1A70FB88B3F5805F0CD10E4B1B7860
:1028C000DBB20133DAB20C4B1A700C4B1B780133BC
:1028D000DAB20A4B1A7000BF0C37BD4680BC704795
:1028E0000D040020240400200E04002025040020F4
:1028F0000F040020260400201004002027040020DC
:1029000080B400AF72B600BFFEE7000080B485B0AF
:1029100000AF154B9B69144A43F001039361124BBE
:102920009B6903F00103BB60BB680F4BDB690E4A78
:1029300043F08053D3610C4BDB6903F080537B6021
:102940007B680A4B5B68FB60FB6823F0E063FB601D
:10295000FB6843F00073FB60044AFB68536000BFF0
:102960001437BD4680BC7047001002400000014093
:1029700080B588B000AF786007F1100300221A60BC
:102980005A609A60DA607B681B68154A934223D1CB
:10299000144B9B69134A43F008039361114B9B69E5
:1029A00003F00803FB60FB68C0233B6112237B61DB
:1029B0000323FB6107F1100319460B4800F0BCFB31
:1029C000084BDB69074A43F40013D361054BDB690D
:1029D00003F40013BB60BB6800BF2037BD4680BD59
:1029E0000054004000100240000C014080B487B049
:1029F00000AF78607B681B68244A93420CD1244B5B
:102A00009B69234A43F400639361214B9B6903F460
:102A100000637B617B6934E07B681B68B3F1804FA6
:102A20000CD11B4BDB691A4A43F00103D361184BED
:102A3000DB6903F001033B613B6922E07B681B68B3
:102A4000144A93420CD1124BDB69114A43F0020342
:102A5000D3610F4BDB6903F00203FB60FB6810E0FE
:102A60007B681B680C4A93420BD1094BDB69084A0F
:102A700043F00403D361064BDB6903F00403BB603E
:102A8000BB6800BF1C37BD4680BC7047002C0140AE
:102A900000100240000400400008004080B588B0EB
:102AA00000AF786007F1100300221A605A609A6044
:102AB000DA607B681B681B4A93422FD11A4B9B69D3
:102AC000194A43F004039361174B9B6903F0040315
:102AD000FB60FB68144B9B69134A43F00803936146
:102AE000114B9B6903F00803BB60BB68C0233B61CB
:102AF00002237B610223FB6107F1100319460B4897
:102B000000F01AFB03233B6102237B610223FB617C
:102B100007F110031946064800F00EFB00BF2037EE
:102B2000BD4680BD00040040001002400008014086
:102B3000000C014080B588B000AF786007F1100349
:102B400000221A605A609A60DA607B681B681C4A2F
:102B5000934231D11B4B9B691A4A43F480439361E2
:102B6000184B9B6903F48043FB60FB68154B9B6922
:102B7000144A43F004039361124B9B6903F004036E
:102B8000BB60BB684FF400733B6102237B6103238E
:102B9000FB6107F1100319460B4800F0CDFA4FF422
:102BA00080633B6100237B610023BB6107F110035D
:102BB0001946054800F0C0FA00BF2037BD4680BD69
:102BC00000380140001002400008014080B400AF0E
:102BD000FEE780B400AFFEE780B400AFFEE780B44C
:102BE00000AFFEE780B400AFFEE780B400AF00BFE7
:102BF000BD4680BC704780B400AF00BFBD4680BCFE
:102C0000704780B400AF00BFBD4680BC704780B540
:102C100000AF00F067F900BF80BD000080B500AFD5
:102C2000024802F071FB00BF80BD00BF9C02002083
:102C300080B500AF024802F067FB00BF80BD00BF57
:102C4000E402002080B500AF024802F05DFB00BF47
:102C500080BD00BF2C03002080B500AF4FF4805032
:102C600000F006FC4FF4005000F002FC4FF48040EE
:102C700000F0FEFB4FF4004000F0FAFB00BF80BD07
:102C800080B400AF01231846BD4680BC704780B5B4
:102C900082B000AF7860396004F038F9034616223C
:102CA0001A604FF0FF3318460837BD4680BD80B527
:102CB00082B000AF78604FF0FF317868FFF7E7FF30
:102CC000FEE780B586B000AFF860B9607A60002397
:102CD0007B610AE0AFF300800146BB685A1CBA6012
:102CE000CAB21A707B6901337B617A697B689A4248
:102CF000F0DB7B6818461837BD4680BD80B586B0CE
:102D000000AFF860B9607A6000237B6109E0BB68BE
:102D10005A1CBA601B781846AFF300807B690133F8
:102D20007B617A697B689A42F1DB7B6818461837C9
:102D3000BD4680BD80B483B000AF78604FF0FF33F4
:102D400018460C37BD4680BC704780B483B000AFD6
:102D5000786039603B684FF400525A60002318468F
:102D60000C37BD4680BC704780B483B000AF78603C
:102D7000012318460C37BD4680BC704780B485B02F
:102D800000AFF860B9607A60002318461437BD467A
:102D900080BC704780B586B000AF7860144A154B90
:102DA000D31A7B617B693B61134B1B68002B02D1FB
:102DB000114B124A1A60104B1A687B6813443A6927
:102DC0009A4207D204F0A2F803460C221A604FF090
:102DD000FF3309E0084B1B68FB60074B1A687B68F0
:102DE0001344054A1360FB6818461837BD4680BD7A
:102DF0000050002000040000BC0500201007002047
:102E000080B400AF00BFBD4680BC7047FFF7F8FF3D
:102E10000B480C490C4A002302E0D458C450043338
:102E2000C4188C42F9D3094A094C002301E013600D
:102E30000432A242FBD304F06FF8FEF789FD70471D
:102E400000000020E40100203C940008E401002080
:102E500010070020FEE7000080B500AF084B1B689C
:102E6000074A43F010031360032000F023F90F20FA
:102E700000F008F8FFF74AFD0023184680BD00BFA8
:102E80000020024080B582B000AF7860124B1A6813
:102E9000124B1B7819464FF47A73B3FBF1F3B2FB74
:102EA000F3F3184600F03BF90346002B01D0012351
:102EB0000EE07B680F2B0AD8002279684FF0FF30B4
:102EC00000F003F9064A7B681360002300E0012349
:102ED00018460837BD4680BD1000002018000020AD
:102EE0001400002080B400AF054B1B781A46054B38
:102EF0001B681344034A136000BFBD4680BC704783
:102F000018000020C005002080B400AF024B1B68F1
:102F10001846BD4680BC7047C005002080B485B00F
:102F200000AF78607B6803F00703FB600C4BDB6845
:102F3000BB60BA684FF6FF031340BB60FB681A0220
:102F4000BB68134343F0BF6343F40033BB60044AE0
:102F5000BB68D36000BF1437BD4680BC704700BF5C
:102F600000ED00E080B400AF044BDB681B0A03F007
:102F700007031846BD4680BC704700BF00ED00E067
:102F800080B483B000AF0346FB7197F90730002B84
:102F90000BDBFB7903F01F02064997F907305B0949
:102FA000012000FA02F241F8232000BF0C37BD4691
:102FB00080BC704700E100E080B483B000AF0346FE
:102FC0003960FB7197F90730002B0ADB3B68DAB2F6
:102FD0000C4997F907301201D2B20B4483F8002351
:102FE0000AE03B68DAB20849FB7903F00F03043BBF
:102FF0001201D2B20B441A7600BF0C37BD4680BC1A
:10300000704700BF00E100E000ED00E080B489B04F
:1030100000AFF860B9607A60FB6803F00703FB61FA
:10302000FB69C3F10703042B28BF0423BB61FB69C1
:103030000433062B02D9FB69033B00E000237B61CC
:103040004FF0FF32BB6902FA03F3DA43BB681A4060
:103050007B699A404FF0FF317B6901FA03F3D94352
:103060007B680B40134318462437BD4680BC70472D
:1030700080B582B000AF78607B68013BB3F1807FA0
:1030800001D301230FE00A4A7B68013B53600F2103
:103090004FF0FF30FFF790FF054B00229A60044B82
:1030A00007221A60002318460837BD4680BD00BFBE
:1030B00010E000E080B582B000AF78607868FFF77C
:1030C0002DFF00BF0837BD4680BD80B586B000AF7C
:1030D0000346B9607A60FB7300237B61FFF742FF10
:1030E00078617A68B9687869FFF790FF024697F9C6
:1030F0000F3011461846FFF75FFF00BF1837BD4677
:1031000080BD80B582B000AF0346FB7197F90730F0
:103110001846FFF735FF00BF0837BD4680BD80B5B4
:1031200082B000AF78607868FFF7A2FF03461846C8
:103130000837BD4680BD000080B48BB000AF78601A
:10314000396000237B6200233B6269E101227B6AD4
:1031500002FA03F3FB613B681B68FA691340BB6129
:10316000BA69FB699A4240F058813B685B689A4AA9
:1031700093425ED0984A934275D8984A934258D069
:10318000964A93426FD8964A934252D0944A9342B9
:1031900069D8944A93424CD0924A934263D8924A57
:1031A000934246D0904A93425DD8122B2AD8122BD4
:1031B00059D801A252F823F0333200080D3200082A
:1031C0001F320008613200086732000867320008C9
:1031D000673200086732000867320008673200086B
:1031E000673200086732000867320008673200085B
:1031F000673200086732000867320008153200089D
:1032000029320008794A934213D02CE03B68DB68EE
:103210003B6229E03B68DB6804333B6224E03B68A7
:10322000DB6808333B621FE03B68DB680C333B62C2
:103230001AE03B689B68002B02D104233B6213E039
:103240003B689B68012B05D108233B627B68FA69C8
:103250001A6109E008233B627B68FA695A6103E05E
:1032600000233B6200E000BFBB69FF2B01D87B68F5
:1032700001E07B6804337B61BB69FF2B02D87B6A6A
:103280009B0002E07B6A083B9B003B617B691A68FC
:103290000F213B6901FA03F3DB431A40396A3B69AA
:1032A00001FA03F31A437B691A603B685B6803F019
:1032B0008053002B00F0B1804D4B9B694C4A43F08A
:1032C000010393614A4B9B6903F00103BB60BB6838
:1032D000484A7B6A9B08023352F82330FB607B6AC2
:1032E00003F003039B000F2202FA03F3DB43FA68A7
:1032F0001340FB607B68404A934213D07B683F4A8F
:1033000093420DD07B683E4A934207D07B683D4A8A
:10331000934201D1032306E0042304E0022302E0E8
:10332000012300E000237A6A02F003029200934036
:10333000FA681343FB602F497B6A9B080233FA68E3
:1033400041F823203B685B6803F48013002B06D010
:103350002D4B9A682C49BB6913438B6006E02A4BBE
:103360009A68BB69DB43284913408B603B685B6804
:1033700003F40013002B06D0234BDA682249BB6903
:103380001343CB6006E0204BDA68BB69DB431E4980
:103390001340CB603B685B6803F40033002B06D01E
:1033A000194B5A681849BB6913434B6006E0164B2A
:1033B0005A68BB69DB43144913404B603B685B6848
:1033C00003F48033002B21D00F4B1A680E49BB69E0
:1033D00013430B6021E000BF0000321000003110E9
:1033E0000000221000002110000012100000111037
:1033F000001002400000014000080140000C0140A4
:103400000010014000140140000401400B4B1A68F9
:10341000BB69DB43094913400B607B6A01337B6264
:103420003B681A687B6A22FA03F3002B7FF48EAEA6
:1034300000BF00BF2C37BD4680BC70470004014070
:1034400080B483B000AF78600B467B8013467B70FE
:103450007B78002B03D07A887B681A6103E07B8835
:103460001A047B681A6100BF0C37BD4680BC7047E8
:1034700080B582B000AF0346FB80084B5A69FB88D9
:103480001340002B06D0054AFB885361FB88184681
:10349000FFF7D8F900BF0837BD4680BD00040140E2
:1034A00080B584B000AF78607B68002B01D1012328
:1034B0002BE17B6893F83D30DBB2002B06D17B68B3
:1034C000002283F83C207868FFF752FA7B682422B8
:1034D00083F83D207B681B681A687B681B6822F0B4
:1034E00001021A607B681B681A687B681B6842F4DB
:1034F00000421A607B681B681A687B681B6822F4AC
:1035000000421A6001F01EFDF8607B685B68814A2A
:10351000934207D8FB68804A934294BF012300235B
:10352000DBB206E0FB687D4A934294BF012300238F
:10353000DBB2002B01D00123E7E0FB68784AA2FB55
:1035400003239B0CBB607B681B685B6823F03F0117
:103550007B681B68BA680A435A607B681B681B6AF1
:1035600023F03F017B685B686A4A934202D8BB68DC
:10357000013309E0BB684FF4967202FB03F3694A1A
:10358000A2FB03239B0901337A6812680B43136281
:103590007B681B68DB6923F44F4222F0FF027B68E3
:1035A0005B685C498B4219D8FB68591E7B685B6875
:1035B0005B00B1FBF3F3591C40F6FC730B40002B8E
:1035C0000AD0FB68591E7B685B685B00B1FBF3F3B4
:1035D0000133C3F30B0351E004234FE07B689B6886
:1035E000002B11D1FB68581E7B6859680B465B00A5
:1035F0000B44B0FBF3F30133C3F30B03002B0CBFFD
:1036000001230023DBB212E0FB68581E7B68596877
:103610000B469B000B4499000B44B0FBF3F30133C2
:10362000C3F30B03002B0CBF01230023DBB2002BE1
:1036300001D0012322E07B689B68002B0ED1FB6840
:10364000581E7B6859680B465B000B44B0FBF3F3D4
:103650000133C3F30B0343F400430FE0FB68581E30
:103660007B6859680B469B000B4499000B44B0FBE8
:10367000F3F30133C3F30B0343F440437968096860
:103680001343CB617B681B681B6823F0C0017B6818
:10369000DA697B681B6A1A437B681B680A431A60F5
:1036A0007B681B689B6823F4034323F0FF037A685D
:1036B00011697A68D26811437A6812680B43936083
:1036C0007B681B68DB6823F0FF017B685A697B68B5
:1036D0009B691A437B681B680A43DA607B681B6836
:1036E0001A687B681B6842F001021A607B6800223E
:1036F0001A647B68202283F83D207B6800221A63CD
:103700007B68002283F83E20002318461037BD4610
:1037100080BD00BFA08601007F841E00FF083D0021
:1037200083DE1B43D34D621080B588B002AFF860D2
:10373000084611461A4603467B810B463B811346D9
:10374000FB80FFF7E1FB7861FB6893F83D30DBB26B
:10375000202B40F0D9807B690093192301226D4909
:10376000F86800F0EFFD0346002B01D00223CCE007
:10377000FB6893F83C30012B01D10223C5E0FB68C4
:10378000012283F83C20FB681B681B6803F00103DF
:10379000012B07D0FB681B681A68FB681B6842F0A6
:1037A00001021A60FB681B681A68FB681B6822F438
:1037B00000621A60FB68212283F83D20FB684022EA
:1037C00083F83E20FB6800221A64FB683A6A5A625A
:1037D000FB68BA8C5A85FB685B8D9AB2FB681A85C8
:1037E000FB684D4ADA62F8883A8979897B690193E6
:1037F000BB6A00930346F86800F026FC0346002BE2
:1038000052D0012381E07A69B96AF86800F0B4FE09
:103810000346002B0DD0FB681B6C042B07D1FB6803
:103820001B681A68FB681B6842F400721A60012367
:103830006BE0FB685B6A1A78FB681B681A61FB68BF
:103840005B6A5A1CFB685A62FB681B8D013B9AB28B
:10385000FB681A85FB685B8D9BB2013B9AB2FB68E3
:103860005A85FB681B685B6903F00403042B1BD1BA
:10387000FB681B8D002B17D0FB685B6A1A78FB680E
:103880001B681A61FB685B6A5A1CFB685A62FB681A
:103890001B8D013B9AB2FB681A85FB685B8D9BB25E
:1038A000013B9AB2FB685A85FB681B8D002BAAD19D
:1038B0007A69B96AF86800F0A7FE0346002B0DD0BC
:1038C000FB681B6C042B07D1FB681B681A68FB683C
:1038D0001B6842F400721A60012316E0FB681B6843
:1038E0001A68FB681B6842F400721A60FB682022A9
:1038F00083F83D20FB68002283F83E20FB6800220D
:1039000083F83C20002300E0022318461837BD4608
:1039100080BD00BF020010000000FFFF80B58CB02A
:1039200002AFF860084611461A4603467B810B46F3
:103930003B811346FB8000233B62FFF7E5FA786288
:10394000FB6893F83D30DBB2202B40F044827B6A69
:103950000093192301228249F86800F0F3FC034622
:10396000002B01D0022337E2FB6893F83C30012B97
:1039700001D1022330E2FB68012283F83C20FB687E
:103980001B681B6803F00103012B07D0FB681B6851
:103990001A68FB681B6842F001021A60FB681B682A
:1039A0001A68FB681B6822F400621A60FB68222216
:1039B00083F83D20FB68402283F83E20FB6800220C
:1039C0001A64FB683A6B5A62FB68BA8E5A85FB68C8
:1039D0005B8D9AB2FB681A85FB68624ADA62F888E6
:1039E0003A8979897B6A0193BB6B00930346F86837
:1039F00000F0C0FB0346002B01D00123ECE1FB6883
:103A00001B8D002B13D10023FB61FB681B685B69D6
:103A1000FB61FB681B689B69FB61FB69FB681B68BA
:103A20001A68FB681B6842F400721A60C0E1FB6808
:103A30001B8D012B1ED1FB681B681A68FB681B6875
:103A400022F480621A6072B600BF0023BB61FB687B
:103A50001B685B69BB61FB681B689B69BB61BB69D9
:103A6000FB681B681A68FB681B6842F400721A60E6
:103A700062B635E0FB681B8D022B1ED1FB681B680C
:103A80001A68FB681B6842F400621A6072B600BFD5
:103A900000237B61FB681B685B697B61FB681B68BB
:103AA0009B697B617B69FB681B681A68FB681B6804
:103AB00022F480621A6062B612E0FB681B681A6822
:103AC000FB681B6842F480621A6000233B61FB685C
:103AD0001B685B693B61FB681B689B693B613B69D9
:103AE00066E1FB681B8D032B00F21F81FB681B8DB9
:103AF000012B23D17A6AB96BF86800F0CDFD03463B
:103B0000002B01D0012367E1FB681B681A69FB6881
:103B10005B6AD2B21A70FB685B6A5A1CFB685A6215
:103B2000FB681B8D013B9AB2FB681A85FB685B8DB5
:103B30009BB2013B9AB2FB685A8539E1FB681B8D49
:103B4000022B52D17B6A0093BB6B00220649F868B6
:103B500000F0F8FB0346002B08D001233CE100BF36
:103B6000020010000000FFFF0400010072B600BF59
:103B7000FB681B681A68FB681B6842F400721A60D5
:103B8000FB681B681A69FB685B6AD2B21A70FB6833
:103B90005B6A5A1CFB685A62FB681B8D013B9AB238
:103BA000FB681A85FB685B8D9BB2013B9AB2FB6890
:103BB0005A8562B600BFFB681B681A69FB685B6ABE
:103BC000D2B21A70FB685B6A5A1CFB685A62FB68C7
:103BD0001B8D013B9AB2FB681A85FB685B8D9BB21B
:103BE000013B9AB2FB685A85E2E07B6A0093BB6BAB
:103BF00000227B49F86800F0A5FB0346002B01D0AA
:103C00000123E9E0FB681B681A68FB681B6822F463
:103C100080621A6072B600BFFB681B681A69FB6895
:103C20005B6AD2B21A70FB685B6A5A1CFB685A6204
:103C3000FB681B8D013B9AB2FB681A85FB685B8DA4
:103C40009BB2013B9AB2FB685A85664B1B68DB0846
:103C5000654AA2FB03231A0A13469B001344DA00A9
:103C6000D31A3B623B6A013B3B623B6A002B18D193
:103C7000FB6800221A63FB68202283F83D20FB6862
:103C8000002283F83E20FB681B6C43F02002FB6897
:103C90001A6462B600BFFB68002283F83C2001234F
:103CA0009AE0FB681B685B6903F00403042BD9D11D
:103CB000FB681B681A68FB681B6842F400721A6094
:103CC000FB681B681A69FB685B6AD2B21A70FB68F2
:103CD0005B6A5A1CFB685A62FB681B8D013B9AB2F7
:103CE000FB681A85FB685B8D9BB2013B9AB2FB684F
:103CF0005A8562B600BFFB681B681A69FB685B6A7D
:103D0000D2B21A70FB685B6A5A1CFB685A62FB6885
:103D10001B8D013B9AB2FB681A85FB685B8D9BB2D9
:103D2000013B9AB2FB685A8542E07A6AB96BF8683F
:103D300000F0B2FC0346002B01D001234CE0FB68ED
:103D40001B681A69FB685B6AD2B21A70FB685B6A0F
:103D50005A1CFB685A62FB681B8D013B9AB2FB68D8
:103D60001A85FB685B8D9BB2013B9AB2FB685A8552
:103D7000FB681B685B6903F00403042B18D1FB6824
:103D80001B681A69FB685B6AD2B21A70FB685B6ACF
:103D90005A1CFB685A62FB681B8D013B9AB2FB6898
:103DA0001A85FB685B8D9BB2013B9AB2FB685A8512
:103DB000FB681B8D002B7FF494AEFB68202283F8F8
:103DC0003D20FB68002283F83E20FB68002283F838
:103DD0003C20002300E0022318462837BD4680BD62
:103DE000040001001000002089B5F81480B58AB0E5
:103DF00002AFF8607A603B600B467B81FFF784F886
:103E0000F8610023BB61FB6893F83D30DBB2202BE7
:103E100040F01181FB690093192301228849F86859
:103E200000F090FA0346002B01D0022304E1FB6866
:103E300093F83C30012B01D10223FDE0FB68012205
:103E400083F83C20FB681B681B6803F00103012B0F
:103E500007D0FB681B681A68FB681B6842F0010208
:103E60001A60FB681B681A68FB681B6822F4006212
:103E70001A60FB68242283F83D20FB6800221A6444
:103E8000FB68704ADA62FB681B681A68FB681B688B
:103E900042F480721A60FB6900933B6800224FF085
:103EA0000111F86800F04EFA0346002B0DD0FB68B4
:103EB0001B681B6803F48073B3F5807F03D1FB6834
:103EC0004FF400721A640323B6E07B89DBB21A4612
:103ED000FB681B6802F0FE021A61FFF715F8F86133
:103EE000FB681B685B6903F00203022B0CBF012314
:103EF0000023DBB2FB75FB681B685B6903F480631E
:103F0000B3F5806F0CBF01230023DBB2BB7525E046
:103F1000FEF7FAFF0246FB69D31A3A689A4202D3C7
:103F20003B68002B03D1FB68A02283F83D20FB688F
:103F30001B685B6903F00203022B0CBF0123002303
:103F4000DBB2FB75FB681B685B6903F48063B3F548
:103F5000806F0CBF01230023DBB2BB75FB6893F8B5
:103F60003D30DBB2A02B05D0FB7D002B02D1BB7D09
:103F7000002BCDD0FB68202283F83D20FB681B6816
:103F80005B6903F00203022B29D1FB681B681A68E6
:103F9000FB681B6842F400721A6000233B61FB68F7
:103FA0001B685B693B61FB681B689B693B613B6904
:103FB000FB690093192301222149F86800F0C2F936
:103FC0000346002B01D0012336E0FB68202283F852
:103FD0003D20FB68002283F83C2000232CE0FB6896
:103FE0001B681A68FB681B6842F400721A60FB6861
:103FF0001B686FF480625A61FB69009319230122E8
:104000000F49F86800F09EF90346002B01D0012308
:1040100012E0BB690133BB61BA697B689A42FFF465
:1040200032AFFB68202283F83D20FB68002283F832
:104030003C20012300E0022318462037BD4680BD06
:10404000020010000000FFFF80B588B002AFF860EA
:10405000084611461A4603467B810B463B811346B0
:10406000FB80FB681B681A68FB681B6842F480725F
:104070001A607B6A00933B6A00224FF00111F868D6
:1040800000F060F90346002B0DD0FB681B681B682D
:1040900003F48073B3F5807F03D1FB684FF40072A3
:1040A0001A6403235FE07B89DBB21A46FB681B6856
:1040B00002F0FE021A617B6A3A6A2D49F86800F044
:1040C000BBF90346002B01D001234CE000237B61A8
:1040D000FB681B685B697B61FB681B689B697B6194
:1040E0007B697A6A396AF86800F046FA0346002B61
:1040F0000DD0FB681B6C042B07D1FB681B681A688A
:10410000FB681B6842F400721A6001232BE0FB88F5
:10411000012B05D13B89DAB2FB681B681A6121E0EB
:104120003B891B0A9BB2DAB2FB681B681A617A6A88
:10413000396AF86800F020FA0346002B0DD0FB68BE
:104140001B6C042B07D1FB681B681A68FB681B6893
:1041500042F400721A60012305E03B89DAB2FB6881
:104160001B681A61002318461837BD4680BD00BF82
:104170000200010080B588B002AFF8600846114621
:104180001A4603467B810B463B811346FB80FB6846
:104190001B681A68FB681B6842F480621A60FB683F
:1041A0001B681A68FB681B6842F480721A607B6A9D
:1041B00000933B6A00224FF00111F86800F0C2F84A
:1041C0000346002B0DD0FB681B681B6803F480734B
:1041D000B3F5807F03D1FB684FF400721A640323A8
:1041E000AAE07B89DBB21A46FB681B6802F0FE027C
:1041F0001A617B6A3A6A5249F86800F01DF9034671
:10420000002B01D0012397E000237B61FB681B6832
:104210005B697B61FB681B689B697B617B697A6A70
:10422000396AF86800F0A8F90346002B0DD0FB6846
:104230001B6C042B07D1FB681B681A68FB681B68A2
:1042400042F400721A60012376E0FB88012B05D14D
:104250003B89DAB2FB681B681A6121E03B891B0AC3
:104260009BB2DAB2FB681B681A617A6A396AF8682D
:1042700000F082F90346002B0DD0FB681B6C042B69
:1042800007D1FB681B681A68FB681B6842F4007260
:104290001A60012350E03B89DAB2FB681B681A619F
:1042A0007A6A396AF86800F067F90346002B0DD086
:1042B000FB681B6C042B07D1FB681B681A68FB6842
:1042C0001B6842F400721A60012335E0FB681B682A
:1042D0001A68FB681B6842F480721A607B6A00935C
:1042E0003B6A00224FF00111F86800F02BF80346FA
:1042F000002B0DD0FB681B681B6803F48073B3F5BB
:10430000807F03D1FB684FF400721A64032313E02B
:104310007B89DBB243F00103DAB2FB681B681A61E8
:104320007B6A3A6A0649F86800F086F80346002B73
:1043300001D0012300E0002318461837BD4680BD98
:104340000200010080B584B000AFF860B9603B6046
:104350001346FB7148E03B68B3F1FF3F44D0FEF7E2
:10436000D3FD0246BB69D31A3A689A4202D33B682E
:10437000002B39D1BB681B0CDBB2012B0DD1FB68C4
:104380001B685B69DA43BB6813409BB2002B0CBF10
:1043900001230023DBB21A460CE0FB681B689B6913
:1043A000DA43BB6813409BB2002B0CBF01230023F0
:1043B000DBB21A46FB799A4216D1FB6800221A63D7
:1043C000FB68202283F83D20FB68002283F83E2012
:1043D000FB681B6C43F02002FB681A64FB68002238
:1043E00083F83C20012323E0BB681B0CDBB2012BCC
:1043F0000DD1FB681B685B69DA43BB6813409BB255
:10440000002B0CBF01230023DBB21A460CE0FB6833
:104410001B689B69DA43BB6813409BB2002B0CBF3F
:1044200001230023DBB21A46FB799A4293D0002382
:1044300018461037BD4680BD80B584B000AFF86027
:10444000B9607A603B6071E0FB681B685B6903F4EC
:104450008063B3F5806F23D1FB681B681A68FB6823
:104460001B6842F400721A60FB681B686FF480627C
:104470005A61FB6800221A63FB68202283F83D2002
:10448000FB68002283F83E20FB681B6C43F00402AB
:10449000FB681A64FB68002283F83C20012367E074
:1044A0007B68B3F1FF3F41D0FEF72EFD02463B682B
:1044B000D31A7A689A4202D37B68002B36D1BB6844
:1044C0001B0CDBB2012B0CD1FB681B685B69DA4368
:1044D000BB6813409BB2002B14BF01230023DBB247
:1044E0000BE0FB681B689B69DA43BB6813409BB217
:1044F000002B14BF01230023DBB2002B16D0FB6876
:1045000000221A63FB68202283F83D20FB6800220A
:1045100083F83E20FB681B6C43F02002FB681A64A2
:10452000FB68002283F83C20012321E0BB681B0CC0
:10453000DBB2012B0CD1FB681B685B69DA43BB68FB
:1045400013409BB2002B14BF01230023DBB20BE00E
:10455000FB681B689B69DA43BB6813409BB2002B66
:1045600014BF01230023DBB2002B7FF46DAF0023C7
:1045700018461037BD4680BD80B584B000AFF860E6
:10458000B9607A6034E0F86800F0E3F80346002B85
:1045900001D0012334E0BB68B3F1FF3F28D0FEF720
:1045A000B3FC02467B68D31ABA689A4202D3BB684E
:1045B000002B1DD1FB681B685B6903F08003802B17
:1045C00016D0FB6800221A63FB68202283F83D2086
:1045D000FB68002283F83E20FB681B6C43F020023E
:1045E000FB681A64FB68002283F83C20012307E083
:1045F000FB681B685B6903F08003802BC3D1002339
:1046000018461037BD4680BD80B584B000AFF86055
:10461000B9607A6034E0F86800F09BF80346002B3C
:1046200001D0012334E0BB68B3F1FF3F28D0FEF78F
:104630006BFC02467B68D31ABA689A4202D3BB6805
:10464000002B1DD1FB681B685B6903F00403042B7E
:1046500016D0FB6800221A63FB68202283F83D20F5
:10466000FB68002283F83E20FB681B6C43F02002AD
:10467000FB681A64FB68002283F83C20012307E0F2
:10468000FB681B685B6903F00403042BC3D10023A0
:1046900018461037BD4680BD80B584B000AFF860C5
:1046A000B9607A6049E0FB681B685B6903F010033E
:1046B000102B19D1FB681B686FF010025A61FB6860
:1046C00000221A63FB68202283F83D20FB68002249
:1046D00083F83E20FB681A6CFB681A64FB680022B2
:1046E00083F83C20012330E0FEF70EFC02467B6895
:1046F000D31ABA689A4202D3BB68002B1DD1FB685B
:104700001B685B6903F04003402B16D0FB68002256
:104710001A63FB68202283F83D20FB68002283F89F
:104720003E20FB681B6C43F02002FB681A64FB68A8
:10473000002283F83C20012307E0FB681B685B69CB
:1047400003F04003402BAED1002318461037BD467E
:1047500080BD80B483B000AF78607B681B685B6904
:1047600003F48063B3F5806F1BD17B681B686FF423
:1047700080625A617B6800221A637B68202283F87A
:104780003D207B68002283F83E207B681B6C43F051
:1047900004027B681A647B68002283F83C200123B2
:1047A00000E0002318460C37BD4680BC704700006F
:1047B00080B586B000AF78607B68002B01D1012303
:1047C00072E27B681B6803F00103002B00F0878016
:1047D000924B5B6803F00C03042B0CD08F4B5B688F
:1047E00003F00C03082B12D18C4B5B6803F480336D
:1047F000B3F5803F0BD1894B1B6803F40033002BCA
:104800006CD07B685B68002B68D101234CE27B682D
:104810005B68B3F5803F06D1804B1B687F4A43F449
:10482000803313602EE07B685B68002B0CD17B4BE0
:104830001B687A4A23F480331360784B1B68774AED
:1048400023F4802313601DE07B685B68B3F5A02F21
:104850000CD1724B1B68714A43F4802313606F4B79
:104860001B686E4A43F4803313600BE06B4B1B688C
:104870006A4A23F480331360684B1B68674A23F449
:10488000802313607B685B68002B13D0FEF73CFB32
:10489000386108E0FEF738FB02463B69D31A642B07
:1048A00001D9032300E25D4B1B6803F40033002BA6
:1048B000F0D014E0FEF728FB386108E0FEF724FB97
:1048C00002463B69D31A642B01D90323ECE1534B15
:1048D0001B6803F40033002BF0D100E000BF7B68BD
:1048E0001B6803F00203002B63D04C4B5B6803F0A2
:1048F0000C03002B0BD0494B5B6803F00C03082B17
:104900001CD1464B5B6803F48033002B16D1434B1C
:104910001B6803F00203002B05D07B681B69012B89
:1049200001D00123C0E13D4B1B6823F0F8027B68F6
:104930005B69DB00394913430B603AE07B681B6914
:10494000002B20D0364B01221A60FEF7DDFA3861C9
:1049500008E0FEF7D9FA02463B69D31A022B01D9C7
:104960000323A1E12D4B1B6803F00203002BF0D0C1
:104970002A4B1B6823F0F8027B685B69DB00274940
:1049800013430B6015E0264B00221A60FEF7BCFAB9
:10499000386108E0FEF7B8FA02463B69D31A022BE9
:1049A00001D9032380E11D4B1B6803F00203002B98
:1049B000F0D17B681B6803F00803002B3AD07B68BA
:1049C0009B69002B19D0174B01221A60FEF79CFA45
:1049D000386108E0FEF798FA02463B69D31A022BC9
:1049E00001D9032360E10D4B5B6A03F00203002B46
:1049F000F0D0012000F0CEFA1CE00A4B00221A6031
:104A0000FEF782FA38610FE0FEF77EFA02463B6954
:104A1000D31A022B08D9032346E100BF001002403D
:104A20000000424280044242924B5B6A03F0020360
:104A3000002BE9D17B681B6803F00403002B00F016
:104A4000A6800023FB758B4BDB6903F08053002BA2
:104A50000DD1884BDB69874A43F08053D361854B86
:104A6000DB6903F08053BB60BB680123FB75824B9D
:104A70001B6803F48073002B18D17F4B1B687E4AA0
:104A800043F480731360FEF73FFA386108E0FEF7E5
:104A90003BFA02463B69D31A642B01D9032303E195
:104AA000754B1B6803F48073002BF0D07B68DB68C8
:104AB000012B06D16F4B1B6A6E4A43F00103136250
:104AC0002DE07B68DB68002B0CD16A4B1B6A694ABE
:104AD00023F001031362674B1B6A664A23F0040349
:104AE00013621CE07B68DB68052B0CD1614B1B6AF1
:104AF000604A43F0040313625E4B1B6A5D4A43F055
:104B0000010313620BE05B4B1B6A5A4A23F001035B
:104B10001362584B1B6A574A23F0040313627B68E5
:104B2000DB68002B15D0FEF7EFF938610AE0FEF7DD
:104B3000EBF902463B69D31A41F28832934201D91C
:104B40000323B1E04B4B1B6A03F00203002BEED0B2
:104B500014E0FEF7D9F938610AE0FEF7D5F902460C
:104B60003B69D31A41F28832934201D903239BE077
:104B7000404B1B6A03F00203002BEED1FB7D012B9F
:104B800005D13C4BDB693B4A23F08053D3617B6802
:104B9000DB69002B00F08780364B5B6803F00C0369
:104BA000082B61D07B68DB69022B46D1334B002296
:104BB0001A60FEF7A9F9386108E0FEF7A5F9024688
:104BC0003B69D31A022B01D903236DE0294B1B68E3
:104BD00003F00073002BF0D17B681B6AB3F5803FB4
:104BE00008D1244B5B6823F400327B689B68214921
:104BF00013434B601F4B5B6823F474127B68196A84
:104C00007B685B6A0B431B4913434B601B4B0122C0
:104C10001A60FEF779F9386108E0FEF775F9024687
:104C20003B69D31A022B01D903233DE0114B1B68CA
:104C300003F00073002BF0D035E0104B00221A6017
:104C4000FEF762F9386108E0FEF75EF902463B695B
:104C5000D31A022B01D9032326E0064B1B6803F06D
:104C60000073002BF0D11EE07B68DB69012B07D1BC
:104C7000012319E000100240007000406000424231
:104C80000B4B5B68FB60FB6803F480327B681B6A3C
:104C90009A4206D1FB6803F470127B685B6A9A4201
:104CA00001D0012300E0002318461837BD4680BD1F
:104CB0000010024080B584B000AF786039607B6836
:104CC000002B01D10123D0E06A4B1B6803F00703DE
:104CD0003A689A4210D9674B1B6823F0070265496E
:104CE0003B6813430B60634B1B6803F007033A6890
:104CF0009A4201D00123B8E07B681B6803F00203ED
:104D0000002B20D07B681B6803F00403002B05D028
:104D1000594B5B68584A43F4E06353607B681B68F7
:104D200003F00803002B05D0534B5B68524A43F451
:104D300060535360504B5B6823F0F0027B689B68C4
:104D40004D4913434B607B681B6803F00103002B44
:104D500040D07B685B68012B07D1474B1B6803F48D
:104D60000033002B15D101237FE07B685B68022BA9
:104D700007D1414B1B6803F00073002B09D10123BD
:104D800073E03D4B1B6803F00203002B01D10123AC
:104D90006BE0394B5B6823F003027B685B68364944
:104DA00013434B60FEF7B0F8F8600AE0FEF7ACF88A
:104DB0000246FB68D31A41F28832934201D9032399
:104DC00053E02D4B5B6803F00C027B685B689B0033
:104DD0009A42EBD1274B1B6803F007033A689A42CB
:104DE00010D2244B1B6823F0070222493B6813436F
:104DF0000B60204B1B6803F007033A689A4201D00E
:104E0000012332E07B681B6803F00403002B08D009
:104E1000194B5B6823F4E0627B68DB681649134337
:104E20004B607B681B6803F00803002B09D0124B12
:104E30005B6823F460527B681B69DB000E491343F7
:104E40004B6000F021F802460B4B5B681B0903F036
:104E50000F030A49CB5C22FA03F3094A1360094B9A
:104E60001B681846FEF70EF8002318461037BD469B
:104E700080BD00BF00200240001002409C9000084E
:104E8000100000201400002080B487B000AF002381
:104E9000FB600023BB6000237B6100237B60002359
:104EA0003B611E4B5B68FB60FB6803F00C03042B4B
:104EB00002D0082B03D027E0194B3B6127E0FB68A9
:104EC0009B0C03F00F03174AD35C7B60FB6803F471
:104ED0008033002B10D0114B5B685B0C03F0010397
:104EE000114AD35CBB607B680D4A03FB02F2BB68CE
:104EF000B2FBF3F37B6104E07B680C4A02FB03F333
:104F00007B617B693B6102E0054B3B6100BF3B6914
:104F100018461C37BD4680BC704700BF00100240D9
:104F200000127A00B4900008C490000800093D0007
:104F300080B400AF024B1B681846BD4680BC70476A
:104F40001000002080B500AFFFF7F2FF0246054BCE
:104F50005B681B0A03F007030349CB5C22FA03F3E7
:104F6000184680BD00100240AC90000880B500AF2C
:104F7000FFF7DEFF0246054B5B68DB0A03F0070321
:104F80000349CB5C22FA03F3184680BD00100240AF
:104F9000AC90000880B485B000AF78600A4B1B6805
:104FA0000A4AA2FB03235B0A7A6802FB03F3FB6055
:104FB00000BFFB685A1EFA60002BF9D100BF00BF8A
:104FC0001437BD4680BC704710000020D34D6210DE
:104FD00080B582B000AF78607B68002B01D10123DF
:104FE00041E07B6893F83D30DBB2002B06D17B6853
:104FF000002283F83C207868FDF7F8FC7B680222E9
:1050000083F83D207B681A687B6804331946104694
:1050100000F030FC7B68012283F846207B68012287
:1050200083F83E207B68012283F83F207B680122C1
:1050300083F840207B68012283F841207B680122AD
:1050400083F842207B68012283F843207B68012299
:1050500083F844207B68012283F845207B68012285
:1050600083F83D20002318460837BD4680BD000068
:1050700080B485B000AF78607B6893F83D30DBB2D8
:10508000012B01D001233AE07B68022283F83D2006
:105090007B681B68DA687B681B6842F00102DA6093
:1050A0007B681B68184A93420ED07B681B68B3F17B
:1050B000804F09D07B681B68144A934204D07B68F8
:1050C0001B68134A934211D17B681B689B6803F0ED
:1050D0000703FB60FB68062B10D07B681B681A680F
:1050E0007B681B6842F001021A6007E07B681B685E
:1050F0001A687B681B6842F001021A600023184698
:105100001437BD4680BC7047002C014000040040AD
:105110000008004080B582B000AF78607B68002B4B
:1051200001D1012341E07B6893F83D30DBB2002BD5
:1051300006D17B68002283F83C20786800F039F8BB
:105140007B68022283F83D207B681A687B68043301
:105150001946104600F08EFB7B68012283F846203A
:105160007B68012283F83E207B68012283F83F2080
:105170007B68012283F840207B68012283F841206C
:105180007B68012283F842207B68012283F8432058
:105190007B68012283F844207B68012283F8452044
:1051A0007B68012283F83D20002318460837BD465E
:1051B00080BD80B483B000AF786000BF0C37BD46BF
:1051C00080BC704780B584B000AF786039603B68C0
:1051D000002B09D17B6893F83E30DBB2012B14BF62
:1051E00001230023DBB222E03B68042B09D17B685A
:1051F00093F83F30DBB2012B14BF01230023DBB255
:1052000015E03B68082B09D17B6893F84030DBB28E
:10521000012B14BF01230023DBB208E07B6893F865
:105220004130DBB2012B14BF01230023DBB2002B82
:1052300001D001235EE03B68002B04D17B68022291
:1052400083F83E2013E03B68042B04D17B680222E4
:1052500083F83F200BE03B68082B04D17B680222D7
:1052600083F8402003E07B68022283F841207B68BA
:105270001B6801223968184600F07CFD7B681B68BA
:105280001E4A934207D17B681B685A6C7B681B6877
:1052900042F400425A647B681B68184A93420ED05D
:1052A0007B681B68B3F1804F09D07B681B68144A88
:1052B000934204D07B681B68124A934211D17B68E9
:1052C0001B689B6803F00703FB60FB68062B10D08C
:1052D0007B681B681A687B681B6842F001021A60D1
:1052E00007E07B681B681A687B681B6842F0010254
:1052F0001A60002318461037BD4680BD002C0140BF
:10530000000400400008004080B582B000AF786023
:105310007B681B681B6903F00203022B22D17B68A8
:105320001B68DB6803F00203022B1BD17B681B6840
:105330006FF002021A617B6801221A777B681B6892
:105340009B6903F00303002B03D0786800F076FA22
:1053500005E0786800F069FA786800F078FA7B6810
:1053600000221A777B681B681B6903F00403042B77
:1053700022D17B681B68DB6803F00403042B1BD17C
:105380007B681B686FF004021A617B6802221A773F
:105390007B681B689B6903F44073002B03D078681B
:1053A00000F04CFA05E0786800F03FFA786800F009
:1053B0004EFA7B6800221A777B681B681B6903F032
:1053C0000803082B22D17B681B68DB6803F0080305
:1053D000082B1BD17B681B686FF008021A617B6881
:1053E00004221A777B681B68DB6903F00303002B38
:1053F00003D0786800F022FA05E0786800F015FA2A
:10540000786800F024FA7B6800221A777B681B68B2
:105410001B6903F01003102B22D17B681B68DB682B
:1054200003F01003102B1BD17B681B686FF0100278
:105430001A617B6808221A777B681B68DB6903F4B2
:105440004073002B03D0786800F0F8F905E0786825
:1054500000F0EBF9786800F0FAF97B6800221A771F
:105460007B681B681B6903F00103012B0ED17B686D
:105470001B68DB6803F00103012B07D17B681B6805
:105480006FF001021A617868FCF7BAFF7B681B684D
:105490001B6903F08003802B0ED17B681B68DB68DF
:1054A00003F08003802B07D17B681B686FF08002BC
:1054B0001A61786800F0E9FC7B681B681B6903F0DF
:1054C0004003402B0ED17B681B68DB6803F0400370
:1054D000402B07D17B681B686FF040021A61786827
:1054E00000F0BEF97B681B681B6903F02003202BCA
:1054F0000ED17B681B68DB6803F02003202B07D1EB
:105500007B681B686FF020021A61786800F0B4FCB9
:1055100000BF0837BD4680BD80B586B000AFF860DB
:10552000B9607A600023FB75FB6893F83C30012B6F
:1055300001D10223AEE0FB68012283F83C207B68A6
:105540000C2B00F29F8001A252F823F08155000835
:10555000855600088556000885560008C155000884
:105560008556000885560008855600080356000831
:1055700085560008855600088556000843560008E1
:10558000FB681B68B968184600F0D6F9FB681B6811
:105590009A69FB681B6842F008029A61FB681B6805
:1055A0009A69FB681B6822F004029A61FB681B6819
:1055B0009969BB681A69FB681B680A439A6164E0D1
:1055C000FB681B68B968184600F01CFAFB681B688A
:1055D0009A69FB681B6842F400629A61FB681B6869
:1055E0009A69FB681B6822F480629A61FB681B68F9
:1055F0009969BB681B691A02FB681B680A439A61B8
:1056000043E0FB681B68B968184600F065FAFB6860
:105610001B68DA69FB681B6842F00802DA61FB6804
:105620001B68DA69FB681B6822F00402DA61FB6818
:105630001B68D969BB681A69FB681B680A43DA6191
:1056400023E0FB681B68B968184600F0AFFAFB68F6
:105650001B68DA69FB681B6842F40062DA61FB6868
:105660001B68DA69FB681B6822F48062DA61FB68F8
:105670001B68D969BB681B691A02FB681B680A436F
:10568000DA6102E00123FB7500BFFB68002283F8AA
:105690003C20FB7D18461837BD4680BD80B584B0E0
:1056A00000AF786039600023FB737B6893F83C306F
:1056B000012B01D10223B4E07B68012283F83C2056
:1056C0007B68022283F83D207B681B689B68BB6077
:1056D000BB6823F07703BB60BB6823F47F43BB60E8
:1056E0007B681B68BA689A603B681B68B3F5005F0B
:1056F0003ED0B3F5005F00F28780B3F5805F00F025
:105700008680B3F5805F7FD8702B1AD0702B7BD842
:10571000602B50D0602B77D8502B3CD0502B73D8B7
:10572000402B58D0402B6FD8302B64D0302B6BD807
:10573000202B60D0202B67D8002B5CD0102B5AD0A8
:1057400062E07B6818683B6899683B685A683B6808
:10575000DB6800F0F0FA7B681B689B68BB60BB6885
:1057600043F07703BB607B681B68BA689A604FE0C0
:105770007B6818683B6899683B685A683B68DB68D7
:1057800000F0D9FA7B681B689A687B681B6842F452
:1057900080429A603CE07B6818683B6859683B68C7
:1057A000DB681A4600F050FA7B681B6850211846E7
:1057B00000F0A7FA2CE07B6818683B6859683B68E2
:1057C000DB681A4600F06EFA7B681B686021184699
:1057D00000F097FA1CE07B6818683B6859683B68E2
:1057E000DB681A4600F030FA7B681B6840211846D7
:1057F00000F087FA0CE07B681A683B681B68194662
:10580000104600F07EFA03E00123FB7300E000BFC6
:105810007B68012283F83D207B68002283F83C20CE
:10582000FB7B18461037BD4680BD80B483B000AF07
:10583000786000BF0C37BD4680BC704780B483B031
:1058400000AF786000BF0C37BD4680BC704780B4A5
:1058500083B000AF786000BF0C37BD4680BC704796
:1058600080B483B000AF786000BF0C37BD4680BC09
:105870007047000080B485B000AF786039607B6805
:105880001B68FB607B68294A93420BD07B68B3F1AD
:10589000804F07D07B68264A934203D07B68254A15
:1058A000934208D1FB6823F07003FB603B685B68A0
:1058B000FA681343FB607B681C4A93420BD07B68F9
:1058C000B3F1804F07D07B68194A934203D07B68BD
:1058D000184A934208D1FB6823F44073FB603B688D
:1058E000DB68FA681343FB60FB6823F080023B68C7
:1058F0005B691343FB607B68FA681A603B689A68CF
:105900007B68DA623B681A687B689A627B68074A40
:10591000934203D13B681A697B681A637B68012252
:105920005A6100BF1437BD4680BC7047002C01404F
:10593000000400400008004080B487B000AF7860E9
:1059400039607B681B6A7B617B681B6A23F00102FC
:105950007B681A627B685B683B617B689B69FB6064
:10596000FB6823F07003FB60FB6823F00303FB601C
:105970003B681B68FA681343FB607B6923F00203F2
:105980007B613B689B687A6913437B617B681C4A37
:1059900093420CD17B6923F008037B613B68DB6891
:1059A0007A6913437B617B6923F004037B617B6825
:1059B000134A934211D13B6923F480733B613B69E5
:1059C00023F400733B613B685B693A6913433B61B5
:1059D0003B689B693A6913433B617B683A695A604B
:1059E0007B68FA689A613B685A687B685A637B688F
:1059F0007A691A6200BF1C37BD4680BC704700BF81
:105A0000002C014080B487B000AF786039607B68BB
:105A10001B6A7B617B681B6A23F010027B681A6239
:105A20007B685B683B617B689B69FB60FB6823F478
:105A3000E043FB60FB6823F44073FB603B681B683A
:105A40001B02FA681343FB607B6923F020037B6130
:105A50003B689B681B017A6913437B617B681D4A25
:105A600093420DD17B6923F080037B613B68DB6847
:105A70001B017A6913437B617B6923F040037B61DF
:105A80007B68144A934213D13B6923F480633B61E2
:105A90003B6923F400633B613B685B699B003A69A7
:105AA00013433B613B689B699B003A6913433B612D
:105AB0007B683A695A607B68FA689A613B685A6801
:105AC0007B689A637B687A691A6200BF1C37BD469F
:105AD00080BC7047002C014080B487B000AF786074
