:020000040800F2
:10000000005000209D3200085D3000086330000879
:10001000693000086F3000087530000800000000EB
:100020000000000000000000000000007B3000081D
:100030008730000800000000933000089F3000085F
:10004000E5320008E5320008E5320008E532000834
:10005000E5320008E5320008E5320008E532000824
:10006000E5320008E5320008E5320008E532000814
:10007000E5320008E5320008E5320008E532000804
:10008000E5320008E5320008E5320008E5320008F4
:10009000E5320008E5320008E5320008E5320008E4
:1000A000E5320008E5320008E5320008E5320008D4
:1000B000AD300008C1300008D5300008E532000836
:1000C000E5320008E5320008E5320008E5320008B4
:1000D000E5320008E5320008E5320008E5320008A4
:1000E000E9300008E5320008E532000800000000B1
:1000F0000000000000000000000000000000000000
:0C01000000000000000000005FF808F1A3
:1001100010B5054C237833B9044B13B10448AFF341
:1001200000800123237010BDEC01002000000000BE
:10013000CC94000808B5034B1BB103490348AFF347
:10014000008008BD00000000F0010020CC940008F1
:10015000034613F8012B002AFBD1181A0138704707
:1001600081F0004102E000BF83F0004330B54FEA68
:1001700041044FEA430594EA050F08BF90EA020FD5
:100180001FBF54EA000C55EA020C7FEA645C7FEA68
:10019000655C00F0E2804FEA5454D4EB5555B8BF8B
:1001A0006D420CDD2C4480EA020281EA030382EAFC
:1001B000000083EA010180EA020281EA0303362D8E
:1001C00088BF30BD11F0004F4FEA01314FF4801C61
:1001D0004CEA113102D0404261EB410113F0004F73
:1001E0004FEA03334CEA133302D0524263EB43032A
:1001F00094EA050F00F0A780A4F10104D5F1200EC8
:100200000DDB02FA0EFC22FA05F2801841F1000122
:1002100003FA0EF2801843FA05F359410EE0A5F1F6
:1002200020050EF1200E012A03FA0EFC28BF4CF027
:10023000020C43FA05F3C01851EBE37101F00045DD
:1002400007D54FF0000EDCF1000C7EEB00006EEBEA
:100250000101B1F5801F1BD3B1F5001F0CD3490874
:100260005FEA30004FEA3C0C04F101044FEA4452CB
:1002700012F5800F80F09A80BCF1004F08BF5FEA52
:10028000500C50F1000041EB045141EA050130BD32
:100290005FEA4C0C404141EB0101013C28BFB1F544
:1002A000801FE9D291F0000F04BF01460020B1FA8F
:1002B00081F308BF2033A3F10B03B3F120020CDA62
:1002C0000C3208DD02F1140CC2F10C0201FA0CF040
:1002D00021FA02F10CE002F11402D8BFC2F1200CA5
:1002E00001FA02F120FA0CFCDCBF41EA0C0190405B
:1002F000E41AA2BF01EB0451294330BD6FEA0404A4
:100300001F3C1CDA0C340EDC04F11404C4F120028E
:1003100020FA04F001FA02F340EA030021FA04F3A0
:1003200045EA030130BDC4F10C04C4F1200220FAF7
:1003300002F001FA04F340EA0300294630BD21FA35
:1003400004F0294630BD94F0000F83F4801306BFFB
:1003500081F480110134013D4EE77FEA645C18BFEF
:100360007FEA655C29D094EA050F08BF90EA020F86
:1003700005D054EA000C04BF1946104630BD91EA7E
:10038000030F1EBF0021002030BD5FEA545C05D181
:100390004000494128BF41F0004130BD14F58004C0
:1003A0003CBF01F5801130BD01F0004545F0FE4134
:1003B00041F470014FF0000030BD7FEA645C1ABF69
:1003C000194610467FEA655C1CBF0B46024650EAA0
:1003D000013406BF52EA033591EA030F41F40021CC
:1003E00030BD00BF90F0000F04BF0021704730B552
:1003F0004FF4806404F132044FF000054FF0000127
:1004000050E700BF90F0000F04BF0021704730B5E7
:100410004FF4806404F1320410F0004548BF4042BC
:100420004FF000013EE700BF42004FEAE2014FEA11
:1004300031014FEA02701FBF12F07F4393F07F4FEC
:1004400081F06051704732F07F4208BF704793F0EF
:100450007F4F04BF41F40021704730B54FF4607402
:1004600001F0004521F000411CE700BF50EA010205
:1004700008BF704730B54FF000050AE050EA0102AE
:1004800008BF704730B511F0004502D5404261EB1E
:1004900041014FF4806404F132045FEA915C3FF45F
:1004A000D8AE4FF003025FEADC0C18BF03325FEAFC
:1004B000DC0C18BF033202EBDC02C2F1200300FAAD
:1004C00003FC20FA02F001FA03FE40EA0E0021FAD2
:1004D00002F11444BDE600BF70B54FF0FF0C4CF4C0
:1004E000E06C1CEA11541DBF1CEA135594EA0C0F72
:1004F00095EA0C0F00F0DEF82C4481EA030621EAAD
:100500004C5123EA4C5350EA013518BF52EA0335E7
:1005100041F4801143F4801338D0A0FB02CE4FF099
:100520000005E1FB02E506F00042E0FB03E54FF0C9
:100530000006E1FB03569CF0000F18BF4EF0010EC1
:10054000A4F1FF04B6F5007F64F5407404D25FEABD
:100550004E0E6D4146EB060642EAC62141EA555170
:100560004FEAC52040EA5E504FEACE2EB4F1FD0CB2
:1005700088BFBCF5E06F1ED8BEF1004F08BF5FEA30
:10058000500E50F1000041EB045170BD06F00046E2
:1005900046EA010140EA020081EA0301B4EB5C048F
:1005A000C2BFD4EB0C0541EA045170BD41F4801187
:1005B0004FF0000E013C00F3AB8014F1360FDEBFAC
:1005C000002001F0004170BDC4F10004203C35DA88
:1005D0000C341BDC04F11404C4F1200500FA05F30B
:1005E00020FA04F001FA05F240EA020001F00042AC
:1005F00021F0004110EBD37021FA04F642EB060122
:100600005EEA430E08BF20EAD37070BDC4F10C044B
:10061000C4F1200500FA04F320FA05F001FA04F20F
:1006200040EA020001F0004110EBD37041F10001FB
:100630005EEA430E08BF20EAD37070BDC4F1200506
:1006400000FA05F24EEA020E20FA04F301FA05F26E
:1006500043EA020321FA04F001F0004121FA04F216
:1006600020EA020000EBD3705EEA430E08BF20EAE6
:10067000D37070BD94F0000F0FD101F00046400020
:1006800041EB010111F4801F08BF013CF7D041EAA2
:10069000060195F0000F18BF704703F000465200A6
:1006A00043EB030313F4801F08BF013DF7D043EA77
:1006B0000603704794EA0C0F0CEA135518BF95EA2D
:1006C0000C0F0CD050EA410618BF52EA4306D1D1B4
:1006D00081EA030101F000414FF0000070BD50EAD3
:1006E000410606BF1046194652EA430619D094EA5D
:1006F0000C0F02D150EA013613D195EA0C0F05D147
:1007000052EA03361CBF104619460AD181EA03019A
:1007100001F0004141F0FE4141F470014FF0000052
:1007200070BD41F0FE4141F4780170BD70B54FF0ED
:10073000FF0C4CF4E06C1CEA11541DBF1CEA13556D
:1007400094EA0C0F95EA0C0F00F0A7F8A4EB05044F
:1007500081EA030E52EA03354FEA013100F0888046
:100760004FEA03334FF0805545EA131343EA12630F
:100770004FEA022245EA111545EA10654FEA0026C4
:100780000EF000419D4208BF964244F1FD0404F57D
:10079000407402D25B084FEA3202B61A65EB0305D9
:1007A0005B084FEA32024FF480104FF4002CB6EB96
:1007B000020E75EB030E22BFB61A754640EA0C0016
:1007C0005B084FEA3202B6EB020E75EB030E22BF56
:1007D000B61A754640EA5C005B084FEA3202B6EB97
:1007E000020E75EB030E22BFB61A754640EA9C0056
:1007F0005B084FEA3202B6EB020E75EB030E22BF26
:10080000B61A754640EADC0055EA060E18D04FEAE3
:10081000051545EA16754FEA06164FEAC30343EA83
:1008200052734FEAC2025FEA1C1CC0D111F4801F50
:100830000BD141EA00014FF000004FF0004CB6E749
:1008400011F4801F04BF01430020B4F1FD0C88BFE8
:10085000BCF5E06F3FF6AFAEB5EB030C04BFB6EBF3
:10086000020C5FEA500C50F1000041EB045170BDE6
:100870000EF0004E4EEA113114EB5C04C2BFD4EB13
:100880000C0541EA045170BD41F480114FF0000E97
:10089000013C90E645EA060E8DE60CEA135594EA13
:1008A0000C0F08BF95EA0C0F3FF43BAF94EA0C0F16
:1008B0000AD150EA01347FF434AF95EA0C0F7FF48B
:1008C00025AF104619462CE795EA0C0F06D152EADF
:1008D00003353FF4FDAE1046194622E750EA4106C3
:1008E00018BF52EA43067FF4C5AE50EA41047FF4D4
:1008F0000DAF52EA43057FF4EBAE12E74FF0FF3C39
:1009000006E000BF4FF0010C02E000BF4FF0010C09
:100910004DF804CD4FEA410C7FEA6C5C4FEA430C82
:1009200018BF7FEA6C5C1BD001B050EA410C0CBFD1
:1009300052EA430C91EA030F02BF90EA020F002033
:10094000704710F1000F91EA030F58BF994208BF9A
:1009500090422CBFD8176FEAE37040F00100704757
:100960004FEA410C7FEA6C5C02D150EA013C07D1AE
:100970004FEA430C7FEA6C5CD6D152EA033CD3D0F9
:100980005DF8040B704700BF8446104662468C46F3
:100990001946634600E000BF01B5FFF7B7FF002826
:1009A00048BF10F1000F01BD4DF808EDFFF7F4FF4F
:1009B0000CBF012000205DF808FB00BF4DF808EDDA
:1009C000FFF7EAFF34BF012000205DF808FB00BFFD
:1009D0004DF808EDFFF7E0FF94BF012000205DF81F
:1009E00008FB00BF4DF808EDFFF7CEFF94BF0120D4
:1009F00000205DF808FB00BF4DF808EDFFF7C4FFCD
:100A000034BF012000205DF808FB00BF4FEA410C15
:100A10007FEA6C5C02D150EA013C0AD14FEA430CF8
:100A20007FEA6C5C02D152EA033C02D14FF0000035
:100A300070474FF0010070474FEA410212F5001273
:100A400015D211D56FF47873B3EB625212D94FEA15
:100A5000C12343F0004343EA505311F0004F23FAFF
:100A600002F018BF404270474FF00000704750EA54
:100A7000013005D111F0004008BF6FF00040704711
:100A80004FF00000704700BF4FEA4102B2F1E0436F
:100A900024BFB3F5001CDCF1FE5C0DD901F0004C65
:100AA0004FEAC0024CEA5070B2F1004F40EB8300B5
:100AB00008BF20F00100704711F0804F21D113F1E1
:100AC0003872BCBF01F00040704741F480114FEA1A
:100AD0005252C2F11802C2F1200C10FA0CF320FAA3
:100AE00002F018BF40F001004FEAC1234FEAD323C0
:100AF00003FA0CFC40EA0C0023FA02F34FEA43032A
:100B0000CCE77FEA625307D150EA01331EBF4FF0B2
:100B1000FE4040F44000704701F0004040F0FE40CD
:100B200040F40000704700BF80F0004002E000BFCA
:100B300081F0004142001FBF5FEA410392EA030FC8
:100B40007FEA226C7FEA236C6AD04FEA1262D2EB12
:100B50001363C1BFD218414048404140B8BF5B4217
:100B6000192B88BF704710F0004F40F4000020F0B0
:100B70007F4018BF404211F0004F41F4000121F0C6
:100B80007F4118BF494292EA030F3FD0A2F1010210
:100B900041FA03FC10EB0C00C3F1200301FA03F14E
:100BA00000F0004302D5494260EB4000B0F5000F71
:100BB00013D3B0F1807F06D340084FEA310102F130
:100BC0000102FE2A51D2B1F1004F40EBC25008BFE2
:100BD00020F0010040EA03007047490040EB0000AC
:100BE000013A28BFB0F5000FEDD2B0FA80FCACF1AD
:100BF000080CB2EB0C0200FA0CF0AABF00EBC250DA
:100C000052421843BCBFD0401843704792F0000FC7
:100C100081F4000106BF80F400000132013BB5E71A
:100C20004FEA41037FEA226C18BF7FEA236C21D090
:100C300092EA030F04D092F0000F08BF08467047F5
:100C400090EA010F1CBF0020704712F07F4F04D1C3
:100C5000400028BF40F00040704712F100723CBFD6
:100C600000F50000704700F0004343F0FE4040F400
:100C7000000070477FEA226216BF08467FEA2363BE
:100C80000146420206BF5FEA412390EA010F40F4A9
:100C9000800070474FF0000304E000BF10F00043F5
:100CA00048BF40425FEA000C08BF704743F09643DC
:100CB00001464FF000001CE050EA010208BF7047F7
:100CC0004FF000030AE000BF50EA010208BF70477E
:100CD00011F0004302D5404261EB41015FEA010C93
:100CE00002BF84460146002043F0B64308BFA3F18B
:100CF0008053A3F50003BCFA8CF2083AA3EBC2536D
:100D000010DB01FA02FC634400FA02FCC2F120028B
:100D1000BCF1004F20FA02F243EB020008BF20F0C2
:100D20000100704702F1200201FA02FCC2F1200228
:100D300050EA4C0021FA02F243EB020008BF20EA1D
:100D4000DC7070474FF0FF0C1CEAD0521EBF1CEA4B
:100D5000D15392EA0C0F93EA0C0F6FD01A4480EA39
:100D6000010C400218BF5FEA41211ED04FF0006322
:100D700043EA501043EA5111A0FB01310CF000404E
:100D8000B1F5000F3EBF490041EAD3715B0040EA74
:100D9000010062F17F02FD2A1DD8B3F1004F40EB44
:100DA000C25008BF20F00100704790F0000F0CF017
:100DB000004C08BF49024CEA502040EA51207F3ADB
:100DC000C2BFD2F1FF0340EAC250704740F40000B6
:100DD0004FF00003013A5DDC12F1190FDCBF00F0A7
:100DE00000407047C2F10002410021FA02F1C2F155
:100DF000200200FA02FC5FEA310040F1000053EAF1
:100E00004C0308BF20EADC70704792F0000F00F03E
:100E1000004C02BF400010F4000F013AF9D040EA44
:100E20000C0093F0000F01F0004C02BF490011F4D8
:100E3000000F013BF9D041EA0C018FE70CEAD153D6
:100E400092EA0C0F18BF93EA0C0F0AD030F0004C56
:100E500018BF31F0004CD8D180EA010000F000400A
:100E6000704790F0000F17BF90F0004F084691F0C8
:100E7000000F91F0004F14D092EA0C0F01D1420202
:100E80000FD193EA0C0F03D14B0218BF084608D1CB
:100E900080EA010000F0004040F0FE4040F4000015
:100EA000704740F0FE4040F4400070474FF0FF0CA8
:100EB0001CEAD0521EBF1CEAD15392EA0C0F93EAEF
:100EC0000C0F69D0A2EB030280EA010C49024FEA41
:100ED000402037D04FF0805343EA111143EA1013FA
:100EE0000CF000408B4238BF5B0042F17D024FF4B2
:100EF000000C8B4224BF5B1A40EA0C00B3EB510F8D
:100F000024BFA3EB510340EA5C00B3EB910F24BF75
:100F1000A3EB910340EA9C00B3EBD10F24BFA3EBFA
:100F2000D10340EADC001B0118BF5FEA1C1CE0D1C2
:100F3000FD2A3FF650AF8B4240EBC25008BF20F075
:100F4000010070470CF0004C4CEA50207F32C2BFC9
:100F5000D2F1FF0340EAC250704740F400004FF066
:100F60000003013A37E792F0000F00F0004C02BF97
:100F7000400010F4000F013AF9D040EA0C0093F061
:100F8000000F01F0004C02BF490011F4000F013BBB
:100F9000F9D041EA0C0195E70CEAD15392EA0C0F23
:100FA00008D142027FF47DAF93EA0C0F7FF470AF5B
:100FB000084676E793EA0C0F04D14B023FF44CAF9E
:100FC00008466EE730F0004C18BF31F0004CCAD133
:100FD00030F000427FF45CAF31F000437FF43CAF6F
:100FE0005FE700BF4FF0FF3C06E000BF4FF0010C91
:100FF00002E000BF4FF0010C4DF804CD4FEA400273
:101000004FEA41037FEA226C18BF7FEA236C11D0BC
:1010100001B052EA530C18BF90EA010F58BFB2EB6F
:10102000030088BFC81738BF6FEAE17018BF40F0EF
:10103000010070477FEA226C02D15FEA402C05D1A3
:101040007FEA236CE4D15FEA412CE1D05DF8040B28
:10105000704700BF844608466146FFE70FB5FFF7BB
:10106000C9FF002848BF10F1000F0FBD4DF808ED73
:10107000FFF7F4FF0CBF012000205DF808FB00BF64
:101080004DF808EDFFF7EAFF34BF012000205DF8BE
:1010900008FB00BF4DF808EDFFF7E0FF94BF01200B
:1010A00000205DF808FB00BF4DF808EDFFF7D2FF08
:1010B00094BF012000205DF808FB00BF4DF808ED4B
:1010C000FFF7C8FF34BF012000205DF808FB00BF18
:1010D00042000ED2B2F1FE4F0BD34FF09E03B3EBA2
:1010E000126209D44FEA002343F0004323FA02F0CE
:1010F00070474FF00000704712F1610F01D14202BA
:1011000002D14FF0FF3070474FF00000704700BF32
:1011100080B500AF00220121144802F0D9FB002263
:101120000221124802F0D4FB002204210F4802F0F1
:10113000CFFB002208210D4802F0CAFB00224FF429
:1011400000410A4802F0C4FB00220821084802F0CE
:10115000BFFB00221021064802F0BAFB002220212A
:10116000034802F0B5FB00BF80BD00BF000801408E
:10117000000C014080B500AF00224FF4004105484B
:1011800002F0A6FB01220821034802F0A1FB00BFE8
:1011900080BD00BF00080140000C014080B500AFD9
:1011A00000221021044802F093FB01222021024872
:1011B00002F08EFB00BF80BD000C014080B500AF87
:1011C00000220421044802F083FB01220821024886
:1011D00002F07EFB00BF80BD0008014080B500AF7B
:1011E00000220121044802F073FB0122022102487F
:1011F00002F06EFB00BF80BD0008014080B500AF6B
:1012000001224FF40041054802F062FB0022082150
:10121000034802F05DFB00BF80BD00BF0008014035
:10122000000C014080B500AF01221021044802F0FB
:101230004FFB00222021024802F04AFB00BF80BD84
:10124000000C014080B500AF01220421044802F0E7
:101250003FFB00220821024802F03AFB00BF80BD9C
:101260000008014080B500AF01220121044802F0CE
:101270002FFB00220221024802F02AFB00BF80BDA2
:101280000008014080B584B000AFF860B9607A60B2
:101290003B60FB68BA681A607968B868FFF706FEB9
:1012A00003461A46FB685A603968B868FFF74AFD7A
:1012B00003461A46FB689A60FB683A6ADA60FB6884
:1012C0004FF000021A61FB684FF000025A61FB68A0
:1012D0004FF000029A61FB68BA69DA61FB68FA694B
:1012E0001A62FB684FF000025A6200BF1037BD4619
:1012F00080BD000090B58BB000AFF860B9607A6037
:10130000FB68DB68B9681846FFF712FC0346FB610F
:10131000FB681C696349F869FFF714FD0346194629
:101320002046FFF707FC03461A46FB681A61FB6874
:101330005B691946F869FFF7FBFB034659491846F4
:10134000FFF7B4FD0346BB61FB681B68F9691846EB
:10135000FFF7F8FC03461C46FB685A68FB681B69EC
:1013600019461046FFF7EEFC034619462046FFF7E4
:10137000E1FB03461C46FB689B68B9691846FFF70A
:10138000E1FC034619462046FFF7D4FB03463B62C7
:10139000FB681B6A1946386AFFF790FE0346002B6C
:1013A00002D0FB681B6A3B62FB68DB691946386A3E
:1013B000FFF766FE0346002B02D0FB68DB693B6249
:1013C0003B6A7B624FF00001786AFFF759FE0346E3
:1013D000002B03D07B6A83F000437B623249786A3A
:1013E000FFF7B0FC03461A46FB681B6A1946104615
:1013F000FFF75CFD03467B614FF00001386AFFF7A1
:101400003FFE0346002B1AD03B6A83F000433B6249
:101410007B68012B02D1FFF7C1FE10E07B68022B35
:1014200002D1FFF7A7FE0AE07B68032B02D1FFF78A
:10143000D5FE04E07B68042B01D1FFF7BFFE4FF01F
:101440000001386AFFF73AFE0346002B16D07B688E
:10145000012B02D1FFF7E6FE10E07B68022B02D1E0
:10146000FFF7CCFE0AE07B68032B02D1FFF7FAFE00
:1014700004E07B68042B01D1FFF7E4FEFB68FA6906
:101480005A61FB68BA689A61FB687A695A62FB68BC
:101490005B6A79691846FFF74DFB034618462C37FF
:1014A000BD4690BD00007A4300F07F4580B485B012
:1014B00000AFF860B9607A603B60FB68BA681A6098
:1014C000FB684FF000025A60FB684FF00002DA60E0
:1014D000FB684FF000021A61FB684FF000025A618E
:1014E000FB683A68DA61FB68BA691A6200BF1437B0
:1014F000BD4680BC70470000B0B586B000AF7860D4
:1015000039603868FEF790FF4DA3D3E90023FFF759
:1015100073FA0346002B0DD03868FEF785FF4FF0B5
:1015200033324D4BFFF74AFA0346002B02D07B685B
:10153000DB683B607B68DB6839681846FFF7F8FAC0
:1015400003463B617B681B691846FEF76DFF044646
:101550000D463869FEF768FF3BA3D3E90023FEF789
:10156000BBFF02460B4620462946FEF7FFFD02461A
:101570000B4610461946FFF787FA02467B681A6148
:101580007B681B6839691846FFF7DCFB03461C467D
:101590007B685A687B681B6919461046FFF7D2FBC7
:1015A000034619462046FFF7C5FA03467B617B6870
:1015B0003A689A617B681B6A19467869FFF77EFD75
:1015C0000346002B02D07B681B6A7B617B68DB696A
:1015D00019467869FFF754FD0346002B02D07B685B
:1015E000DB697B617869FEF71FFF04460D467B6867
:1015F0001B6A1846FEF718FF02460B4614A1D1E9F4
:101600000001FFF793F802460B4620462946FEF7F5
:1016100063FF02460B4610461946FFF735FA0346AC
:10162000FB607B68FA685A627B685B6AF9681846F7
:10163000FFF780FA034618461837BD46B0BD00BF15
:10164000333333333333F3BF9A9999999999A93F37
:101650000000000000FEAF403333F33F80B586B09A
:1016600004AF464B1B7899B2642302930123019384
:101670007B1D009301237522414802F097FB7B7983
:10168000682B77D100233B713C4B1B7899B26423C4
:101690000293012301933B1D009301236B223848E1
:1016A00002F08AFA07233B71344B1B7899B264230A
:1016B0000293012301933B1D00930123192230481B
:1016C00002F07AFA2D4B1B7899B26423029301231E
:1016D00001933B1D009301231C22294802F066FB65
:1016E0000023FB713B7923F01803DBB23B71FB79DC
:1016F000DB005AB23B795BB213435BB2DBB23B71A6
:101700001E4B1B7899B264230293012301933B1D66
:10171000009301231C221A4802F04EFA174B1B7843
:1017200099B264230293012301933B1D009301238B
:101730001B22134802F03AFB0023BB713B7923F0D4
:101740001803DBB23B71BB79DB005AB23B795BB269
:1017500013435BB2DBB23B71084B1B7899B2642335
:101760000293012301933B1D009301231B22044894
:1017700002F022FA00BF0837BD4680BD00000020FD
:101780000802002080B586B004AF664B1B78042B9E
:1017900000F29480644B1B7899B24FF47A730293F1
:1017A00006230193614B009301234322604802F01A
:1017B000FDFA604B7B605D4B1B781B021AB25B4BE2
:1017C0005B781BB213431BB21846FFF767FA034658
:1017D00079681846FFF7B6FA03464FF08E4118466F
:1017E000FFF764FB03461A46534B1A604F4B9B7836
:1017F0001B021AB24D4BDB781BB213431BB21846C7
:10180000FFF74CFA034679681846FFF79BFA034640
:101810004FF08E411846FFF749FB03461A46474BE7
:101820001A60424B1B791B021AB2404B5B791BB208
:1018300013431BB21846FFF731FA0346796818467E
:10184000FFF780FA03464FF08E411846FFF72EFB54
:1018500003461A463A4B1A60374B1B68394A1268DE
:1018600011461846FFF766F903461A46324B1A60CE
:10187000324B1B68344A126811461846FFF75AF972
:1018800003461A462D4B1A602D4B1B682F4A1268CF
:1018900011461846FFF74EF903461A46284B1A60C0
:1018A000204B1B781946264B1B68294A42F82130E9
:1018B0001C4B1B780133DAB21A4B1A70194B1B7888
:1018C000052B2BD1224B1B68214A52681146184622
:1018D000FFF730F903461A461D4B9B681946104620
:1018E000FFF728F903461A46194BDB6819461046DC
:1018F000FFF720F903461A46154B1B691946104697
:10190000FFF718F9034613491846FFF7CFFA0346C5
:101910001A46114B1A60034B00221A7000BF083799
:10192000BD4680BD1006002000000020C40300203A
:101930000802002000007A43CC030020D0030020DE
:10194000D4030020FC030020000400200404002035
:10195000D80300200000A040EC03002090B585B023
:1019600000AF0023FB8101F017FD78600023BB600E
:101970002FE0FFF707FF354B1B68354A1268114609
:101980001846FFF7D7F803461A46304B1A60314B1A
:101990001B68314A126811461846FFF7CBF8034618
:1019A0001A462C4B1A602D4B1B682D4A12681146A3
:1019B0001846FFF7BFF803461A46284B1A60FB8902
:1019C0000133FB8101F0E8FC38603A687B68D31A88
:1019D000BB60BB6842F227329342CAD91B4B1B68DB
:1019E00083F00044FB891846FFF758F9034619466F
:1019F0002046FFF75BFA03461A461A4B1A60154B4E
:101A00001B6883F00044FB891846FFF747F903463B
:101A100019462046FFF74AFA03461A46124B1A6047
:101A20000E4B1B6883F00044FB891846FFF736F91C
:101A3000034619462046FFF739FA03461A460B4B70
:101A40001A6000BF1437BD4690BD00BFF0030020F0
:101A5000CC030020F4030020D0030020F803002072
:101A6000D4030020FC030020000400200404002014
:101A700090B585B000AF0346FB710023FB73FB7983
:101A80001846FFF70BF902462E4B1B681946104605
:101A9000FFF758F903462C491846FFF707FA0346A3
:101AA0001A462A4B1B6819461046FFF743F80346AF
:101AB0001A46274B1A60FB7BC3F101031846FFF758
:101AC000EDF80246214B1B6819461046FFF73AF91C
:101AD00003461C46FB7B1846FFF7E0F802461C4B0A
:101AE0001B6819461046FFF72DF903461946204694
:101AF000FFF720F803461A46164B1A60144B1B6872
:101B0000124A1360134B1B6813491846FFF7C2FAB9
:101B10000346002B03D00F4B4FF000021A600D4B11
:101B20001B680E491846FFF7C9FA0346002B00D17F
:101B300003E0084B4FF000021A6000BF1437BD46A7
:101B400090BD00BFD403002000007A4410040020A0
:101B50000C040020080400200000B4C30000B443BB
:101B600080B584B004AF0F4B1B7899B26423029305
:101B7000012301930C4B0093012308220B4802F030
:101B80001BF8084B1B7899B264230293012301933D
:101B9000074B009301230922044802F00DF800BF0F
:101BA000BD4680BD01000020140000200802002076
:101BB00015000020000000002DE9F04FABB014AF7D
:101BC00001F092FB00F080FB00F0C4FD00F0E6FBAA
:101BD00000F0B0FC00F094FD00F044FD00F05CFC6F
:101BE00000F00AFC00F0B5FB884B1B7899B2642327
:101BF0000A22874802F042FB034687F85330854BA0
:101C00001B7899B24FF47A730A22814802F036FBAE
:101C1000034687F8523097F85330002B19D1002231
:101C20004FF400517C4801F053FE07F134037B4927
:101C3000184605F0FDFA034687F8513097F8513001
:101C40009AB207F134014FF4FA73754804F0BEFB01
:101C500005E001224FF400516F4801F039FEFFF713
:101C60007FFFFFF7FBFCFFF779FE6E4803F048FCAF
:101C70006D4803F045FC00216C4803F0EBFC0421A7
:101C80006A4803F0E7FC0821684803F0E3FC0C21F4
:101C9000664803F0DFFC664B664ADA60664B1B68F9
:101CA000664AD360644B1B68654AD360624B1B680D
:101CB000644AD360644B4FF00002DA605D4B0293DC
:101CC0004FF081430193614B00934FF00003604A52
:101CD00060495748FFF7D6FA564B02934FF08143BD
:101CE00001935A4B00934FF00003594A5949534806
:101CF000FFF7C8FA4F4B02934FF081430193534BC8
:101D000000934FF00003524A52494D48FFF7BAFA88
:101D1000484B02934FF0814301934C4B00934FF09B
:101D200000034B4A4B494748FFF7ACFA64230322B0
:101D300049493B4804F0CDFB484B1B78012B02D0AE
:101D4000022B31D0A0E0464B464A1A60464B454A2A
:101D50001A60464B434A1A60454B424A1A60454B4B
:101D60001B68324A14681846FFF7B2F903466363EA
:101D7000414B1B682D4A14681846FFF7A9F9034622
:101D8000A3633E4B1B68294A14681846FFF7A0F965
:101D90000346E3633A4B1B68244A14681846FFF76E
:101DA00097F90346236472E02F4B364A1A602F4B93
:101DB000344A1A602E4B334A1A60294B314A1A6052
:101DC0002C4B1B68194A14681846FFF781F9034623
:101DD0006363294B1B68154A14681846FFF778F9A6
:101DE0000346A363254B1B68104A14681846FFF787
:101DF0006FF90346E363224B1B680C4A14681846CC
:101E0000FFF766F90346236441E000BF00000020AD
:101E1000080200200100002000100140E8940008A2
:101E20007C03002034030020A4020020EC020020E8
:101E30007C0400209A99594010000020A40400203E
:101E4000CC040020F40400201C050020000080C009
:101E50000000C84300000C43440500201804002083
:101E60005C04002000F07F45640400206004002032
:101E700058040020400400204404002048040020AE
:101E80004C04002000C05A45FFF742F900BF01F0A2
:101E900083FAF864FA6C7B6DD31ABB64334B1B78FE
:101EA000002B2FD1324B01221A70324B1B78532B4F
:101EB00040F0048101F070FA78650023BB642E4B7A
:101EC00000932E4B4FF000022D492E48FFF7EEFAFB
:101ED0002D4B1B682D4AD3602B4B1B682C4AD360BB
:101EE000294B1B682B4AD360274B1B682A4AD360B7
:101EF0001F4B00221A701D4B1B780133DAB21B4BAB
:101F00001A70DBE0194B1B78012B4FD1184B0022C4
:101F10001A70224B1B6822491846FFF7CFF8034678
:101F2000002B00F0CB801F4B1B68164AD360164B6A
:101F30001D4A1A60144B1B68144AD360124B1B686D
:101F4000134AD360104B1B68124AD3600E4B1B68B8
:101F5000114AD36001F020FA78650023BB64034B7B
:101F60001B780133DAB2014B1A70A7E01804002085
:101F7000110600204405002000003442000034C255
:101F80000000F0411C050020100000207C0400200F
:101F9000A4040020CC040020F404002078040020D5
:101FA00000806D4404000020000040409C4B1B78E2
:101FB000022B40F083809B4B1B681846FEF734FAD7
:101FC00004460D46984B1B681846FEF72DFA90A361
:101FD000D3E90023FEF780FA02460B462046294645
:101FE000FEF700FD0346002B68D08E4B1B68184699
:101FF000FEF71AFA04460D468B4B1B681846FEF78F
:1020000013FA85A3D3E90023FEF766FA02460B46CE
:1020100020462946FEF7DCFC0346002B4ED0824BBF
:102020001B68804A126811461846FEF781FD034678
:102030007E491846FEF77CFD03461A467A4B1B681C
:1020400019461046FEF776FD03461A46764B1A608F
:10205000774B4FF000021A60764B01221A70FFF79F
:1020600057F8754B1B686F4A126811461846FEF701
:1020700061FD03461A46704B1A60FFF76FFC6F4B09
:102080006F4A1A606D4B1B686E4AD3606B4B1B68BE
:102090006D4AD360694B1B686C4AD360674B1B6801
:1020A0006B4AD3605F4B1B686A4AD36001F074F9D6
:1020B00078650023BB645A4B01221A70664B1B786B
:1020C000452B3CD1FFF724F8554B00221A70634B87
:1020D0004FF000021A60624B4FF000021A60614B31
:1020E0004FF000021A60604B4FF000021A605F4B25
:1020F0001B6800225A635D4B1B6800229A635B4B8E
:102100001B680022DA63594B1B6800221A644B4B90
:102110004FF000021A60494B1B684A4AD360474B94
:102120001B68494AD360454B1B68484AD360434B00
:102130001B68474AD360474B4FF00002DA60384BC8
:102140001B781E463F4BDB681846FEF76DF9C7E962
:102150000A01474B1B681846FEF766F9C7E90801F4
:10216000444B1B681846FEF75FF9C7E90601424B6E
:102170001B681846FEF758F9C7E904013F4B1B6876
:102180001846FEF751F9C7E902013D4B1B68184696
:10219000FEF74AF9C7E900013A4B1B681846FEF7FB
:1021A00043F982468B46384B1B681846FEF73CF9CC
:1021B00080468946354B1B681846FEF735F90446BC
:1021C0000D46184B1B681846FEF72EF902460B46C3
:1021D000CDE91223CDE91045CDE90E89CDE90CAB4F
:1021E000D7E90034CDE90A34D7E90234CDE908341F
:1021F000D7E90434CDE90634D7E90634CDE904340F
:10220000D7E90834CDE9023442E000BFAFF30080E3
:10221000CDCCCCCCCCCCF03F666666666666EE3F35
:102220001804002008040020040000200000B4422C
:102230007804002011060020140400201000002063
:102240009A9959407C040020A4040020CC0400206A
:10225000F40400201C050020440500206404002034
:1022600060040020580400205C040020EC020020E0
:102270004004002044040020480400204C040020B6
:1022800024040020200400202C0400202804002026
:10229000D7E90A34CDE9003432460849084804F049
:1022A000C7FF034687F8473097F847309AB2642350
:1022B0000349044804F08AF838E500BFFC9400089C
:1022C000480500207C03002080B590B000AF07F1E6
:1022D000180328220021184605F00DF83B1D0022A6
:1022E0001A605A609A60DA601A610123BB614FF488
:1022F0008033FB6100233B620123BB6202237B63CB
:102300004FF48033BB634FF4E013FB6307F1180312
:10231000184602F095FC0346002B01D000F038FD72
:102320000F237B600223BB600023FB604FF48063BC
:102330003B6100237B613B1D0221184602F002FF36
:102340000346002B01D000F023FD00BF4037BD46FF
:1023500080BD80B500AF00220021282001F0FDF8EB
:10236000282001F016F9002200211E2001F0F5F8C6
:102370001E2001F00EF9002200211C2001F0EDF8D2
:102380001C2001F006F9002200211D2001F0E5F8D3
:102390001D2001F0FEF800BF80BD000080B500AF39
:1023A000124B134A1A60114B124A5A600F4B00220B
:1023B0009A600E4B0022DA600C4B4FF480421A6197
:1023C0000A4B00225A61094B00229A61074B0022F6
:1023D000DA61064B00221A62044801F0A9FA0346AA
:1023E000002B01D000F0D4FC00BF80BD080200200B
:1023F00000540040A086010080B586B000AF07F110
:10240000080300221A605A609A60DA603B46002294
:102410001A605A601E4B1F4A1A601D4B00225A60F8
:102420001B4B00229A601A4B4FF6FF72DA60184B72
:1024300000221A61164B00225A61154B00229A6144
:10244000134803F00DF80346002B01D000F0A0FC68
:102450004FF48053BB6007F1080319460C4803F0A2
:1024600065FB0346002B01D000F092FC00233B608B
:1024700000237B603B461946054803F0E7FE034610
:10248000002B01D000F084FC00BF1837BD4680BD92
:102490005C020020002C014080B586B000AF07F13F
:1024A000080300221A605A609A60DA603B460022F4
:1024B0001A605A601E4B4FF080421A601C4B41F666
:1024C0001F425A601A4B00229A60194B40F6C31201
:1024D000DA60174B00221A61154B00229A611448EA
:1024E00002F0BEFF0346002B01D000F051FC4FF478
:1024F0008053BB6007F1080319460D4803F016FB33
:102500000346002B01D000F043FC00233B60002376
:102510007B603B461946064803F098FE0346002BB5
:1025200001D000F035FC00BF1837BD4680BD00BFAC
:10253000A402002080B58EB000AF07F1280300226E
:102540001A605A609A60DA6007F1200300221A606C
:102550005A603B1D00221A605A609A60DA601A6164
:102560005A619A613D4B3E4A1A603C4B00225A60C8
:102570003A4B00229A60394B40F6FF72DA60374BD3
:1025800000221A61354B00229A61344802F068FF3C
:102590000346002B01D000F0FBFB4FF48053BB62DD
:1025A00007F1280319462D4803F0C0FA0346002B13
:1025B00001D000F0EDFB294802F0F4FF0346002BA8
:1025C00001D000F0E5FB00233B6200237B6207F1B2
:1025D00020031946214803F039FE0346002B01D0A1
:1025E00000F0D6FB60237B600023BB600023FB6010
:1025F00000237B613B1D00221946184803F0D4F9E3
:102600000346002B01D000F0C3FB3B1D04221946FA
:10261000124803F0C9F90346002B01D000F0B8FBC3
:102620003B1D082219460D4803F0BEF90346002B56
:1026300001D000F0ADFB3B1D0C221946074803F00A
:10264000B3F90346002B01D000F0A2FB034800F0D1
:102650006DFC00BF3837BD4680BD00BFEC020020D6
:102660000004004080B586B000AF07F108030022E7
:102670001A605A609A60DA603B4600221A605A601B
:102680001D4B1E4A1A601C4B41F61F425A601A4BE2
:1026900000229A60184B6322DA60174B00221A61FD
:1026A000154B00229A61144802F0DAFE0346002B13
:1026B00001D000F06DFB4FF48053BB6007F10803BD
:1026C00019460D4803F032FA0346002B01D000F002
:1026D0005FFB00233B6000237B603B4619460648B6
:1026E00003F0B4FD0346002B01D000F051FB00BF06
:1026F0001837BD4680BD00BF3403002000080040ED
:1027000080B500AF114B124A1A60104B4FF41652AD
:102710005A600E4B00229A600C4B0022DA600B4B81
:1027200000221A61094B0C225A61084B00229A615F
:10273000064B0022DA61054803F0F8FD0346002B42
:1027400001D000F025FB00BF80BD00BF7C0300204E
:102750000038014080B588B000AF07F110030022B7
:102760001A605A609A60DA60454B9B69444A43F0AC
:1027700010039361424B9B6903F01003FB60FB68FD
:102780003F4B9B693E4A43F0200393613C4B9B695E
:1027900003F02003BB60BB68394B9B69384A43F0A8
:1027A00004039361364B9B6903F004037B607B68F1
:1027B000334B9B69324A43F008039361304B9B696A
:1027C00003F008033B603B6800224FF400512D48A2
:1027D00001F07EF8002248F20F012B4801F078F852
:1027E00000223821294801F073F84FF400533B616F
:1027F00001237B610023BB610223FB6107F110030E
:102800001946204800F0E0FE48F20F033B61012327
:102810007B610023BB610223FB6107F110031946B2
:10282000194800F0D1FE4FF470433B61184B7B61B7
:102830000223BB6107F110031946144800F0C4FEDF
:102840004FF480733B6100237B610223BB6107F17E
:10285000100319460C4800F0B7FE38233B610123F2
:102860007B610023BB610223FB6107F11003194662
:10287000064800F0A9FE00BF2037BD4680BD00BF5E
:10288000001002400010014000080140000C01400F
:102890000000111000000000B0B582B000AF7860F9
:1028A0007B681B68B3F1804F40F08F81A64B1B788B
:1028B000002B40F08A81A54B1B68A5491846FEF7FE
:1028C00041FA03461C46A34B1B68A34A12681146F3
:1028D0001846FEF737FA034619462046FEF7E6FA91
:1028E00003461A469D4B1A609D4B1B689849184633
:1028F000FEF728FA03461C46964B1B68964A126858
:1029000011461846FEF71EFA034619462046FEF702
:10291000CDFA03461A46934B1A60934B1B688C49B9
:102920001846FEF70FFA03461C468A4B1B688A4A74
:10293000126811461846FEF705FA03461946204666
:10294000FEF7B4FA03461A46884B1A60884B1B6898
:102950007F491846FEF7F6F903461C467D4B1B6877
:102960007D4A126811461846FEF7ECF903461946EF
:102970002046FEF79BFA03461A467E4B1A60734BBD
:102980001B681846FDF750FD6DA3D3E90023FDF742
:10299000A3FD02460B4614461D466E4B1B681846A7
:1029A000FDF742FD02460B4620462946FDF7BEFED6
:1029B00002460B4610461946FEF766F803466E4A75
:1029C0001360674B1B681846FDF72EFD5CA3D3E927
:1029D0000023FDF781FD02460B4614461D465D4B64
:1029E0001B681846FDF720FD02460B462046294687
:1029F000FDF79CFE02460B4610461946FEF744F8CA
:102A000003465E4A1360584B1B681846FDF70CFDE1
:102A10004BA3D3E90023FDF75FFD02460B461446A6
:102A20001D464C4B1B681846FDF7FEFC02460B4644
:102A300020462946FDF77AFE02460B461046194607
:102A4000FEF722F803464E4A1360494B1B681846AE
:102A5000FDF7EAFC3AA3D3E90023FDF73DFD02466A
:102A60000B4614461D463B4B1B681846FDF7DCFC25
:102A700002460B4620462946FDF758FE02460B4605
:102A800010461946FEF700F803463E4A13603A4BDB
:102A90001B683A4A126811461846FEF74BF803467F
:102AA0001A46374B1B6819461046FEF743F8034693
:102AB0001A46344B1B6819461046FEF73BF803468E
:102AC0004FF081411846FEF7F1F903461A462E4BA6
:102AD0001B6819461046FEF72DF803461A462A4B86
:102AE0001A60254B4FF000021A60244B4FF0000291
:102AF0001A60234B4FF000021A60224B4FF0000285
:102B00001A60124B4FF000021A60154B4FF0000292
:102B10001A60154B4FF000021A60154B4FF000027F
:102B20001A60104B1B68012219461848FEF7E2FB99
:102B30000346174A1360094B1B6802222AE000BFB4
:102B400079E9263108BC3440110600203004002009
:102B500000007A44080000200C000020200400201F
:102B6000340400202404002038040020280400201D
:102B70003C0400202C040020680400206C04002089
:102B8000700400207404002078040020A4040020B5
:102B90004004002019463648FEF7ACFB0346354A90
:102BA0001360354B1B68032219463448FEF7A2FB1D
:102BB0000346334A1360334B1B68042219463248DC
:102BC000FEF798FB0346314A13607B681B68304A66
:102BD000934249D12F4B1B78042B43D13220FEF76F
:102BE00047FF2D4B1B6819462C48FEF785FC034612
:102BF00083F000432A4A1360294B1B6883F000438B
:102C0000284A1360284B1B68254A1268114618464B
:102C1000FDF790FF03461A46234B1A60184B1B68BA
:102C20001F4A126811461846FDF784FF03461A46EC
:102C3000134B1A600F4B1B681A4A1268114618464C
:102C4000FDF778FF03461A460A4B1A600F4B1B68C4
:102C5000144A126811461846FDF76CFF03461A46DF
:102C60000A4B1A60FEF78EFD00BF0837BD46B0BDA7
:102C70007C040020440400202C040020F4040020E4
:102C80004804002028040020CC0400204C0400202C
:102C90000008004010060020080400201C05002049
:102CA00050040020540400204004002080B582B06D
:102CB00000AF0346FB80FB88B3F5004F11D12C4BCE
:102CC0001B78DBB20133DAB2294B1A70294B1B682F
:102CD0004FF07E511846FDF72DFF03461A46254B4F
:102CE0001A60FB88B3F5804F11D1234B1B78DBB200
:102CF0000133DAB2204B1A70204B1B684FF07E5123
:102D00001846FDF717FF03461A461C4B1A60FB884E
:102D1000B3F5005F11D11A4B1B78DBB20133DAB285
:102D2000174B1A70174B1B684FF07E511846FDF772
:102D300001FF03461A46134B1A60FB88B3F5805F08
:102D400011D1114B1B78DBB20133DAB20E4B1A7082
:102D50000E4B1B684FF07E511846FDF7EBFE034605
:102D60001A460A4B1A6000BF0837BD4680BD00BF37
:102D700019040020300400201A040020340400202C
:102D80001B040020380400201C0400203C04002008
:102D900080B400AF72B600BFFEE7000080B485B01B
:102DA00000AF154B9B69144A43F001039361124B2A
:102DB0009B6903F00103BB60BB680F4BDB690E4AE4
:102DC00043F08053D3610C4BDB6903F080537B608D
:102DD0007B680A4B5B68FB60FB6823F0E063FB6089
:102DE000FB6843F00073FB60044AFB68536000BF5C
:102DF0001437BD4680BC70470010024000000140FF
:102E000080B588B000AF786007F1100300221A6027
:102E10005A609A60DA607B681B68154A934223D136
:102E2000144B9B69134A43F008039361114B9B6950
:102E300003F00803FB60FB68C0233B6112237B6146
:102E40000323FB6107F1100319460B4800F0BCFB9C
:102E5000084BDB69074A43F40013D361054BDB6978
:102E600003F40013BB60BB6800BF2037BD4680BDC4
:102E70000054004000100240000C014080B487B0B4
:102E800000AF78607B681B68244A93420CD1244BC6
:102E90009B69234A43F400639361214B9B6903F4CC
:102EA00000637B617B6934E07B681B68B3F1804F12
:102EB0000CD11B4BDB691A4A43F00103D361184B59
:102EC000DB6903F001033B613B6922E07B681B681F
:102ED000144A93420CD1124BDB69114A43F00203AE
:102EE000D3610F4BDB6903F00203FB60FB6810E06A
:102EF0007B681B680C4A93420BD1094BDB69084A7B
:102F000043F00403D361064BDB6903F00403BB60A9
:102F1000BB6800BF1C37BD4680BC7047002C014019
:102F200000100240000400400008004080B588B056
:102F300000AF786007F1100300221A605A609A60AF
:102F4000DA607B681B681B4A93422FD11A4B9B693E
:102F5000194A43F004039361174B9B6903F0040380
:102F6000FB60FB68144B9B69134A43F008039361B1
:102F7000114B9B6903F00803BB60BB68C0233B6136
:102F800002237B610223FB6107F1100319460B4802
:102F900000F01AFB03233B6102237B610223FB61E8
:102FA00007F110031946064800F00EFB00BF20375A
:102FB000BD4680BD000400400010024000080140F2
:102FC000000C014080B588B000AF786007F11003B5
:102FD00000221A605A609A60DA607B681B681C4A9B
:102FE000934231D11B4B9B691A4A43F4804393614E
:102FF000184B9B6903F48043FB60FB68154B9B698E
:10300000144A43F004039361124B9B6903F00403D9
:10301000BB60BB684FF400733B6102237B610323F9
:10302000FB6107F1100319460B4800F0CDFA4FF48D
:1030300080633B6100237B610023BB6107F11003C8
:103040001946054800F0C0FA00BF2037BD4680BDD4
:1030500000380140001002400008014080B400AF79
:10306000FEE780B400AFFEE780B400AFFEE780B4B7
:1030700000AFFEE780B400AFFEE780B400AF00BF52
:10308000BD4680BC704780B400AF00BFBD4680BC69
:10309000704780B400AF00BFBD4680BC704780B5AC
:1030A00000AF00F067F900BF80BD000080B500AF41
:1030B000024802F071FB00BF80BD00BFA4020020E7
:1030C00080B500AF024802F067FB00BF80BD00BFC3
:1030D000EC02002080B500AF024802F05DFB00BFAB
:1030E00080BD00BF3403002080B500AF4FF4805096
:1030F00000F006FC4FF4005000F002FC4FF480405A
:1031000000F0FEFB4FF4004000F0FAFB00BF80BD72
:1031100080B400AF01231846BD4680BC704780B51F
:1031200082B000AF7860396004F038F903461622A7
:103130001A604FF0FF3318460837BD4680BD80B592
:1031400082B000AF78604FF0FF317868FFF7E7FF9B
:10315000FEE780B586B000AFF860B9607A60002302
:103160007B610AE0AFF300800146BB685A1CBA607D
:10317000CAB21A707B6901337B617A697B689A42B3
:10318000F0DB7B6818461837BD4680BD80B586B039
:1031900000AFF860B9607A6000237B6109E0BB682A
:1031A0005A1CBA601B781846AFF300807B69013364
:1031B0007B617A697B689A42F1DB7B681846183735
:1031C000BD4680BD80B483B000AF78604FF0FF3360
:1031D00018460C37BD4680BC704780B483B000AF42
:1031E000786039603B684FF400525A6000231846FB
:1031F0000C37BD4680BC704780B483B000AF7860A8
:10320000012318460C37BD4680BC704780B485B09A
:1032100000AFF860B9607A60002318461437BD46E5
:1032200080BC704780B586B000AF7860144A154BFB
:10323000D31A7B617B693B61134B1B68002B02D166
:10324000114B124A1A60104B1A687B6813443A6992
:103250009A4207D204F0A2F803460C221A604FF0FB
:10326000FF3309E0084B1B68FB60074B1A687B685B
:103270001344054A1360FB6818461837BD4680BDE5
:103280000050002000040000140600206807002001
:1032900080B400AF00BFBD4680BC7047FFF7F8FFA9
:1032A0000B480C490C4A002302E0D458C4500433A4
:1032B000C4188C42F9D3094A094C002301E0136079
:1032C0000432A242FBD304F06FF8FEF775FC70479E
:1032D00000000020EC010020D4980008EC01002040
:1032E00068070020FEE7000080B500AF084B1B68B0
:1032F000074A43F010031360032000F023F90F2066
:1033000000F008F8FFF74AFD0023184680BD00BF13
:103310000020024080B582B000AF7860124B1A687E
:10332000124B1B7819464FF47A73B3FBF1F3B2FBDF
:10333000F3F3184600F03BF90346002B01D00123BC
:103340000EE07B680F2B0AD8002279684FF0FF301F
:1033500000F003F9064A7B681360002300E00123B4
:1033600018460837BD4680BD180000202000002008
:103370001C00002080B400AF054B1B781A46054B9B
:103380001B681344034A136000BFBD4680BC7047EE
:10339000200000201806002080B400AF024B1B68FC
:1033A0001846BD4680BC70471806002080B485B022
:1033B00000AF78607B6803F00703FB600C4BDB68B1
:1033C000BB60BA684FF6FF031340BB60FB681A028C
:1033D000BB68134343F0BF6343F40033BB60044A4C
:1033E000BB68D36000BF1437BD4680BC704700BFC8
:1033F00000ED00E080B400AF044BDB681B0A03F073
:1034000007031846BD4680BC704700BF00ED00E0D2
:1034100080B483B000AF0346FB7197F90730002BEF
:103420000BDBFB7903F01F02064997F907305B09B4
:10343000012000FA02F241F8232000BF0C37BD46FC
:1034400080BC704700E100E080B483B000AF034669
:103450003960FB7197F90730002B0ADB3B68DAB261
:103460000C4997F907301201D2B20B4483F80023BC
:103470000AE03B68DAB20849FB7903F00F03043B2A
:103480001201D2B20B441A7600BF0C37BD4680BC85
:10349000704700BF00E100E000ED00E080B489B0BB
:1034A00000AFF860B9607A60FB6803F00703FB6166
:1034B000FB69C3F10703042B28BF0423BB61FB692D
:1034C0000433062B02D9FB69033B00E000237B6138
:1034D0004FF0FF32BB6902FA03F3DA43BB681A40CC
:1034E0007B699A404FF0FF317B6901FA03F3D943BE
:1034F0007B680B40134318462437BD4680BC704799
:1035000080B582B000AF78607B68013BB3F1807F0B
:1035100001D301230FE00A4A7B68013B53600F216E
:103520004FF0FF30FFF790FF054B00229A60044BED
:1035300007221A60002318460837BD4680BD00BF29
:1035400010E000E080B582B000AF78607868FFF7E7
:103550002DFF00BF0837BD4680BD80B586B000AFE7
:103560000346B9607A60FB7300237B61FFF742FF7B
:1035700078617A68B9687869FFF790FF024697F931
:103580000F3011461846FFF75FFF00BF1837BD46E2
:1035900080BD80B582B000AF0346FB7197F907305C
:1035A0001846FFF735FF00BF0837BD4680BD80B520
:1035B00082B000AF78607868FFF7A2FF0346184634
:1035C0000837BD4680BD000080B48BB000AF786086
:1035D000396000237B6200233B6269E101227B6A40
:1035E00002FA03F3FB613B681B68FA691340BB6195
:1035F000BA69FB699A4240F058813B685B689A4A15
:1036000093425ED0984A934275D8984A934258D0D4
:10361000964A93426FD8964A934252D0944A934224
:1036200069D8944A93424CD0924A934263D8924AC2
:10363000934246D0904A93425DD8122B2AD8122B3F
:1036400059D801A252F823F0C33600089D3600086D
:10365000AF360008F1360008F7360008F7360008E4
:10366000F7360008F7360008F7360008F736000886
:10367000F7360008F7360008F7360008F736000876
:10368000F7360008F7360008F7360008A5360008B8
:10369000B9360008794A934213D02CE03B68DB68C6
:1036A0003B6229E03B68DB6804333B6224E03B6813
:1036B000DB6808333B621FE03B68DB680C333B622E
:1036C0001AE03B689B68002B02D104233B6213E0A5
:1036D0003B689B68012B05D108233B627B68FA6934
:1036E0001A6109E008233B627B68FA695A6103E0CA
:1036F00000233B6200E000BFBB69FF2B01D87B6861
:1037000001E07B6804337B61BB69FF2B02D87B6AD5
:103710009B0002E07B6A083B9B003B617B691A6867
:103720000F213B6901FA03F3DB431A40396A3B6915
:1037300001FA03F31A437B691A603B685B6803F084
:103740008053002B00F0B1804D4B9B694C4A43F0F5
:10375000010393614A4B9B6903F00103BB60BB68A3
:10376000484A7B6A9B08023352F82330FB607B6A2D
:1037700003F003039B000F2202FA03F3DB43FA6812
:103780001340FB607B68404A934213D07B683F4AFA
:1037900093420DD07B683E4A934207D07B683D4AF6
:1037A000934201D1032306E0042304E0022302E054
:1037B000012300E000237A6A02F0030292009340A2
:1037C000FA681343FB602F497B6A9B080233FA684F
:1037D00041F823203B685B6803F48013002B06D07C
:1037E0002D4B9A682C49BB6913438B6006E02A4B2A
:1037F0009A68BB69DB43284913408B603B685B6870
:1038000003F40013002B06D0234BDA682249BB696E
:103810001343CB6006E0204BDA68BB69DB431E49EB
:103820001340CB603B685B6803F40033002B06D089
:10383000194B5A681849BB6913434B6006E0164B95
:103840005A68BB69DB43144913404B603B685B68B3
:1038500003F48033002B21D00F4B1A680E49BB694B
:1038600013430B6021E000BF000032100000311054
:1038700000002210000021100000121000001110A2
:10388000001002400000014000080140000C01400F
:103890000010014000140140000401400B4B1A6865
:1038A000BB69DB43094913400B607B6A01337B62D0
:1038B0003B681A687B6A22FA03F3002B7FF48EAE12
:1038C00000BF00BF2C37BD4680BC704700040140DC
:1038D00080B483B000AF78600B467B8013467B706A
:1038E0007B78002B03D07A887B681A6103E07B88A1
:1038F0001A047B681A6100BF0C37BD4680BC704754
:1039000080B582B000AF0346FB80084B5A69FB8844
:103910001340002B06D0054AFB885361FB881846EC
:10392000FFF7C4F900BF0837BD4680BD0004014061
:1039300080B584B000AF78607B68002B01D1012393
:103940002BE17B6893F83D30DBB2002B06D17B681E
:10395000002283F83C207868FFF752FA7B68242223
:1039600083F83D207B681B681A687B681B6822F01F
:1039700001021A607B681B681A687B681B6842F446
:1039800000421A607B681B681A687B681B6822F417
:1039900000421A6001F01EFDF8607B685B68814A96
:1039A000934207D8FB68804A934294BF01230023C7
:1039B000DBB206E0FB687D4A934294BF01230023FB
:1039C000DBB2002B01D00123E7E0FB68784AA2FBC1
:1039D00003239B0CBB607B681B685B6823F03F0183
:1039E0007B681B68BA680A435A607B681B681B6A5D
:1039F00023F03F017B685B686A4A934202D8BB6848
:103A0000013309E0BB684FF4967202FB03F3694A85
:103A1000A2FB03239B0901337A6812680B431362EC
:103A20007B681B68DB6923F44F4222F0FF027B684E
:103A30005B685C498B4219D8FB68591E7B685B68E0
:103A40005B00B1FBF3F3591C40F6FC730B40002BF9
:103A50000AD0FB68591E7B685B685B00B1FBF3F31F
:103A60000133C3F30B0351E004234FE07B689B68F1
:103A7000002B11D1FB68581E7B6859680B465B0010
:103A80000B44B0FBF3F30133C3F30B03002B0CBF68
:103A900001230023DBB212E0FB68581E7B685968E3
:103AA0000B469B000B4499000B44B0FBF3F301332E
:103AB000C3F30B03002B0CBF01230023DBB2002B4D
:103AC00001D0012322E07B689B68002B0ED1FB68AC
:103AD000581E7B6859680B465B000B44B0FBF3F340
:103AE0000133C3F30B0343F400430FE0FB68581E9C
:103AF0007B6859680B469B000B4499000B44B0FB54
:103B0000F3F30133C3F30B0343F4404379680968CB
:103B10001343CB617B681B681B6823F0C0017B6883
:103B2000DA697B681B6A1A437B681B680A431A6060
:103B30007B681B689B6823F4034323F0FF037A68C8
:103B400011697A68D26811437A6812680B439360EE
:103B50007B681B68DB6823F0FF017B685A697B6820
:103B60009B691A437B681B680A43DA607B681B68A1
:103B70001A687B681B6842F001021A607B680022A9
:103B80001A647B68202283F83D207B6800221A6338
:103B90007B68002283F83E20002318461037BD467C
:103BA00080BD00BFA08601007F841E00FF083D008D
:103BB00083DE1B43D34D621080B588B002AFF8603E
:103BC000084611461A4603467B810B463B81134645
:103BD000FB80FFF7E1FB7861FB6893F83D30DBB2D7
:103BE000202B40F0D9807B690093192301226D4975
:103BF000F86800F0EFFD0346002B01D00223CCE073
:103C0000FB6893F83C30012B01D10223C5E0FB682F
:103C1000012283F83C20FB681B681B6803F001034A
:103C2000012B07D0FB681B681A68FB681B6842F011
:103C300001021A60FB681B681A68FB681B6822F4A3
:103C400000621A60FB68212283F83D20FB68402255
:103C500083F83E20FB6800221A64FB683A6A5A62C5
:103C6000FB68BA8C5A85FB685B8D9AB2FB681A8533
:103C7000FB684D4ADA62F8883A8979897B69019351
:103C8000BB6A00930346F86800F026FC0346002B4D
:103C900052D0012381E07A69B96AF86800F0B4FE75
:103CA0000346002B0DD0FB681B6C042B07D1FB686F
:103CB0001B681A68FB681B6842F400721A600123D3
:103CC0006BE0FB685B6A1A78FB681B681A61FB682B
:103CD0005B6A5A1CFB685A62FB681B8D013B9AB2F7
:103CE000FB681A85FB685B8D9BB2013B9AB2FB684F
:103CF0005A85FB681B685B6903F00403042B1BD126
:103D0000FB681B8D002B17D0FB685B6A1A78FB6879
:103D10001B681A61FB685B6A5A1CFB685A62FB6885
:103D20001B8D013B9AB2FB681A85FB685B8D9BB2C9
:103D3000013B9AB2FB685A85FB681B8D002BAAD108
:103D40007A69B96AF86800F0A7FE0346002B0DD027
:103D5000FB681B6C042B07D1FB681B681A68FB68A7
:103D60001B6842F400721A60012316E0FB681B68AE
:103D70001A68FB681B6842F400721A60FB68202214
:103D800083F83D20FB68002283F83E20FB68002278
:103D900083F83C20002300E0022318461837BD4674
:103DA00080BD00BF020010000000FFFF80B58CB096
:103DB00002AFF860084611461A4603467B810B465F
:103DC0003B811346FB8000233B62FFF7E5FA7862F4
:103DD000FB6893F83D30DBB2202B40F044827B6AD5
:103DE0000093192301228249F86800F0F3FC03468E
:103DF000002B01D0022337E2FB6893F83C30012B03
:103E000001D1022330E2FB68012283F83C20FB68E9
:103E10001B681B6803F00103012B07D0FB681B68BC
:103E20001A68FB681B6842F001021A60FB681B6895
:103E30001A68FB681B6822F400621A60FB68222281
:103E400083F83D20FB68402283F83E20FB68002277
:103E50001A64FB683A6B5A62FB68BA8E5A85FB6833
:103E60005B8D9AB2FB681A85FB68624ADA62F88851
:103E70003A8979897B6A0193BB6B00930346F868A2
:103E800000F0C0FB0346002B01D00123ECE1FB68EE
:103E90001B8D002B13D10023FB61FB681B685B6942
:103EA000FB61FB681B689B69FB61FB69FB681B6826
:103EB0001A68FB681B6842F400721A60C0E1FB6874
:103EC0001B8D012B1ED1FB681B681A68FB681B68E1
:103ED00022F480621A6072B600BF0023BB61FB68E7
:103EE0001B685B69BB61FB681B689B69BB61BB6945
:103EF000FB681B681A68FB681B6842F400721A6052
:103F000062B635E0FB681B8D022B1ED1FB681B6877
:103F10001A68FB681B6842F400621A6072B600BF40
:103F200000237B61FB681B685B697B61FB681B6826
:103F30009B697B617B69FB681B681A68FB681B686F
:103F400022F480621A6062B612E0FB681B681A688D
:103F5000FB681B6842F480621A6000233B61FB68C7
:103F60001B685B693B61FB681B689B693B613B6944
:103F700066E1FB681B8D032B00F21F81FB681B8D24
:103F8000012B23D17A6AB96BF86800F0CDFD0346A6
:103F9000002B01D0012367E1FB681B681A69FB68ED
:103FA0005B6AD2B21A70FB685B6A5A1CFB685A6281
:103FB000FB681B8D013B9AB2FB681A85FB685B8D21
:103FC0009BB2013B9AB2FB685A8539E1FB681B8DB5
:103FD000022B52D17B6A0093BB6B00220649F86822
:103FE00000F0F8FB0346002B08D001233CE100BFA2
:103FF000020010000000FFFF0400010072B600BFC5
:10400000FB681B681A68FB681B6842F400721A6040
:10401000FB681B681A69FB685B6AD2B21A70FB689E
:104020005B6A5A1CFB685A62FB681B8D013B9AB2A3
:10403000FB681A85FB685B8D9BB2013B9AB2FB68FB
:104040005A8562B600BFFB681B681A69FB685B6A29
:10405000D2B21A70FB685B6A5A1CFB685A62FB6832
:104060001B8D013B9AB2FB681A85FB685B8D9BB286
:10407000013B9AB2FB685A85E2E07B6A0093BB6B16
:1040800000227B49F86800F0A5FB0346002B01D015
:104090000123E9E0FB681B681A68FB681B6822F4CF
:1040A00080621A6072B600BFFB681B681A69FB6801
:1040B0005B6AD2B21A70FB685B6A5A1CFB685A6270
:1040C000FB681B8D013B9AB2FB681A85FB685B8D10
:1040D0009BB2013B9AB2FB685A85664B1B68DB08B2
:1040E000654AA2FB03231A0A13469B001344DA0015
:1040F000D31A3B623B6A013B3B623B6A002B18D1FF
:10410000FB6800221A63FB68202283F83D20FB68CD
:10411000002283F83E20FB681B6C43F02002FB6802
:104120001A6462B600BFFB68002283F83C200123BA
:104130009AE0FB681B685B6903F00403042BD9D188
:10414000FB681B681A68FB681B6842F400721A60FF
:10415000FB681B681A69FB685B6AD2B21A70FB685D
:104160005B6A5A1CFB685A62FB681B8D013B9AB262
:10417000FB681A85FB685B8D9BB2013B9AB2FB68BA
:104180005A8562B600BFFB681B681A69FB685B6AE8
:10419000D2B21A70FB685B6A5A1CFB685A62FB68F1
:1041A0001B8D013B9AB2FB681A85FB685B8D9BB245
:1041B000013B9AB2FB685A8542E07A6AB96BF868AB
:1041C00000F0B2FC0346002B01D001234CE0FB6859
:1041D0001B681A69FB685B6AD2B21A70FB685B6A7B
:1041E0005A1CFB685A62FB681B8D013B9AB2FB6844
:1041F0001A85FB685B8D9BB2013B9AB2FB685A85BE
:10420000FB681B685B6903F00403042B18D1FB688F
:104210001B681A69FB685B6AD2B21A70FB685B6A3A
:104220005A1CFB685A62FB681B8D013B9AB2FB6803
:104230001A85FB685B8D9BB2013B9AB2FB685A857D
:10424000FB681B8D002B7FF494AEFB68202283F863
:104250003D20FB68002283F83E20FB68002283F8A3
:104260003C20002300E0022318462837BD4680BDCD
:10427000040001001800002089B5F81480B58AB048
:1042800002AFF8607A603B600B467B81FFF784F8F1
:10429000F8610023BB61FB6893F83D30DBB2202B53
:1042A00040F01181FB690093192301228849F868C5
:1042B00000F090FA0346002B01D0022304E1FB68D2
:1042C00093F83C30012B01D10223FDE0FB68012271
:1042D00083F83C20FB681B681B6803F00103012B7B
:1042E00007D0FB681B681A68FB681B6842F0010274
:1042F0001A60FB681B681A68FB681B6822F400627E
:104300001A60FB68242283F83D20FB6800221A64AF
:10431000FB68704ADA62FB681B681A68FB681B68F6
:1043200042F480721A60FB6900933B6800224FF0F0
:104330000111F86800F04EFA0346002B0DD0FB681F
:104340001B681B6803F48073B3F5807F03D1FB689F
:104350004FF400721A640323B6E07B89DBB21A467D
:10436000FB681B6802F0FE021A61FFF715F8F8619E
:10437000FB681B685B6903F00203022B0CBF01237F
:104380000023DBB2FB75FB681B685B6903F4806389
:10439000B3F5806F0CBF01230023DBB2BB7525E0B2
:1043A000FEF7FAFF0246FB69D31A3A689A4202D333
:1043B0003B68002B03D1FB68A02283F83D20FB68FB
:1043C0001B685B6903F00203022B0CBF012300236F
:1043D000DBB2FB75FB681B685B6903F48063B3F5B4
:1043E000806F0CBF01230023DBB2BB75FB6893F821
:1043F0003D30DBB2A02B05D0FB7D002B02D1BB7D75
:10440000002BCDD0FB68202283F83D20FB681B6881
:104410005B6903F00203022B29D1FB681B681A6851
:10442000FB681B6842F400721A6000233B61FB6862
:104430001B685B693B61FB681B689B693B613B696F
:10444000FB690093192301222149F86800F0C2F9A1
:104450000346002B01D0012336E0FB68202283F8BD
:104460003D20FB68002283F83C2000232CE0FB6801
:104470001B681A68FB681B6842F400721A60FB68CC
:104480001B686FF480625A61FB6900931923012253
:104490000F49F86800F09EF90346002B01D0012374
:1044A00012E0BB690133BB61BA697B689A42FFF4D1
:1044B00032AFFB68202283F83D20FB68002283F89E
:1044C0003C20012300E0022318462037BD4680BD72
:1044D000020010000000FFFF80B588B002AFF86056
:1044E000084611461A4603467B810B463B8113461C
:1044F000FB80FB681B681A68FB681B6842F48072CB
:104500001A607B6A00933B6A00224FF00111F86841
:1045100000F060F90346002B0DD0FB681B681B6898
:1045200003F48073B3F5807F03D1FB684FF400720E
:104530001A6403235FE07B89DBB21A46FB681B68C1
:1045400002F0FE021A617B6A3A6A2D49F86800F0AF
:10455000BBF90346002B01D001234CE000237B6113
:10456000FB681B685B697B61FB681B689B697B61FF
:104570007B697A6A396AF86800F046FA0346002BCC
:104580000DD0FB681B6C042B07D1FB681B681A68F5
:10459000FB681B6842F400721A6001232BE0FB8861
:1045A000012B05D13B89DAB2FB681B681A6121E057
:1045B0003B891B0A9BB2DAB2FB681B681A617A6AF4
:1045C000396AF86800F020FA0346002B0DD0FB682A
:1045D0001B6C042B07D1FB681B681A68FB681B68FF
:1045E00042F400721A60012305E03B89DAB2FB68ED
:1045F0001B681A61002318461837BD4680BD00BFEE
:104600000200010080B588B002AFF860084611468C
:104610001A4603467B810B463B811346FB80FB68B1
:104620001B681A68FB681B6842F480621A60FB68AA
:104630001B681A68FB681B6842F480721A607B6A08
:1046400000933B6A00224FF00111F86800F0C2F8B5
:104650000346002B0DD0FB681B681B6803F48073B6
:10466000B3F5807F03D1FB684FF400721A64032313
:10467000AAE07B89DBB21A46FB681B6802F0FE02E7
:104680001A617B6A3A6A5249F86800F01DF90346DC
:10469000002B01D0012397E000237B61FB681B689E
:1046A0005B697B61FB681B689B697B617B697A6ADC
:1046B000396AF86800F0A8F90346002B0DD0FB68B2
:1046C0001B6C042B07D1FB681B681A68FB681B680E
:1046D00042F400721A60012376E0FB88012B05D1B9
:1046E0003B89DAB2FB681B681A6121E03B891B0A2F
:1046F0009BB2DAB2FB681B681A617A6A396AF86899
:1047000000F082F90346002B0DD0FB681B6C042BD4
:1047100007D1FB681B681A68FB681B6842F40072CB
:104720001A60012350E03B89DAB2FB681B681A610A
:104730007A6A396AF86800F067F90346002B0DD0F1
:10474000FB681B6C042B07D1FB681B681A68FB68AD
:104750001B6842F400721A60012335E0FB681B6895
:104760001A68FB681B6842F480721A607B6A0093C7
:104770003B6A00224FF00111F86800F02BF8034665
:10478000002B0DD0FB681B681B6803F48073B3F526
:10479000807F03D1FB684FF400721A64032313E097
:1047A0007B89DBB243F00103DAB2FB681B681A6154
:1047B0007B6A3A6A0649F86800F086F80346002BDF
:1047C00001D0012300E0002318461837BD4680BD04
:1047D0000200010080B584B000AFF860B9603B60B2
:1047E0001346FB7148E03B68B3F1FF3F44D0FEF74E
:1047F000D3FD0246BB69D31A3A689A4202D33B689A
:10480000002B39D1BB681B0CDBB2012B0DD1FB682F
:104810001B685B69DA43BB6813409BB2002B0CBF7B
:1048200001230023DBB21A460CE0FB681B689B697E
:10483000DA43BB6813409BB2002B0CBF012300235B
:10484000DBB21A46FB799A4216D1FB6800221A6342
:10485000FB68202283F83D20FB68002283F83E207D
:10486000FB681B6C43F02002FB681A64FB680022A3
:1048700083F83C20012323E0BB681B0CDBB2012B37
:104880000DD1FB681B685B69DA43BB6813409BB2C0
:10489000002B0CBF01230023DBB21A460CE0FB689F
:1048A0001B689B69DA43BB6813409BB2002B0CBFAB
:1048B00001230023DBB21A46FB799A4293D00023EE
:1048C00018461037BD4680BD80B584B000AFF86093
:1048D000B9607A603B6071E0FB681B685B6903F458
:1048E0008063B3F5806F23D1FB681B681A68FB688F
:1048F0001B6842F400721A60FB681B686FF48062E8
:104900005A61FB6800221A63FB68202283F83D206D
:10491000FB68002283F83E20FB681B6C43F0040216
:10492000FB681A64FB68002283F83C20012367E0DF
:104930007B68B3F1FF3F41D0FEF72EFD02463B6896
:10494000D31A7A689A4202D37B68002B36D1BB68AF
:104950001B0CDBB2012B0CD1FB681B685B69DA43D3
:10496000BB6813409BB2002B14BF01230023DBB2B2
:104970000BE0FB681B689B69DA43BB6813409BB282
:10498000002B14BF01230023DBB2002B16D0FB68E1
:1049900000221A63FB68202283F83D20FB68002276
:1049A00083F83E20FB681B6C43F02002FB681A640E
:1049B000FB68002283F83C20012321E0BB681B0C2C
:1049C000DBB2012B0CD1FB681B685B69DA43BB6867
:1049D00013409BB2002B14BF01230023DBB20BE07A
:1049E000FB681B689B69DA43BB6813409BB2002BD2
:1049F00014BF01230023DBB2002B7FF46DAF002333
:104A000018461037BD4680BD80B584B000AFF86051
:104A1000B9607A6034E0F86800F0E3F80346002BF0
:104A200001D0012334E0BB68B3F1FF3F28D0FEF78B
:104A3000B3FC02467B68D31ABA689A4202D3BB68B9
:104A4000002B1DD1FB681B685B6903F08003802B82
:104A500016D0FB6800221A63FB68202283F83D20F1
:104A6000FB68002283F83E20FB681B6C43F02002A9
:104A7000FB681A64FB68002283F83C20012307E0EE
:104A8000FB681B685B6903F08003802BC3D10023A4
:104A900018461037BD4680BD80B584B000AFF860C1
:104AA000B9607A6034E0F86800F09BF80346002BA8
:104AB00001D0012334E0BB68B3F1FF3F28D0FEF7FB
:104AC0006BFC02467B68D31ABA689A4202D3BB6871
:104AD000002B1DD1FB681B685B6903F00403042BEA
:104AE00016D0FB6800221A63FB68202283F83D2061
:104AF000FB68002283F83E20FB681B6C43F0200219
:104B0000FB681A64FB68002283F83C20012307E05D
:104B1000FB681B685B6903F00403042BC3D100230B
:104B200018461037BD4680BD80B584B000AFF86030
:104B3000B9607A6049E0FB681B685B6903F01003A9
:104B4000102B19D1FB681B686FF010025A61FB68CB
:104B500000221A63FB68202283F83D20FB680022B4
:104B600083F83E20FB681A6CFB681A64FB6800221D
:104B700083F83C20012330E0FEF70EFC02467B6800
:104B8000D31ABA689A4202D3BB68002B1DD1FB68C6
:104B90001B685B6903F04003402B16D0FB680022C2
:104BA0001A63FB68202283F83D20FB68002283F80B
:104BB0003E20FB681B6C43F02002FB681A64FB6814
:104BC000002283F83C20012307E0FB681B685B6937
:104BD00003F04003402BAED1002318461037BD46EA
:104BE00080BD80B483B000AF78607B681B685B6970
:104BF00003F48063B3F5806F1BD17B681B686FF48F
:104C000080625A617B6800221A637B68202283F8E5
:104C10003D207B68002283F83E207B681B6C43F0BC
:104C200004027B681A647B68002283F83C2001231D
:104C300000E0002318460C37BD4680BC70470000DA
:104C400080B586B000AF78607B68002B01D101236E
:104C500072E27B681B6803F00103002B00F0878081
:104C6000924B5B6803F00C03042B0CD08F4B5B68FA
:104C700003F00C03082B12D18C4B5B6803F48033D8
:104C8000B3F5803F0BD1894B1B6803F40033002B35
:104C90006CD07B685B68002B68D101234CE27B6899
:104CA0005B68B3F5803F06D1804B1B687F4A43F4B5
:104CB000803313602EE07B685B68002B0CD17B4B4C
:104CC0001B687A4A23F480331360784B1B68774A59
:104CD00023F4802313601DE07B685B68B3F5A02F8D
:104CE0000CD1724B1B68714A43F4802313606F4BE5
:104CF0001B686E4A43F4803313600BE06B4B1B68F8
:104D00006A4A23F480331360684B1B68674A23F4B4
:104D1000802313607B685B68002B13D0FEF73CFB9D
:104D2000386108E0FEF738FB02463B69D31A642B72
:104D300001D9032300E25D4B1B6803F40033002B11
:104D4000F0D014E0FEF728FB386108E0FEF724FB02
:104D500002463B69D31A642B01D90323ECE1534B80
:104D60001B6803F40033002BF0D100E000BF7B6828
:104D70001B6803F00203002B63D04C4B5B6803F00D
:104D80000C03002B0BD0494B5B6803F00C03082B82
:104D90001CD1464B5B6803F48033002B16D1434B88
:104DA0001B6803F00203002B05D07B681B69012BF5
:104DB00001D00123C0E13D4B1B6823F0F8027B6862
:104DC0005B69DB00394913430B603AE07B681B6980
:104DD000002B20D0364B01221A60FEF7DDFA386135
:104DE00008E0FEF7D9FA02463B69D31A022B01D933
:104DF0000323A1E12D4B1B6803F00203002BF0D02D
:104E00002A4B1B6823F0F8027B685B69DB002749AB
:104E100013430B6015E0264B00221A60FEF7BCFA24
:104E2000386108E0FEF7B8FA02463B69D31A022B54
:104E300001D9032380E11D4B1B6803F00203002B03
:104E4000F0D17B681B6803F00803002B3AD07B6825
:104E50009B69002B19D0174B01221A60FEF79CFAB0
:104E6000386108E0FEF798FA02463B69D31A022B34
:104E700001D9032360E10D4B5B6A03F00203002BB1
:104E8000F0D0012000F0CEFA1CE00A4B00221A609C
:104E9000FEF782FA38610FE0FEF77EFA02463B69C0
:104EA000D31A022B08D9032346E100BF00100240A9
:104EB0000000424280044242924B5B6A03F00203CC
:104EC000002BE9D17B681B6803F00403002B00F082
:104ED000A6800023FB758B4BDB6903F08053002B0E
:104EE0000DD1884BDB69874A43F08053D361854BF2
:104EF000DB6903F08053BB60BB680123FB75824B09
:104F00001B6803F48073002B18D17F4B1B687E4A0B
:104F100043F480731360FEF73FFA386108E0FEF750
:104F20003BFA02463B69D31A642B01D9032303E100
:104F3000754B1B6803F48073002BF0D07B68DB6833
:104F4000012B06D16F4B1B6A6E4A43F001031362BB
:104F50002DE07B68DB68002B0CD16A4B1B6A694A29
:104F600023F001031362674B1B6A664A23F00403B4
:104F700013621CE07B68DB68052B0CD1614B1B6A5C
:104F8000604A43F0040313625E4B1B6A5D4A43F0C0
:104F9000010313620BE05B4B1B6A5A4A23F00103C7
:104FA0001362584B1B6A574A23F0040313627B6851
:104FB000DB68002B15D0FEF7EFF938610AE0FEF749
:104FC000EBF902463B69D31A41F28832934201D988
:104FD0000323B1E04B4B1B6A03F00203002BEED01E
:104FE00014E0FEF7D9F938610AE0FEF7D5F9024678
:104FF0003B69D31A41F28832934201D903239BE0E3
:10500000404B1B6A03F00203002BEED1FB7D012B0A
:1050100005D13C4BDB693B4A23F08053D3617B686D
:10502000DB69002B00F08780364B5B6803F00C03D4
:10503000082B61D07B68DB69022B46D1334B002201
:105040001A60FEF7A9F9386108E0FEF7A5F90246F3
:105050003B69D31A022B01D903236DE0294B1B684E
:1050600003F00073002BF0D17B681B6AB3F5803F1F
:1050700008D1244B5B6823F400327B689B6821498C
:1050800013434B601F4B5B6823F474127B68196AEF
:105090007B685B6A0B431B4913434B601B4B01222C
:1050A0001A60FEF779F9386108E0FEF775F90246F3
:1050B0003B69D31A022B01D903233DE0114B1B6836
:1050C00003F00073002BF0D035E0104B00221A6083
:1050D000FEF762F9386108E0FEF75EF902463B69C7
:1050E000D31A022B01D9032326E0064B1B6803F0D9
:1050F0000073002BF0D11EE07B68DB69012B07D128
:10510000012319E00010024000700040600042429C
:105110000B4B5B68FB60FB6803F480327B681B6AA7
:105120009A4206D1FB6803F470127B685B6A9A426C
:1051300001D0012300E0002318461837BD4680BD8A
:105140000010024080B584B000AF786039607B68A1
:10515000002B01D10123D0E06A4B1B6803F0070349
:105160003A689A4210D9674B1B6823F007026549D9
:105170003B6813430B60634B1B6803F007033A68FB
:105180009A4201D00123B8E07B681B6803F0020358
:10519000002B20D07B681B6803F00403002B05D094
:1051A000594B5B68584A43F4E06353607B681B6863
:1051B00003F00803002B05D0534B5B68524A43F4BD
:1051C00060535360504B5B6823F0F0027B689B6830
:1051D0004D4913434B607B681B6803F00103002BB0
:1051E00040D07B685B68012B07D1474B1B6803F4F9
:1051F0000033002B15D101237FE07B685B68022B15
:1052000007D1414B1B6803F00073002B09D1012328
:1052100073E03D4B1B6803F00203002B01D1012317
:105220006BE0394B5B6823F003027B685B683649AF
:1052300013434B60FEF7B0F8F8600AE0FEF7ACF8F5
:105240000246FB68D31A41F28832934201D9032304
:1052500053E02D4B5B6803F00C027B685B689B009E
:105260009A42EBD1274B1B6803F007033A689A4236
:1052700010D2244B1B6823F0070222493B681343DA
:105280000B60204B1B6803F007033A689A4201D079
:10529000012332E07B681B6803F00403002B08D075
:1052A000194B5B6823F4E0627B68DB6816491343A3
:1052B0004B607B681B6803F00803002B09D0124B7E
:1052C0005B6823F460527B681B69DB000E49134363
:1052D0004B6000F021F802460B4B5B681B0903F0A2
:1052E0000F030A49CB5C22FA03F3094A1360094B06
:1052F0001B681846FEF70EF8002318461037BD4607
:1053000080BD00BF0020024000100240349500081C
:10531000180000201C00002080B487B000AF0023DC
:10532000FB600023BB6000237B6100237B600023C4
:105330003B611E4B5B68FB60FB6803F00C03042BB6
:1053400002D0082B03D027E0194B3B6127E0FB6814
:105350009B0C03F00F03174AD35C7B60FB6803F4DC
:105360008033002B10D0114B5B685B0C03F0010302
:10537000114AD35CBB607B680D4A03FB02F2BB6839
:10538000B2FBF3F37B6104E07B680C4A02FB03F39E
:105390007B617B693B6102E0054B3B6100BF3B6980
:1053A00018461C37BD4680BC704700BF0010024045
:1053B00000127A004C9500085C95000800093D0039
:1053C00080B400AF024B1B681846BD4680BC7047D6
:1053D0001800002080B500AFFFF7F2FF0246054B32
:1053E0005B681B0A03F007030349CB5C22FA03F353
:1053F000184680BD001002404495000880B500AFFB
:10540000FFF7DEFF0246054B5B68DB0A03F007038C
:105410000349CB5C22FA03F3184680BD001002401A
:105420004495000880B485B000AF78600A4B1B68D3
:105430000A4AA2FB03235B0A7A6802FB03F3FB60C0
:1054400000BFFB685A1EFA60002BF9D100BF00BFF5
:105450001437BD4680BC704718000020D34D621041
:1054600080B582B000AF78607B68002B01D101234A
:1054700041E07B6893F83D30DBB2002B06D17B68BE
:10548000002283F83C207868FDF7F8FC7B68022254
:1054900083F83D207B681A687B6804331946104600
:1054A00000F030FC7B68012283F846207B680122F3
:1054B00083F83E207B68012283F83F207B6801222D
:1054C00083F840207B68012283F841207B68012219
:1054D00083F842207B68012283F843207B68012205
:1054E00083F844207B68012283F845207B680122F1
:1054F00083F83D20002318460837BD4680BD0000D4
:1055000080B485B000AF78607B6893F83D30DBB243
:10551000012B01D001233AE07B68022283F83D2071
:105520007B681B68DA687B681B6842F00102DA60FE
:105530007B681B68184A93420ED07B681B68B3F1E6
:10554000804F09D07B681B68144A934204D07B6863
:105550001B68134A934211D17B681B689B6803F058
:105560000703FB60FB68062B10D07B681B681A687A
:105570007B681B6842F001021A6007E07B681B68C9
:105580001A687B681B6842F001021A600023184603
:105590001437BD4680BC7047002C01400004004019
:1055A0000008004080B582B000AF78607B68002BB7
:1055B00001D1012341E07B6893F83D30DBB2002B41
:1055C00006D17B68002283F83C20786800F039F827
:1055D0007B68022283F83D207B681A687B6804336D
:1055E0001946104600F08EFB7B68012283F84620A6
:1055F0007B68012283F83E207B68012283F83F20EC
:105600007B68012283F840207B68012283F84120D7
:105610007B68012283F842207B68012283F84320C3
:105620007B68012283F844207B68012283F84520AF
:105630007B68012283F83D20002318460837BD46C9
:1056400080BD80B483B000AF786000BF0C37BD462A
:1056500080BC704780B584B000AF786039603B682B
:10566000002B09D17B6893F83E30DBB2012B14BFCD
:1056700001230023DBB222E03B68042B09D17B68C5
:1056800093F83F30DBB2012B14BF01230023DBB2C0
:1056900015E03B68082B09D17B6893F84030DBB2FA
:1056A000012B14BF01230023DBB208E07B6893F8D1
:1056B0004130DBB2012B14BF01230023DBB2002BEE
:1056C00001D001235EE03B68002B04D17B680222FD
:1056D00083F83E2013E03B68042B04D17B68022250
:1056E00083F83F200BE03B68082B04D17B68022243
:1056F00083F8402003E07B68022283F841207B6826
:105700001B6801223968184600F07CFD7B681B6825
:105710001E4A934207D17B681B685A6C7B681B68E2
:1057200042F400425A647B681B68184A93420ED0C8
:105730007B681B68B3F1804F09D07B681B68144AF3
:10574000934204D07B681B68124A934211D17B6854
:105750001B689B6803F00703FB60FB68062B10D0F7
:105760007B681B681A687B681B6842F001021A603C
:1057700007E07B681B681A687B681B6842F00102BF
:105780001A60002318461037BD4680BD002C01402A
:10579000000400400008004080B582B000AF78608F
:1057A0007B681B681B6903F00203022B22D17B6814
:1057B0001B68DB6803F00203022B1BD17B681B68AC
:1057C0006FF002021A617B6801221A777B681B68FE
:1057D0009B6903F00303002B03D0786800F076FA8E
:1057E00005E0786800F069FA786800F078FA7B687C
:1057F00000221A777B681B681B6903F00403042BE3
:1058000022D17B681B68DB6803F00403042B1BD1E7
:105810007B681B686FF004021A617B6802221A77AA
:105820007B681B689B6903F44073002B03D0786886
:1058300000F04CFA05E0786800F03FFA786800F074
:105840004EFA7B6800221A777B681B681B6903F09D
:105850000803082B22D17B681B68DB6803F0080370
:10586000082B1BD17B681B686FF008021A617B68EC
:1058700004221A777B681B68DB6903F00303002BA3
:1058800003D0786800F022FA05E0786800F015FA95
:10589000786800F024FA7B6800221A777B681B681E
:1058A0001B6903F01003102B22D17B681B68DB6897
:1058B00003F01003102B1BD17B681B686FF01002E4
:1058C0001A617B6808221A777B681B68DB6903F41E
:1058D0004073002B03D0786800F0F8F905E0786891
:1058E00000F0EBF9786800F0FAF97B6800221A778B
:1058F0007B681B681B6903F00103012B0ED17B68D9
:105900001B68DB6803F00103012B07D17B681B6870
:105910006FF001021A617868FCF7BEFF7B681B68B4
:105920001B6903F08003802B0ED17B681B68DB684A
:1059300003F08003802B07D17B681B686FF0800227
:105940001A61786800F0E9FC7B681B681B6903F04A
:105950004003402B0ED17B681B68DB6803F04003DB
:10596000402B07D17B681B686FF040021A61786892
:1059700000F0BEF97B681B681B6903F02003202B35
:105980000ED17B681B68DB6803F02003202B07D156
:105990007B681B686FF020021A61786800F0B4FC25
:1059A00000BF0837BD4680BD80B586B000AFF86047
:1059B000B9607A600023FB75FB6893F83C30012BDB
:1059C00001D10223AEE0FB68012283F83C207B6812
:1059D0000C2B00F29F8001A252F823F0115A00080C
:1059E000155B0008155B0008155B0008515A00089C
:1059F000155B0008155B0008155B0008935A00084A
:105A0000155B0008155B0008155B0008D35A0008F9
:105A1000FB681B68B968184600F0D6F9FB681B687C
:105A20009A69FB681B6842F008029A61FB681B6870
:105A30009A69FB681B6822F004029A61FB681B6884
:105A40009969BB681A69FB681B680A439A6164E03C
:105A5000FB681B68B968184600F01CFAFB681B68F5
:105A60009A69FB681B6842F400629A61FB681B68D4
:105A70009A69FB681B6822F480629A61FB681B6864
:105A80009969BB681B691A02FB681B680A439A6123
:105A900043E0FB681B68B968184600F065FAFB68CC
:105AA0001B68DA69FB681B6842F00802DA61FB6870
:105AB0001B68DA69FB681B6822F00402DA61FB6884
:105AC0001B68D969BB681A69FB681B680A43DA61FD
:105AD00023E0FB681B68B968184600F0AFFAFB6862
