:020000040800F2
:1000000000500020CD280008A1260008A7260008DF
:10001000AD260008B3260008B9260008000000003D
:10002000000000000000000000000000BF260008E3
:10003000CB26000800000000D7260008E3260008B1
:100040001529000815290008152900081529000898
:100050001529000815290008152900081529000888
:100060001529000815290008152900081529000878
:100070001529000815290008152900081529000868
:100080001529000815290008152900081529000858
:100090001529000815290008152900081529000848
:1000A0001529000815290008152900081529000838
:1000B000F126000815290008052700081529000861
:1000C0001529000815290008152900081529000818
:1000D0001529000815290008152900081529000808
:1000E000192700081529000815290008000000003C
:1000F0000000000000000000000000000000000000
:0C01000000000000000000005FF808F1A3
:1001100010B5054C237833B9044B13B10448AFF341
:1001200000800123237010BDE401002000000000C6
:10013000EC8A000808B5034B1BB103490348AFF331
:10014000008008BD00000000E8010020EC8A0008E3
:10015000034613F8012B002AFBD1181A0138704707
:1001600081F0004102E000BF83F0004330B54FEA68
:1001700041044FEA430594EA050F08BF90EA020FD5
:100180001FBF54EA000C55EA020C7FEA645C7FEA68
:10019000655C00F0E2804FEA5454D4EB5555B8BF8B
:1001A0006D420CDD2C4480EA020281EA030382EAFC
:1001B000000083EA010180EA020281EA0303362D8E
:1001C00088BF30BD11F0004F4FEA01314FF4801C61
:1001D0004CEA113102D0404261EB410113F0004F73
:1001E0004FEA03334CEA133302D0524263EB43032A
:1001F00094EA050F00F0A780A4F10104D5F1200EC8
:100200000DDB02FA0EFC22FA05F2801841F1000122
:1002100003FA0EF2801843FA05F359410EE0A5F1F6
:1002200020050EF1200E012A03FA0EFC28BF4CF027
:10023000020C43FA05F3C01851EBE37101F00045DD
:1002400007D54FF0000EDCF1000C7EEB00006EEBEA
:100250000101B1F5801F1BD3B1F5001F0CD3490874
:100260005FEA30004FEA3C0C04F101044FEA4452CB
:1002700012F5800F80F09A80BCF1004F08BF5FEA52
:10028000500C50F1000041EB045141EA050130BD32
:100290005FEA4C0C404141EB0101013C28BFB1F544
:1002A000801FE9D291F0000F04BF01460020B1FA8F
:1002B00081F308BF2033A3F10B03B3F120020CDA62
:1002C0000C3208DD02F1140CC2F10C0201FA0CF040
:1002D00021FA02F10CE002F11402D8BFC2F1200CA5
:1002E00001FA02F120FA0CFCDCBF41EA0C0190405B
:1002F000E41AA2BF01EB0451294330BD6FEA0404A4
:100300001F3C1CDA0C340EDC04F11404C4F120028E
:1003100020FA04F001FA02F340EA030021FA04F3A0
:1003200045EA030130BDC4F10C04C4F1200220FAF7
:1003300002F001FA04F340EA0300294630BD21FA35
:1003400004F0294630BD94F0000F83F4801306BFFB
:1003500081F480110134013D4EE77FEA645C18BFEF
:100360007FEA655C29D094EA050F08BF90EA020F86
:1003700005D054EA000C04BF1946104630BD91EA7E
:10038000030F1EBF0021002030BD5FEA545C05D181
:100390004000494128BF41F0004130BD14F58004C0
:1003A0003CBF01F5801130BD01F0004545F0FE4134
:1003B00041F470014FF0000030BD7FEA645C1ABF69
:1003C000194610467FEA655C1CBF0B46024650EAA0
:1003D000013406BF52EA033591EA030F41F40021CC
:1003E00030BD00BF90F0000F04BF0021704730B552
:1003F0004FF4806404F132044FF000054FF0000127
:1004000050E700BF90F0000F04BF0021704730B5E7
:100410004FF4806404F1320410F0004548BF4042BC
:100420004FF000013EE700BF42004FEAE2014FEA11
:1004300031014FEA02701FBF12F07F4393F07F4FEC
:1004400081F06051704732F07F4208BF704793F0EF
:100450007F4F04BF41F40021704730B54FF4607402
:1004600001F0004521F000411CE700BF50EA010205
:1004700008BF704730B54FF000050AE050EA0102AE
:1004800008BF704730B511F0004502D5404261EB1E
:1004900041014FF4806404F132045FEA915C3FF45F
:1004A000D8AE4FF003025FEADC0C18BF03325FEAFC
:1004B000DC0C18BF033202EBDC02C2F1200300FAAD
:1004C00003FC20FA02F001FA03FE40EA0E0021FAD2
:1004D00002F11444BDE600BF70B54FF0FF0C4CF4C0
:1004E000E06C1CEA11541DBF1CEA135594EA0C0F72
:1004F00095EA0C0F00F0DEF82C4481EA030621EAAD
:100500004C5123EA4C5350EA013518BF52EA0335E7
:1005100041F4801143F4801338D0A0FB02CE4FF099
:100520000005E1FB02E506F00042E0FB03E54FF0C9
:100530000006E1FB03569CF0000F18BF4EF0010EC1
:10054000A4F1FF04B6F5007F64F5407404D25FEABD
:100550004E0E6D4146EB060642EAC62141EA555170
:100560004FEAC52040EA5E504FEACE2EB4F1FD0CB2
:1005700088BFBCF5E06F1ED8BEF1004F08BF5FEA30
:10058000500E50F1000041EB045170BD06F00046E2
:1005900046EA010140EA020081EA0301B4EB5C048F
:1005A000C2BFD4EB0C0541EA045170BD41F4801187
:1005B0004FF0000E013C00F3AB8014F1360FDEBFAC
:1005C000002001F0004170BDC4F10004203C35DA88
:1005D0000C341BDC04F11404C4F1200500FA05F30B
:1005E00020FA04F001FA05F240EA020001F00042AC
:1005F00021F0004110EBD37021FA04F642EB060122
:100600005EEA430E08BF20EAD37070BDC4F10C044B
:10061000C4F1200500FA04F320FA05F001FA04F20F
:1006200040EA020001F0004110EBD37041F10001FB
:100630005EEA430E08BF20EAD37070BDC4F1200506
:1006400000FA05F24EEA020E20FA04F301FA05F26E
:1006500043EA020321FA04F001F0004121FA04F216
:1006600020EA020000EBD3705EEA430E08BF20EAE6
:10067000D37070BD94F0000F0FD101F00046400020
:1006800041EB010111F4801F08BF013CF7D041EAA2
:10069000060195F0000F18BF704703F000465200A6
:1006A00043EB030313F4801F08BF013DF7D043EA77
:1006B0000603704794EA0C0F0CEA135518BF95EA2D
:1006C0000C0F0CD050EA410618BF52EA4306D1D1B4
:1006D00081EA030101F000414FF0000070BD50EAD3
:1006E000410606BF1046194652EA430619D094EA5D
:1006F0000C0F02D150EA013613D195EA0C0F05D147
:1007000052EA03361CBF104619460AD181EA03019A
:1007100001F0004141F0FE4141F470014FF0000052
:1007200070BD41F0FE4141F4780170BD70B54FF0ED
:10073000FF0C4CF4E06C1CEA11541DBF1CEA13556D
:1007400094EA0C0F95EA0C0F00F0A7F8A4EB05044F
:1007500081EA030E52EA03354FEA013100F0888046
:100760004FEA03334FF0805545EA131343EA12630F
:100770004FEA022245EA111545EA10654FEA0026C4
:100780000EF000419D4208BF964244F1FD0404F57D
:10079000407402D25B084FEA3202B61A65EB0305D9
:1007A0005B084FEA32024FF480104FF4002CB6EB96
:1007B000020E75EB030E22BFB61A754640EA0C0016
:1007C0005B084FEA3202B6EB020E75EB030E22BF56
:1007D000B61A754640EA5C005B084FEA3202B6EB97
:1007E000020E75EB030E22BFB61A754640EA9C0056
:1007F0005B084FEA3202B6EB020E75EB030E22BF26
:10080000B61A754640EADC0055EA060E18D04FEAE3
:10081000051545EA16754FEA06164FEAC30343EA83
:1008200052734FEAC2025FEA1C1CC0D111F4801F50
:100830000BD141EA00014FF000004FF0004CB6E749
:1008400011F4801F04BF01430020B4F1FD0C88BFE8
:10085000BCF5E06F3FF6AFAEB5EB030C04BFB6EBF3
:10086000020C5FEA500C50F1000041EB045170BDE6
:100870000EF0004E4EEA113114EB5C04C2BFD4EB13
:100880000C0541EA045170BD41F480114FF0000E97
:10089000013C90E645EA060E8DE60CEA135594EA13
:1008A0000C0F08BF95EA0C0F3FF43BAF94EA0C0F16
:1008B0000AD150EA01347FF434AF95EA0C0F7FF48B
:1008C00025AF104619462CE795EA0C0F06D152EADF
:1008D00003353FF4FDAE1046194622E750EA4106C3
:1008E00018BF52EA43067FF4C5AE50EA41047FF4D4
:1008F0000DAF52EA43057FF4EBAE12E74FF0FF3C39
:1009000006E000BF4FF0010C02E000BF4FF0010C09
:100910004DF804CD4FEA410C7FEA6C5C4FEA430C82
:1009200018BF7FEA6C5C1BD001B050EA410C0CBFD1
:1009300052EA430C91EA030F02BF90EA020F002033
:10094000704710F1000F91EA030F58BF994208BF9A
:1009500090422CBFD8176FEAE37040F00100704757
:100960004FEA410C7FEA6C5C02D150EA013C07D1AE
:100970004FEA430C7FEA6C5CD6D152EA033CD3D0F9
:100980005DF8040B704700BF8446104662468C46F3
:100990001946634600E000BF01B5FFF7B7FF002826
:1009A00048BF10F1000F01BD4DF808EDFFF7F4FF4F
:1009B0000CBF012000205DF808FB00BF4DF808EDDA
:1009C000FFF7EAFF34BF012000205DF808FB00BFFD
:1009D0004DF808EDFFF7E0FF94BF012000205DF81F
:1009E00008FB00BF4DF808EDFFF7CEFF94BF0120D4
:1009F00000205DF808FB00BF4DF808EDFFF7C4FFCD
:100A000034BF012000205DF808FB00BF4FEA410C15
:100A10007FEA6C5C02D150EA013C0AD14FEA430CF8
:100A20007FEA6C5C02D152EA033C02D14FF0000035
:100A300070474FF0010070474FEA410212F5001273
:100A400015D211D56FF47873B3EB625212D94FEA15
:100A5000C12343F0004343EA505311F0004F23FAFF
:100A600002F018BF404270474FF00000704750EA54
:100A7000013005D111F0004008BF6FF00040704711
:100A80004FF00000704700BF80F0004002E000BF60
:100A900081F0004142001FBF5FEA410392EA030F69
:100AA0007FEA226C7FEA236C6AD04FEA1262D2EBB3
:100AB0001363C1BFD218414048404140B8BF5B42B8
:100AC000192B88BF704710F0004F40F4000020F051
:100AD0007F4018BF404211F0004F41F4000121F067
:100AE0007F4118BF494292EA030F3FD0A2F10102B1
:100AF00041FA03FC10EB0C00C3F1200301FA03F1EF
:100B000000F0004302D5494260EB4000B0F5000F11
:100B100013D3B0F1807F06D340084FEA310102F1D0
:100B20000102FE2A51D2B1F1004F40EBC25008BF82
:100B300020F0010040EA03007047490040EB00004C
:100B4000013A28BFB0F5000FEDD2B0FA80FCACF14D
:100B5000080CB2EB0C0200FA0CF0AABF00EBC2507A
:100B600052421843BCBFD0401843704792F0000F68
:100B700081F4000106BF80F400000132013BB5E7BB
:100B80004FEA41037FEA226C18BF7FEA236C21D031
:100B900092EA030F04D092F0000F08BF0846704796
:100BA00090EA010F1CBF0020704712F07F4F04D164
:100BB000400028BF40F00040704712F100723CBF77
:100BC00000F50000704700F0004343F0FE4040F4A1
:100BD000000070477FEA226216BF08467FEA23635F
:100BE0000146420206BF5FEA412390EA010F40F44A
:100BF000800070474FF0000304E000BF10F0004396
:100C000048BF40425FEA000C08BF704743F096437C
:100C100001464FF000001CE050EA010208BF704797
:100C20004FF000030AE000BF50EA010208BF70471E
:100C300011F0004302D5404261EB41015FEA010C33
:100C400002BF84460146002043F0B64308BFA3F12B
:100C50008053A3F50003BCFA8CF2083AA3EBC2530D
:100C600010DB01FA02FC634400FA02FCC2F120022C
:100C7000BCF1004F20FA02F243EB020008BF20F063
:100C80000100704702F1200201FA02FCC2F12002C9
:100C900050EA4C0021FA02F243EB020008BF20EABE
:100CA000DC7070474FF0FF0C1CEAD0521EBF1CEAEC
:100CB000D15392EA0C0F93EA0C0F6FD01A4480EADA
:100CC000010C400218BF5FEA41211ED04FF00063C3
:100CD00043EA501043EA5111A0FB01310CF00040EF
:100CE000B1F5000F3EBF490041EAD3715B0040EA15
:100CF000010062F17F02FD2A1DD8B3F1004F40EBE5
:100D0000C25008BF20F00100704790F0000F0CF0B7
:100D1000004C08BF49024CEA502040EA51207F3A7B
:100D2000C2BFD2F1FF0340EAC250704740F4000056
:100D30004FF00003013A5DDC12F1190FDCBF00F047
:100D400000407047C2F10002410021FA02F1C2F1F5
:100D5000200200FA02FC5FEA310040F1000053EA91
:100D60004C0308BF20EADC70704792F0000F00F0DF
:100D7000004C02BF400010F4000F013AF9D040EAE5
:100D80000C0093F0000F01F0004C02BF490011F479
:100D9000000F013BF9D041EA0C018FE70CEAD15377
:100DA00092EA0C0F18BF93EA0C0F0AD030F0004CF7
:100DB00018BF31F0004CD8D180EA010000F00040AB
:100DC000704790F0000F17BF90F0004F084691F069
:100DD000000F91F0004F14D092EA0C0F01D14202A3
:100DE0000FD193EA0C0F03D14B0218BF084608D16C
:100DF00080EA010000F0004040F0FE4040F40000B6
:100E0000704740F0FE4040F4400070474FF0FF0C48
:100E10001CEAD0521EBF1CEAD15392EA0C0F93EA8F
:100E20000C0F69D0A2EB030280EA010C49024FEAE1
:100E3000402037D04FF0805343EA111143EA10139A
:100E40000CF000408B4238BF5B0042F17D024FF452
:100E5000000C8B4224BF5B1A40EA0C00B3EB510F2D
:100E600024BFA3EB510340EA5C00B3EB910F24BF16
:100E7000A3EB910340EA9C00B3EBD10F24BFA3EB9B
:100E8000D10340EADC001B0118BF5FEA1C1CE0D163
:100E9000FD2A3FF650AF8B4240EBC25008BF20F016
:100EA000010070470CF0004C4CEA50207F32C2BF6A
:100EB000D2F1FF0340EAC250704740F400004FF007
:100EC0000003013A37E792F0000F00F0004C02BF38
:100ED000400010F4000F013AF9D040EA0C0093F002
:100EE000000F01F0004C02BF490011F4000F013B5C
:100EF000F9D041EA0C0195E70CEAD15392EA0C0FC4
:100F000008D142027FF47DAF93EA0C0F7FF470AFFB
:100F1000084676E793EA0C0F04D14B023FF44CAF3E
:100F200008466EE730F0004C18BF31F0004CCAD1D3
:100F300030F000427FF45CAF31F000437FF43CAF0F
:100F40005FE700BF4FF0FF3C06E000BF4FF0010C31
:100F500002E000BF4FF0010C4DF804CD4FEA400213
:100F60004FEA41037FEA226C18BF7FEA236C11D05D
:100F700001B052EA530C18BF90EA010F58BFB2EB10
:100F8000030088BFC81738BF6FEAE17018BF40F090
:100F9000010070477FEA226C02D15FEA402C05D144
:100FA0007FEA236CE4D15FEA412CE1D05DF8040BC9
:100FB000704700BF844608466146FFE70FB5FFF75C
:100FC000C9FF002848BF10F1000F0FBD4DF808ED14
:100FD000FFF7F4FF0CBF012000205DF808FB00BF05
:100FE0004DF808EDFFF7EAFF34BF012000205DF85F
:100FF00008FB00BF4DF808EDFFF7E0FF94BF0120AC
:1010000000205DF808FB00BF4DF808EDFFF7D2FFA8
:1010100094BF012000205DF808FB00BF4DF808EDEB
:10102000FFF7C8FF34BF012000205DF808FB00BFB8
:1010300080B500AF00220121144801F061FF0122B8
:101040000221124801F05CFF012204210F4801F047
:1010500057FF002208210D4801F052FF00224FF4F3
:1010600000410A4801F04CFF01220821084801F024
:1010700047FF01221021064801F042FF00222021F3
:10108000034801F03DFF00BF80BD00BF00080140E4
:10109000000C014080B500AF00220121144801F08E
:1010A0002FFF01220221124801F02AFF0022042111
:1010B0000F4801F025FF012208210D4801F020FF13
:1010C00001224FF400410A4801F01AFF00220821D2
:1010D000084801F015FF01221021064801F010FF19
:1010E00000222021034801F00BFF00BF80BD00BF9C
:1010F00000080140000C014080B500AF0022012132
:10110000144801F0FDFE00220221124801F0F8FE11
:10111000002204210F4801F0F3FE002208210D48AF
:1011200001F0EEFE00224FF400410A4801F0E8FE13
:1011300000220821084801F0E3FE002210210648A1
:1011400001F0DEFE00222021034801F0D9FE00BF9D
:1011500080BD00BF00080140000C014080B584B094
:1011600000AFF860B9607A603B60FB68BA681A60EB
:101170007968B868FFF796FD03461A46FB685A601F
:101180003968B868FFF78EFD03461A46FB689A6017
:10119000FB684FF00002DA60FB684FF000021A6152
:1011A000FB684FF000025A61FB684FF000029A6141
:1011B000FB68BA69DA61FB68FA691A6200BF103726
:1011C000BD4680BD90B587B000AF786039607B6860
:1011D000DB6839681846FFF75BFC03463B617B68B8
:1011E0001B6939691846FFF755FC03461A467B68A8
:1011F0001A617B685B6919463869FFF749FC034649
:10120000FB607B681B6839691846FFF74BFD034696
:101210001C467B685A687B681B6919461046FFF7B5
:1012200041FD034619462046FFF734FC03461C46A1
:101230007B689B68F9681846FFF734FD034619463A
:101240002046FFF727FC03467B617B681B6A194633
:101250007869FFF7E3FE0346002B02D07B681B6A28
:101260007B617B68DB6919467869FFF7B9FE034645
:10127000002B02D07B68DB697B617B683A695A612D
:101280007B683A689A6108497869FFF70BFD034665
:101290001A467B681B6A19461046FFF7B7FD0346DE
:1012A00018461C37BD4690BD00007F4380B586B010
:1012B00004AF464B1B7899B2642302930123019338
:1012C0007B1D009301237522414802F087F87B794A
:1012D000682B77D100233B713C4B1B7899B2642378
:1012E0000293012301933B1D009301236B22384895
:1012F00001F07AFF07233B71344B1B7899B26423CA
:101300000293012301933B1D0093012319223048CE
:1013100001F06AFF2D4B1B7899B2642302930123DD
:1013200001933B1D009301231C22294802F056F82B
:101330000023FB713B7923F01803DBB23B71FB798F
:10134000DB005AB23B795BB213435BB2DBB23B7159
:101350001E4B1B7899B264230293012301933B1D1A
:10136000009301231C221A4801F03EFF174B1B7803
:1013700099B264230293012301933B1D009301233F
:101380001B22134802F02AF80023BB713B7923F09B
:101390001803DBB23B71BB79DB005AB23B795BB21D
:1013A00013435BB2DBB23B71084B1B7899B26423E9
:1013B0000293012301933B1D009301231B22044848
:1013C00001F012FF00BF0837BD4680BD00000020BD
:1013D0000002002080B586B004AF664B1B78042B5A
:1013E00000F29480644B1B7899B24FF47A730293A5
:1013F00006230193614B009301234322604801F0CF
:10140000EDFF604B7B605D4B1B781B021AB25B4BA0
:101410005B781BB213431BB21846FFF7EFFB034682
:1014200079681846FFF73EFC03464FF08E41184698
:10143000FFF7ECFC03461A46534B1A604F4B9B7860
:101440001B021AB24D4BDB781BB213431BB218467A
:10145000FFF7D4FB034679681846FFF723FC0346E1
:101460004FF08E411846FFF7D1FC03461A46474B12
:101470001A60424B1B791B021AB2404B5B791BB2BC
:1014800013431BB21846FFF7B9FB034679681846A9
:10149000FFF708FC03464FF08E411846FFF7B6FCF5
:1014A00003461A463A4B1A60374B1B68394A126892
:1014B00011461846FFF7EEFA03461A46324B1A60F9
:1014C000324B1B68344A126811461846FFF7E2FA9D
:1014D00003461A462D4B1A602D4B1B682F4A126883
:1014E00011461846FFF7D6FA03461A46284B1A60EB
:1014F000204B1B781946264B1B68294A42F821309D
:101500001C4B1B780133DAB21A4B1A70194B1B783B
:10151000052B2BD1224B1B68214A526811461846D5
:10152000FFF7B8FA03461A461D4B9B68194610464A
:10153000FFF7B0FA03461A46194BDB681946104606
:10154000FFF7A8FA03461A46154B1B6919461046C1
:10155000FFF7A0FA034613491846FFF757FC034666
:101560001A46114B1A60034B00221A7000BF08374D
:10157000BD4680BD3005002000000020BC030020D7
:101580000002002000007A43C4030020C8030020AA
:10159000CC030020F4030020F8030020FC0300200B
:1015A000D00300200000A040E403002090B585B0E7
:1015B00000AF0023FB8101F007FA78600023BB60D5
:1015C0002FE0FFF707FF354B1B68354A12681146BD
:1015D0001846FFF75FFA03461A46304B1A60314B44
:1015E0001B68314A126811461846FFF753FA034642
:1015F0001A462C4B1A602D4B1B682D4A1268114657
:101600001846FFF747FA03461A46284B1A60FB892B
:101610000133FB8101F0D8F938603A687B68D31A4E
:10162000BB60BB6842F227329342CAD91B4B1B688E
:1016300083F00044FB891846FFF7E0FA0346194699
:101640002046FFF7E3FB03461A461A4B1A60154B78
:101650001B6883F00044FB891846FFF7CFFA034666
:1016600019462046FFF7D2FB03461A46124B1A6072
:101670000E4B1B6883F00044FB891846FFF7BEFA47
:10168000034619462046FFF7C1FB03461A460B4B9B
:101690001A6000BF1437BD4690BD00BFE8030020AC
:1016A000C4030020EC030020C8030020F003002046
:1016B000CC030020F4030020F8030020FC030020EA
:1016C00090B585B000AF0346FB710023FB73FB7937
:1016D0001846FFF793FA0246204B1B68194610463E
:1016E000FFF7E0FA03461E491846FFF78FFB034653
:1016F0001A461C4B1B6819461046FFF7CBF90346E8
:101700001A46194B1A60FB7B1846FFF777FA024618
:10171000144B1B6819461046FFF7C4FA03461C46D3
:10172000FB7BC3F101031846FFF768FA02460E4B34
:101730001B6819461046FFF7B5FA034619462046BE
:10174000FFF7A8F903461A46084B1A60064B1B68B8
:10175000044A136000BF1437BD4690BDCC0300207F
:1017600000007A4408040020040400200004002043
:1017700080B584B004AF0F4B1B7899B264230293F9
:101780000123019301230093012308220A4801F059
:101790002BFD084B1B7899B264230293012301931C
:1017A0001D23009301230922034801F01DFD00BF02
:1017B000BD4680BD010000200002002080B59CB025
:1017C00002AF01F0A9F800F0B3F900F0D1FB00F08E
:1017D00011FA00F0DBFA00F0A1FB00F051FB00F081
:1017E00087FA00F035FA00F0E8F98B4B1B7899B2D4
:1017F00064230A22894802F059F8034687F86330C7
:10180000874B1B7899B24FF47A730A22834802F00F
:101810004DF8034687F8623097F86330002B17D1F4
:1018200000224FF400517F4801F06AFB3B1D7E49C6
:10183000184605F00DF8034687F8613097F86130D7
:101840009AB2391D4FF4FA73784804F0CFF805E0E6
:1018500001224FF40051734801F052FBFFF788FF5B
:10186000FFF724FDFFF7A2FE714803F061F971480C
:1018700003F05EF90021704803F0FCF904216E4882
:1018800003F0F8F908216C4803F0F4F90C216A48D8
:1018900003F0F0F901F098F8F865684B0193684B94
:1018A00000934FF00003674A67496848FFF756FC0A
:1018B000624B0193624B00934FF00003614A62490F
:1018C0006348FFF74BFC5D4B01935D4B00934FF07A
:1018D00000035C4A5C495F48FFF740FC574B0193AB
:1018E000574B00934FF00003564A57495A48FFF7A9
:1018F00035FC6423032259494C4804F0FAF8584B4C
:101900001B78012B02D0022B27D049E0FFF790FB78
:10191000544B40F6FF721A80534B40F6FF721A8008
:10192000524B40F6FF721A80514B40F6FF721A80FC
:101930004F4B1A88404B1B685A634A4B1A883E4BE0
:101940001B689A63484B1A883B4B1B68DA63474B0A
:101950001A88394B1B681A6422E0FFF79BFB424B45
:1019600064221A80414B64221A80414B64221A80FF
:101970003C4B64221A803E4B1A882F4B1B685A63DB
:10198000384B1A882C4B1B689A63374B1A882A4BA2
:101990001B68DA63354B1A88274B1B681A6400BF33
:1019A00001F012F8B865BA6D7B6ED31A7B652C4BCB
:1019B0001B78002B15D1294B1B78532B40F08E80C0
:1019C00001F002F8786600237B6500F0FDFF3865C2
:1019D0000023FB64224B1B780133DAB2204B1A70D0
:1019E0007CE01F4B1B78012B44D17B6D41F2883288
:1019F000934273D900F0E8FF786600237B6500F01E
:101A0000E3FF38650023FB64154B1B780133DAB222
:101A1000134B1A7062E000BF00000020000200209B
:101A20000100002000100140088B00087403002012
:101A30002C0300209C020020E40200200000C84388
:101A40000000A0425A45F1406541EA3F5C04002095
:101A500038040020A404002080040020C8040020D2
:101A60000C0400203204002036040020340400203E
:101A700030040020254B1B78022B2FD1244B1B68F0
:101A8000244A126811461846FFF7B4FA0346002BA1
:101A900024D0204B1B681E4A126811461846FEF7D8
:101AA000F7FF03461C491846FEF7F2FF03461A46A5
:101AB000184B1B6819461046FEF7ECFF03461A4602
:101AC000144B1A60FFF718FBFFF770FD00F07CFF66
:101AD000786600237B650D4B01221A700F4B1B7833
:101AE000452B7FF406AFFFF707FB084B00221A7067
:101AF0000B4B00221A800B4B00221A800A4B00224B
:101B00001A800A4B00221A80F3E600BF0C04002062
:101B100000040020040000200000B442C80400209B
:101B20003004002032040020340400203604002059
:101B300080B590B000AF07F11803282200211846A5
:101B400004F0E9FE3B1D00221A605A609A60DA60D8
:101B50001A610123BB614FF48033FB6100233B62B8
:101B60000123BB6202237B634FF48033BB634FF4DA
:101B7000E013FB6307F11803184602F079FB0346F4
:101B8000002B01D000F01CFC0F237B600223BB6004
:101B90000023FB604FF480633B6100237B613B1DAE
:101BA0000221184602F0E6FD0346002B01D000F0AA
:101BB00007FC00BF4037BD4680BD80B500AF0022A6
:101BC0000021282000F0E1FF282000F0FAFF002289
:101BD00000211E2000F0D9FF1E2000F0F2FF00229D
:101BE00000211C2000F0D1FF1C2000F0EAFF00BF04
:101BF00080BD000080B500AF124B134A1A60114B34
:101C0000124A5A600F4B00229A600E4B0022DA6093
:101C10000C4B4FF480421A610A4B00225A61094B67
:101C200000229A61074B0022DA61064B00221A62F9
:101C3000044801F095F90346002B01D000F0C0FBE9
:101C400000BF80BD0002002000540040A0860100BB
:101C500080B586B000AF07F1080300221A605A6011
:101C60009A60DA603B4600221A605A601E4B1F4A97
:101C70001A601D4B00225A601B4B00229A601A4BBF
:101C80004FF6FF72DA60184B00221A61164B0022E1
:101C90005A61154B00229A61134802F0F9FE03467F
:101CA000002B01D000F08CFB4FF48053BB6007F198
:101CB000080319460C4803F049FA0346002B01D0EB
:101CC00000F07EFB00233B6000237B603B4619460F
:101CD000054803F0CBFD0346002B01D000F070FB5C
:101CE00000BF1837BD4680BD54020020002C0140C3
:101CF00080B586B000AF07F1080300221A605A6071
:101D00009A60DA603B4600221A605A601E4B4FF020
:101D100080421A601C4B41F61F425A601A4B002247
:101D20009A60194B40F2E732DA60174B00221A61D1
:101D3000154B00229A61144802F0AAFE0346002BBC
:101D400001D000F03DFB4FF48053BB6007F1080366
:101D500019460D4803F0FAF90346002B01D000F0B4
:101D60002FFB00233B6000237B603B46194606485F
:101D700003F07CFD0346002B01D000F021FB00BFE7
:101D80001837BD4680BD00BF9C02002080B58AB0D8
:101D900000AF07F1200300221A605A603B1D0022A9
:101DA0001A605A609A60DA601A615A619A61324B1D
:101DB000324A1A60304B00225A602F4B00229A6040
:101DC0002D4B40F6FF72DA602B4B00221A612A4B32
:101DD00000229A61284802F0FDFE0346002B01D044
:101DE00000F0EEFA00233B6200237B6207F1200340
:101DF0001946214803F03AFD0346002B01D000F0BC
:101E0000DFFA60237B600023BB600023FB600023BC
:101E10007B613B1D00221946174803F0D5F80346A5
:101E2000002B01D000F0CCFA3B1D042219461248C9
:101E300003F0CAF80346002B01D000F0C1FA3B1DA5
:101E4000082219460C4803F0BFF80346002B01D0C6
:101E500000F0B6FA3B1D0C221946074803F0B4F80F
:101E60000346002B01D000F0ABFA034800F080FBE2
:101E700000BF2837BD4680BDE402002000040040BA
:101E800080B586B000AF07F1080300221A605A60DF
:101E90009A60DA603B4600221A605A601D4B1E4A67
:101EA0001A601C4B41F61F425A601A4B00229A607E
:101EB000184B6322DA60174B00221A61154B00227F
:101EC0009A61144802F0E4FD0346002B01D000F0B3
:101ED00077FA4FF48053BB6007F1080319460D48A9
:101EE00003F034F90346002B01D000F069FA002317
:101EF0003B6000237B603B461946064803F0B6FC76
:101F00000346002B01D000F05BFA00BF1837BD4636
:101F100080BD00BF2C0300200008004080B500AF4A
:101F2000114B124A1A60104B4FF416525A600E4B66
:101F300000229A600C4B0022DA600B4B00221A61DF
:101F4000094B0C225A61084B00229A61064B002271
:101F5000DA61054803F0FAFC0346002B01D000F0DB
:101F60002FFA00BF80BD00BF74030020003801407D
:101F700080B588B000AF07F1100300221A605A60E4
:101F80009A60DA60454B9B69444A43F010039361C1
:101F9000424B9B6903F01003FB60FB683F4B9B695E
:101FA0003E4A43F0200393613C4B9B6903F02003BE
:101FB000BB60BB68394B9B69384A43F004039361AB
:101FC000364B9B6903F004037B607B68334B9B6952
:101FD000324A43F008039361304B9B6903F00803D6
:101FE0003B603B6800224FF400512D4800F088FF11
:101FF000002248F20F012B4800F082FF0022382116
:10200000294800F07DFF4FF400533B6101237B61C1
:102010000023BB610223FB6107F11003194620482E
:1020200000F0EAFD48F20F033B6101237B610023CE
:10203000BB610223FB6107F110031946194800F048
:10204000DBFD4FF470433B61184B7B610223BB61A6
:1020500007F110031946144800F0CEFD4FF48073C9
:102060003B6100237B610223BB6107F1100319462A
:102070000C4800F0C1FD38233B6101237B61002344
:10208000BB610223FB6107F110031946064800F00B
:10209000B3FD00BF2037BD4680BD00BF0010024029
:1020A0000010014000080140000C01400000111028
:1020B000F0B597B00CAFF861FB691B68B3F1804FC6
:1020C00040F0D780744B1B881846FEF793FD0346FB
:1020D00019467248FFF776F80346714A1360714B50
:1020E0001B881846FEF786FD034619466E48FFF723
:1020F00069F803466D4A13606D4B1B881846FEF75E
:1021000079FD034619466B48FFF75CF803466A4AB7
:1021100013606A4B1B881846FEF76CFD0346194690
:102120006748FFF74FF80346664A1360664B1B7813
:102130001A464EF6602303FB02F2644B1B781946E5
:10214000642301FB03F392FBF3F39AB2554B1A801D
:102150005F4B1B781A464EF6602303FB02F25B4B83
:102160001B781946642301FB03F392FBF3F39AB245
:10217000494B1A80574B1B781A464EF6602303FBD7
:1021800002F2524B1B781946642301FB03F392FBC6
:10219000F3F39AB2494B1A804F4B1B781A464EF60E
:1021A000602303FB02F2494B1B781946642301FBB1
:1021B00003F392FBF3F39AB23D4B1A80424B002299
:1021C0001A70434B00221A70424B00221A70424B85
:1021D00000221A70414B1B68642202FB03F6304B4D
:1021E0001B681846FEF720F904460D463C4B1B8839
:1021F000BB613C4B1B887B613B4B1B883B61264B87
:102200001B88FB60274B1B88BB60294B1B887B60AE
:102210002A4B1B883B60354B1B681846FEF704F9B8
:1022200002460B46CDE90A233A6808927A6807927B
:10223000BA680692FA6805923A6904927A6903923A
:10224000BB690293CDE9004532462949294804F08B
:10225000FFFA034687F8273097F827309AB26423AD
:102260002449254803F0C2FB1C4B1B6801331B4A61
:102270001360FB691B68214A934208D1204B1B78ED
:10228000042B02D13220FFF71BFAFFF7A3F800BF9F
:102290002C37BD46F0BD00BF140400205C040020B4
:1022A0002004002012040020380400202404002010
:1022B00018040020A4040020280400201604002094
:1022C000800400202C0400201A04002008000020B4
:1022D0001B0400201C0400201D0400200C00002012
:1022E00030040020360400203404002000040020C4
:1022F0001C8B0008CC040020740300200008004060
:102300003005002080B483B000AF0346FB80FB881B
:10231000B3F5004F0CD1224B1B78DBB20133DAB29C
:102320001F4B1A701F4B1B780133DAB21D4B1A700A
:10233000FB88B3F5804F0CD11B4B1B78DBB201330C
:10234000DAB2194B1A70194B1B780133DAB2174BFA
:102350001A70FB88B3F5005F0CD1154B1B78DBB20C
:102360000133DAB2124B1A70124B1B780133DAB216
:10237000104B1A70FB88B3F5805F0CD10E4B1B78A5
:10238000DBB20133DAB20C4B1A700C4B1B78013301
:10239000DAB20A4B1A7000BF0C37BD4680BC7047DA
:1023A0000D0400201A0400200E0400201B0400204D
:1023B000100400201D0400200F0400201C04002035
:1023C00080B400AF72B600BFFEE7000080B485B0F5
:1023D00000AF154B9B69144A43F001039361124B04
:1023E0009B6903F00103BB60BB680F4BDB690E4ABE
:1023F00043F08053D3610C4BDB6903F080537B6067
:102400007B680A4B5B68FB60FB6823F0E063FB6062
:10241000FB6843F00073FB60044AFB68536000BF35
:102420001437BD4680BC70470010024000000140D8
:1024300080B588B000AF786007F1100300221A6001
:102440005A609A60DA607B681B68154A934223D110
:10245000144B9B69134A43F008039361114B9B692A
:1024600003F00803FB60FB68C0233B6112237B6120
:102470000323FB6107F1100319460B4800F0BCFB76
:10248000084BDB69074A43F40013D361054BDB6952
:1024900003F40013BB60BB6800BF2037BD4680BD9E
:1024A0000054004000100240000C014080B487B08E
:1024B00000AF78607B681B681B4A93420CD11B4BB2
:1024C0009B691A4A43F400639361184B9B6903F4B8
:1024D00000637B617B6922E07B681B68B3F1804FFE
:1024E0000CD1124BDB69114A43F00103D3610F4B4E
:1024F000DB6903F001033B613B6910E07B681B680B
:102500000B4A93420BD1094BDB69084A43F00403A1
:10251000D361064BDB6903F00403FB60FB6800BF7B
:102520001C37BD4680BC7047002C014000100240A3
:102530000008004080B485B000AF78607B681B68FD
:10254000094A93420BD1094BDB69084A43F0020365
:10255000D361064BDB6903F00203FB60FB6800BF3D
:102560001437BD4680BC7047000400400010024094
:1025700080B588B000AF786007F1100300221A60C0
:102580005A609A60DA607B681B681B4A93422FD1BD
:102590001A4B9B69194A43F004039361174B9B69DB
:1025A00003F00403FB60FB68144B9B69134A43F080
:1025B00008039361114B9B6903F00803BB60BB6880
:1025C000C0233B6102237B610223FB6107F11003FF
:1025D00019460B4800F010FB03233B6102237B618B
:1025E0000223FB6107F110031946064800F004FBC3
:1025F00000BF2037BD4680BD0004004000100240EF
:1026000000080140000C014080B588B000AF786040
:1026100007F1100300221A605A609A60DA607B6842
:102620001B681C4A934231D11B4B9B691A4A43F4E5
:1026300080439361184B9B6903F48043FB60FB6804
:10264000154B9B69144A43F004039361124B9B6939
:1026500003F00403BB60BB684FF400733B610223CB
:102660007B610323FB6107F1100319460B4800F05F
:10267000C3FA4FF480633B6100237B610023BB619D
:1026800007F110031946054800F0B6FA00BF2037DD
:10269000BD4680BD003801400010024000080140E6
:1026A00080B400AFFEE780B400AFFEE780B400AFB7
:1026B000FEE780B400AFFEE780B400AFFEE780B471
:1026C00000AF00BFBD4680BC704780B400AF00BF04
:1026D000BD4680BC704780B400AF00BFBD4680BC23
:1026E000704780B500AF00F05DF900BF80BD00000D
:1026F00080B500AF024802F05FFB00BF80BD00BFA5
:102700009C02002080B500AF024802F055FB00BFDC
:1027100080BD00BF2C03002080B500AF4FF4805077
:1027200000F006FC4FF4005000F002FC4FF4804033
:1027300000F0FEFB4FF4004000F0FAFB00BF80BD4C
:1027400080B400AF01231846BD4680BC704780B5F9
:1027500082B000AF7860396004F030F90346162289
:102760001A604FF0FF3318460837BD4680BD80B56C
:1027700082B000AF78604FF0FF317868FFF7E7FF75
:10278000FEE780B586B000AFF860B9607A600023DC
:102790007B610AE0AFF300800146BB685A1CBA6057
:1027A000CAB21A707B6901337B617A697B689A428D
:1027B000F0DB7B6818461837BD4680BD80B586B013
:1027C00000AFF860B9607A6000237B6109E0BB6804
:1027D0005A1CBA601B781846AFF300807B6901333E
:1027E0007B617A697B689A42F1DB7B68184618370F
:1027F000BD4680BD80B483B000AF78604FF0FF333A
:1028000018460C37BD4680BC704780B483B000AF1B
:10281000786039603B684FF400525A6000231846D4
:102820000C37BD4680BC704780B483B000AF786081
:10283000012318460C37BD4680BC704780B485B074
:1028400000AFF860B9607A60002318461437BD46BF
:1028500080BC704780B586B000AF7860144A154BD5
:10286000D31A7B617B693B61134B1B68002B02D140
:10287000114B124A1A60104B1A687B6813443A696C
:102880009A4207D204F09AF803460C221A604FF0DD
:10289000FF3309E0084B1B68FB60074B1A687B6835
:1028A0001344054A1360FB6818461837BD4680BDBF
:1028B000005000200004000034050020880600209D
:1028C00080B400AF00BFBD4680BC7047FFF7F8FF83
:1028D0000B480C490C4A002302E0D458C45004337E
:1028E000C4188C42F9D3094A094C002301E0136053
:1028F0000432A242FBD304F067F8FEF75FFF704793
:1029000000000020E4010020E48E0008E401002023
:1029100088060020FEE7000080B500AF084B1B686A
:10292000074A43F010031360032000F023F90F203F
:1029300000F008F8FFF74AFD0023184680BD00BFED
:102940000020024080B582B000AF7860124B1A6858
:10295000124B1B7819464FF47A73B3FBF1F3B2FBB9
:10296000F3F3184600F03BF90346002B01D0012396
:102970000EE07B680F2B0AD8002279684FF0FF30F9
:1029800000F003F9064A7B681360002300E001238E
:1029900018460837BD4680BD1000002018000020F2
:1029A0001400002080B400AF054B1B781A46054B7D
:1029B0001B681344034A136000BFBD4680BC7047C8
:1029C000180000203805002080B400AF024B1B68BF
:1029D0001846BD4680BC70473805002080B485B0DD
:1029E00000AF78607B6803F00703FB600C4BDB688B
:1029F000BB60BA684FF6FF031340BB60FB681A0266
:102A0000BB68134343F0BF6343F40033BB60044A25
:102A1000BB68D36000BF1437BD4680BC704700BFA1
:102A200000ED00E080B400AF044BDB681B0A03F04C
:102A300007031846BD4680BC704700BF00ED00E0AC
:102A400080B483B000AF0346FB7197F90730002BC9
:102A50000BDBFB7903F01F02064997F907305B098E
:102A6000012000FA02F241F8232000BF0C37BD46D6
:102A700080BC704700E100E080B483B000AF034643
:102A80003960FB7197F90730002B0ADB3B68DAB23B
:102A90000C4997F907301201D2B20B4483F8002396
:102AA0000AE03B68DAB20849FB7903F00F03043B04
:102AB0001201D2B20B441A7600BF0C37BD4680BC5F
:102AC000704700BF00E100E000ED00E080B489B095
:102AD00000AFF860B9607A60FB6803F00703FB6140
:102AE000FB69C3F10703042B28BF0423BB61FB6907
:102AF0000433062B02D9FB69033B00E000237B6112
:102B00004FF0FF32BB6902FA03F3DA43BB681A40A5
:102B10007B699A404FF0FF317B6901FA03F3D94397
:102B20007B680B40134318462437BD4680BC704772
:102B300080B582B000AF78607B68013BB3F1807FE5
:102B400001D301230FE00A4A7B68013B53600F2148
:102B50004FF0FF30FFF790FF054B00229A60044BC7
:102B600007221A60002318460837BD4680BD00BF03
:102B700010E000E080B582B000AF78607868FFF7C1
:102B80002DFF00BF0837BD4680BD80B586B000AFC1
:102B90000346B9607A60FB7300237B61FFF742FF55
:102BA00078617A68B9687869FFF790FF024697F90B
:102BB0000F3011461846FFF75FFF00BF1837BD46BC
:102BC00080BD80B582B000AF0346FB7197F9073036
:102BD0001846FFF735FF00BF0837BD4680BD80B5FA
:102BE00082B000AF78607868FFF7A2FF034618460E
:102BF0000837BD4680BD000080B48BB000AF786060
:102C0000396000237B6200233B6269E101227B6A19
:102C100002FA03F3FB613B681B68FA691340BB616E
:102C2000BA69FB699A4240F058813B685B689A4AEE
:102C300093425ED0984A934275D8984A934258D0AE
:102C4000964A93426FD8964A934252D0944A9342FE
:102C500069D8944A93424CD0924A934263D8924A9C
:102C6000934246D0904A93425DD8122B2AD8122B19
:102C700059D801A252F823F0F32C0008CD2C0008FB
:102C8000DF2C0008212D0008272D0008272D000823
:102C9000272D0008272D0008272D0008272D0008C4
:102CA000272D0008272D0008272D0008272D0008B4
:102CB000272D0008272D0008272D0008D52C0008F7
:102CC000E92C0008794A934213D02CE03B68DB687A
:102CD0003B6229E03B68DB6804333B6224E03B68ED
:102CE000DB6808333B621FE03B68DB680C333B6208
:102CF0001AE03B689B68002B02D104233B6213E07F
:102D00003B689B68012B05D108233B627B68FA690D
:102D10001A6109E008233B627B68FA695A6103E0A3
:102D200000233B6200E000BFBB69FF2B01D87B683A
:102D300001E07B6804337B61BB69FF2B02D87B6AAF
:102D40009B0002E07B6A083B9B003B617B691A6841
:102D50000F213B6901FA03F3DB431A40396A3B69EF
:102D600001FA03F31A437B691A603B685B6803F05E
:102D70008053002B00F0B1804D4B9B694C4A43F0CF
:102D8000010393614A4B9B6903F00103BB60BB687D
:102D9000484A7B6A9B08023352F82330FB607B6A07
:102DA00003F003039B000F2202FA03F3DB43FA68EC
:102DB0001340FB607B68404A934213D07B683F4AD4
:102DC00093420DD07B683E4A934207D07B683D4AD0
:102DD000934201D1032306E0042304E0022302E02E
:102DE000012300E000237A6A02F00302920093407C
:102DF000FA681343FB602F497B6A9B080233FA6829
:102E000041F823203B685B6803F48013002B06D055
:102E10002D4B9A682C49BB6913438B6006E02A4B03
:102E20009A68BB69DB43284913408B603B685B6849
:102E300003F40013002B06D0234BDA682249BB6948
:102E40001343CB6006E0204BDA68BB69DB431E49C5
:102E50001340CB603B685B6803F40033002B06D063
:102E6000194B5A681849BB6913434B6006E0164B6F
:102E70005A68BB69DB43144913404B603B685B688D
:102E800003F48033002B21D00F4B1A680E49BB6925
:102E900013430B6021E000BF00003210000031102E
:102EA000000022100000211000001210000011107C
:102EB000001002400000014000080140000C0140E9
:102EC0000010014000140140000401400B4B1A683F
:102ED000BB69DB43094913400B607B6A01337B62AA
:102EE0003B681A687B6A22FA03F3002B7FF48EAEEC
:102EF00000BF00BF2C37BD4680BC704700040140B6
:102F000080B483B000AF78600B467B8013467B7043
:102F10007B78002B03D07A887B681A6103E07B887A
:102F20001A047B681A6100BF0C37BD4680BC70472D
:102F300080B582B000AF0346FB80084B5A69FB881E
:102F40001340002B06D0054AFB885361FB881846C6
:102F5000FFF7D8F900BF0837BD4680BD0004014027
:102F600080B584B000AF78607B68002B01D101236D
:102F70002BE17B6893F83D30DBB2002B06D17B68F8
:102F8000002283F83C207868FFF752FA7B682422FD
:102F900083F83D207B681B681A687B681B6822F0F9
:102FA00001021A607B681B681A687B681B6842F420
:102FB00000421A607B681B681A687B681B6822F4F1
:102FC00000421A6001F01EFDF8607B685B68814A70
:102FD000934207D8FB68804A934294BF01230023A1
:102FE000DBB206E0FB687D4A934294BF01230023D5
:102FF000DBB2002B01D00123E7E0FB68784AA2FB9B
:1030000003239B0CBB607B681B685B6823F03F015C
:103010007B681B68BA680A435A607B681B681B6A36
:1030200023F03F017B685B686A4A934202D8BB6821
:10303000013309E0BB684FF4967202FB03F3694A5F
:10304000A2FB03239B0901337A6812680B431362C6
:103050007B681B68DB6923F44F4222F0FF027B6828
:103060005B685C498B4219D8FB68591E7B685B68BA
:103070005B00B1FBF3F3591C40F6FC730B40002BD3
:103080000AD0FB68591E7B685B685B00B1FBF3F3F9
:103090000133C3F30B0351E004234FE07B689B68CB
:1030A000002B11D1FB68581E7B6859680B465B00EA
:1030B0000B44B0FBF3F30133C3F30B03002B0CBF42
:1030C00001230023DBB212E0FB68581E7B685968BD
:1030D0000B469B000B4499000B44B0FBF3F3013308
:1030E000C3F30B03002B0CBF01230023DBB2002B27
:1030F00001D0012322E07B689B68002B0ED1FB6886
:10310000581E7B6859680B465B000B44B0FBF3F319
:103110000133C3F30B0343F400430FE0FB68581E75
:103120007B6859680B469B000B4499000B44B0FB2D
:10313000F3F30133C3F30B0343F4404379680968A5
:103140001343CB617B681B681B6823F0C0017B685D
:10315000DA697B681B6A1A437B681B680A431A603A
:103160007B681B689B6823F4034323F0FF037A68A2
:1031700011697A68D26811437A6812680B439360C8
:103180007B681B68DB6823F0FF017B685A697B68FA
:103190009B691A437B681B680A43DA607B681B687B
:1031A0001A687B681B6842F001021A607B68002283
:1031B0001A647B68202283F83D207B6800221A6312
:1031C0007B68002283F83E20002318461037BD4656
:1031D00080BD00BFA08601007F841E00FF083D0067
:1031E00083DE1B43D34D621080B588B002AFF86018
:1031F000084611461A4603467B810B463B8113461F
:10320000FB80FFF7E1FB7861FB6893F83D30DBB2B0
:10321000202B40F0D9807B690093192301226D494E
:10322000F86800F0EFFD0346002B01D00223CCE04C
:10323000FB6893F83C30012B01D10223C5E0FB6809
:10324000012283F83C20FB681B681B6803F0010324
:10325000012B07D0FB681B681A68FB681B6842F0EB
:1032600001021A60FB681B681A68FB681B6822F47D
:1032700000621A60FB68212283F83D20FB6840222F
:1032800083F83E20FB6800221A64FB683A6A5A629F
:10329000FB68BA8C5A85FB685B8D9AB2FB681A850D
:1032A000FB684D4ADA62F8883A8979897B6901932B
:1032B000BB6A00930346F86800F026FC0346002B27
:1032C00052D0012381E07A69B96AF86800F0B4FE4F
:1032D0000346002B0DD0FB681B6C042B07D1FB6849
:1032E0001B681A68FB681B6842F400721A600123AD
:1032F0006BE0FB685B6A1A78FB681B681A61FB6805
:103300005B6A5A1CFB685A62FB681B8D013B9AB2D0
:10331000FB681A85FB685B8D9BB2013B9AB2FB6828
:103320005A85FB681B685B6903F00403042B1BD1FF
:10333000FB681B8D002B17D0FB685B6A1A78FB6853
:103340001B681A61FB685B6A5A1CFB685A62FB685F
:103350001B8D013B9AB2FB681A85FB685B8D9BB2A3
:10336000013B9AB2FB685A85FB681B8D002BAAD1E2
:103370007A69B96AF86800F0A7FE0346002B0DD001
:10338000FB681B6C042B07D1FB681B681A68FB6881
:103390001B6842F400721A60012316E0FB681B6888
:1033A0001A68FB681B6842F400721A60FB682022EE
:1033B00083F83D20FB68002283F83E20FB68002252
:1033C00083F83C20002300E0022318461837BD464E
:1033D00080BD00BF020010000000FFFF80B58CB070
:1033E00002AFF860084611461A4603467B810B4639
:1033F0003B811346FB8000233B62FFF7E5FA7862CE
:10340000FB6893F83D30DBB2202B40F044827B6AAE
:103410000093192301228249F86800F0F3FC034667
:10342000002B01D0022337E2FB6893F83C30012BDC
:1034300001D1022330E2FB68012283F83C20FB68C3
:103440001B681B6803F00103012B07D0FB681B6896
:103450001A68FB681B6842F001021A60FB681B686F
:103460001A68FB681B6822F400621A60FB6822225B
:1034700083F83D20FB68402283F83E20FB68002251
:103480001A64FB683A6B5A62FB68BA8E5A85FB680D
:103490005B8D9AB2FB681A85FB68624ADA62F8882B
:1034A0003A8979897B6A0193BB6B00930346F8687C
:1034B00000F0C0FB0346002B01D00123ECE1FB68C8
:1034C0001B8D002B13D10023FB61FB681B685B691C
:1034D000FB61FB681B689B69FB61FB69FB681B6800
:1034E0001A68FB681B6842F400721A60C0E1FB684E
:1034F0001B8D012B1ED1FB681B681A68FB681B68BB
:1035000022F480621A6072B600BF0023BB61FB68C0
:103510001B685B69BB61FB681B689B69BB61BB691E
:10352000FB681B681A68FB681B6842F400721A602B
:1035300062B635E0FB681B8D022B1ED1FB681B6851
:103540001A68FB681B6842F400621A6072B600BF1A
:1035500000237B61FB681B685B697B61FB681B6800
:103560009B697B617B69FB681B681A68FB681B6849
:1035700022F480621A6062B612E0FB681B681A6867
:10358000FB681B6842F480621A6000233B61FB68A1
:103590001B685B693B61FB681B689B693B613B691E
:1035A00066E1FB681B8D032B00F21F81FB681B8DFE
:1035B000012B23D17A6AB96BF86800F0CDFD034680
:1035C000002B01D0012367E1FB681B681A69FB68C7
:1035D0005B6AD2B21A70FB685B6A5A1CFB685A625B
:1035E000FB681B8D013B9AB2FB681A85FB685B8DFB
:1035F0009BB2013B9AB2FB685A8539E1FB681B8D8F
:10360000022B52D17B6A0093BB6B00220649F868FB
:1036100000F0F8FB0346002B08D001233CE100BF7B
:10362000020010000000FFFF0400010072B600BF9E
:10363000FB681B681A68FB681B6842F400721A601A
:10364000FB681B681A69FB685B6AD2B21A70FB6878
:103650005B6A5A1CFB685A62FB681B8D013B9AB27D
:10366000FB681A85FB685B8D9BB2013B9AB2FB68D5
:103670005A8562B600BFFB681B681A69FB685B6A03
:10368000D2B21A70FB685B6A5A1CFB685A62FB680C
:103690001B8D013B9AB2FB681A85FB685B8D9BB260
:1036A000013B9AB2FB685A85E2E07B6A0093BB6BF0
:1036B00000227B49F86800F0A5FB0346002B01D0EF
:1036C0000123E9E0FB681B681A68FB681B6822F4A9
:1036D00080621A6072B600BFFB681B681A69FB68DB
:1036E0005B6AD2B21A70FB685B6A5A1CFB685A624A
:1036F000FB681B8D013B9AB2FB681A85FB685B8DEA
:103700009BB2013B9AB2FB685A85664B1B68DB088B
:10371000654AA2FB03231A0A13469B001344DA00EE
:10372000D31A3B623B6A013B3B623B6A002B18D1D8
:10373000FB6800221A63FB68202283F83D20FB68A7
:10374000002283F83E20FB681B6C43F02002FB68DC
:103750001A6462B600BFFB68002283F83C20012394
:103760009AE0FB681B685B6903F00403042BD9D162
:10377000FB681B681A68FB681B6842F400721A60D9
:10378000FB681B681A69FB685B6AD2B21A70FB6837
:103790005B6A5A1CFB685A62FB681B8D013B9AB23C
:1037A000FB681A85FB685B8D9BB2013B9AB2FB6894
:1037B0005A8562B600BFFB681B681A69FB685B6AC2
:1037C000D2B21A70FB685B6A5A1CFB685A62FB68CB
:1037D0001B8D013B9AB2FB681A85FB685B8D9BB21F
:1037E000013B9AB2FB685A8542E07A6AB96BF86885
:1037F00000F0B2FC0346002B01D001234CE0FB6833
:103800001B681A69FB685B6AD2B21A70FB685B6A54
:103810005A1CFB685A62FB681B8D013B9AB2FB681D
:103820001A85FB685B8D9BB2013B9AB2FB685A8597
:10383000FB681B685B6903F00403042B18D1FB6869
:103840001B681A69FB685B6AD2B21A70FB685B6A14
:103850005A1CFB685A62FB681B8D013B9AB2FB68DD
:103860001A85FB685B8D9BB2013B9AB2FB685A8557
:10387000FB681B8D002B7FF494AEFB68202283F83D
:103880003D20FB68002283F83E20FB68002283F87D
:103890003C20002300E0022318462837BD4680BDA7
:1038A000040001001000002089B5F81480B58AB02A
:1038B00002AFF8607A603B600B467B81FFF784F8CB
:1038C000F8610023BB61FB6893F83D30DBB2202B2D
:1038D00040F01181FB690093192301228849F8689F
:1038E00000F090FA0346002B01D0022304E1FB68AC
:1038F00093F83C30012B01D10223FDE0FB6801224B
:1039000083F83C20FB681B681B6803F00103012B54
:1039100007D0FB681B681A68FB681B6842F001024D
:103920001A60FB681B681A68FB681B6822F4006257
:103930001A60FB68242283F83D20FB6800221A6489
:10394000FB68704ADA62FB681B681A68FB681B68D0
:1039500042F480721A60FB6900933B6800224FF0CA
:103960000111F86800F04EFA0346002B0DD0FB68F9
:103970001B681B6803F48073B3F5807F03D1FB6879
:103980004FF400721A640323B6E07B89DBB21A4657
:10399000FB681B6802F0FE021A61FFF715F8F86178
:1039A000FB681B685B6903F00203022B0CBF012359
:1039B0000023DBB2FB75FB681B685B6903F4806363
:1039C000B3F5806F0CBF01230023DBB2BB7525E08C
:1039D000FEF7FAFF0246FB69D31A3A689A4202D30D
:1039E0003B68002B03D1FB68A02283F83D20FB68D5
:1039F0001B685B6903F00203022B0CBF0123002349
:103A0000DBB2FB75FB681B685B6903F48063B3F58D
:103A1000806F0CBF01230023DBB2BB75FB6893F8FA
:103A20003D30DBB2A02B05D0FB7D002B02D1BB7D4E
:103A3000002BCDD0FB68202283F83D20FB681B685B
:103A40005B6903F00203022B29D1FB681B681A682B
:103A5000FB681B6842F400721A6000233B61FB683C
:103A60001B685B693B61FB681B689B693B613B6949
:103A7000FB690093192301222149F86800F0C2F97B
:103A80000346002B01D0012336E0FB68202283F897
:103A90003D20FB68002283F83C2000232CE0FB68DB
:103AA0001B681A68FB681B6842F400721A60FB68A6
:103AB0001B686FF480625A61FB690093192301222D
:103AC0000F49F86800F09EF90346002B01D001234E
:103AD00012E0BB690133BB61BA697B689A42FFF4AB
:103AE00032AFFB68202283F83D20FB68002283F878
:103AF0003C20012300E0022318462037BD4680BD4C
:103B0000020010000000FFFF80B588B002AFF8602F
:103B1000084611461A4603467B810B463B811346F5
:103B2000FB80FB681B681A68FB681B6842F48072A4
:103B30001A607B6A00933B6A00224FF00111F8681B
:103B400000F060F90346002B0DD0FB681B681B6872
:103B500003F48073B3F5807F03D1FB684FF40072E8
:103B60001A6403235FE07B89DBB21A46FB681B689B
:103B700002F0FE021A617B6A3A6A2D49F86800F089
:103B8000BBF90346002B01D001234CE000237B61ED
:103B9000FB681B685B697B61FB681B689B697B61D9
:103BA0007B697A6A396AF86800F046FA0346002BA6
:103BB0000DD0FB681B6C042B07D1FB681B681A68CF
:103BC000FB681B6842F400721A6001232BE0FB883B
:103BD000012B05D13B89DAB2FB681B681A6121E031
:103BE0003B891B0A9BB2DAB2FB681B681A617A6ACE
:103BF000396AF86800F020FA0346002B0DD0FB6804
:103C00001B6C042B07D1FB681B681A68FB681B68D8
:103C100042F400721A60012305E03B89DAB2FB68C6
:103C20001B681A61002318461837BD4680BD00BFC7
:103C30000200010080B588B002AFF8600846114666
:103C40001A4603467B810B463B811346FB80FB688B
:103C50001B681A68FB681B6842F480621A60FB6884
:103C60001B681A68FB681B6842F480721A607B6AE2
:103C700000933B6A00224FF00111F86800F0C2F88F
:103C80000346002B0DD0FB681B681B6803F4807390
:103C9000B3F5807F03D1FB684FF400721A640323ED
:103CA000AAE07B89DBB21A46FB681B6802F0FE02C1
:103CB0001A617B6A3A6A5249F86800F01DF90346B6
:103CC000002B01D0012397E000237B61FB681B6878
:103CD0005B697B61FB681B689B697B617B697A6AB6
:103CE000396AF86800F0A8F90346002B0DD0FB688C
:103CF0001B6C042B07D1FB681B681A68FB681B68E8
:103D000042F400721A60012376E0FB88012B05D192
:103D10003B89DAB2FB681B681A6121E03B891B0A08
:103D20009BB2DAB2FB681B681A617A6A396AF86872
:103D300000F082F90346002B0DD0FB681B6C042BAE
:103D400007D1FB681B681A68FB681B6842F40072A5
:103D50001A60012350E03B89DAB2FB681B681A61E4
:103D60007A6A396AF86800F067F90346002B0DD0CB
:103D7000FB681B6C042B07D1FB681B681A68FB6887
:103D80001B6842F400721A60012335E0FB681B686F
:103D90001A68FB681B6842F480721A607B6A0093A1
:103DA0003B6A00224FF00111F86800F02BF803463F
:103DB000002B0DD0FB681B681B6803F48073B3F500
:103DC000807F03D1FB684FF400721A64032313E071
:103DD0007B89DBB243F00103DAB2FB681B681A612E
:103DE0007B6A3A6A0649F86800F086F80346002BB9
:103DF00001D0012300E0002318461837BD4680BDDE
:103E00000200010080B584B000AFF860B9603B608B
:103E10001346FB7148E03B68B3F1FF3F44D0FEF727
:103E2000D3FD0246BB69D31A3A689A4202D33B6873
:103E3000002B39D1BB681B0CDBB2012B0DD1FB6809
:103E40001B685B69DA43BB6813409BB2002B0CBF55
:103E500001230023DBB21A460CE0FB681B689B6958
:103E6000DA43BB6813409BB2002B0CBF0123002335
:103E7000DBB21A46FB799A4216D1FB6800221A631C
:103E8000FB68202283F83D20FB68002283F83E2057
:103E9000FB681B6C43F02002FB681A64FB6800227D
:103EA00083F83C20012323E0BB681B0CDBB2012B11
:103EB0000DD1FB681B685B69DA43BB6813409BB29A
:103EC000002B0CBF01230023DBB21A460CE0FB6879
:103ED0001B689B69DA43BB6813409BB2002B0CBF85
:103EE00001230023DBB21A46FB799A4293D00023C8
:103EF00018461037BD4680BD80B584B000AFF8606D
:103F0000B9607A603B6071E0FB681B685B6903F431
:103F10008063B3F5806F23D1FB681B681A68FB6868
:103F20001B6842F400721A60FB681B686FF48062C1
:103F30005A61FB6800221A63FB68202283F83D2047
:103F4000FB68002283F83E20FB681B6C43F00402F0
:103F5000FB681A64FB68002283F83C20012367E0B9
:103F60007B68B3F1FF3F41D0FEF72EFD02463B6870
:103F7000D31A7A689A4202D37B68002B36D1BB6889
:103F80001B0CDBB2012B0CD1FB681B685B69DA43AD
:103F9000BB6813409BB2002B14BF01230023DBB28C
:103FA0000BE0FB681B689B69DA43BB6813409BB25C
:103FB000002B14BF01230023DBB2002B16D0FB68BB
:103FC00000221A63FB68202283F83D20FB68002250
:103FD00083F83E20FB681B6C43F02002FB681A64E8
:103FE000FB68002283F83C20012321E0BB681B0C06
:103FF000DBB2012B0CD1FB681B685B69DA43BB6841
:1040000013409BB2002B14BF01230023DBB20BE053
:10401000FB681B689B69DA43BB6813409BB2002BAB
:1040200014BF01230023DBB2002B7FF46DAF00230C
:1040300018461037BD4680BD80B584B000AFF8602B
:10404000B9607A6034E0F86800F0E3F80346002BCA
:1040500001D0012334E0BB68B3F1FF3F28D0FEF765
:10406000B3FC02467B68D31ABA689A4202D3BB6893
:10407000002B1DD1FB681B685B6903F08003802B5C
:1040800016D0FB6800221A63FB68202283F83D20CB
:10409000FB68002283F83E20FB681B6C43F0200283
:1040A000FB681A64FB68002283F83C20012307E0C8
:1040B000FB681B685B6903F08003802BC3D100237E
:1040C00018461037BD4680BD80B584B000AFF8609B
:1040D000B9607A6034E0F86800F09BF80346002B82
:1040E00001D0012334E0BB68B3F1FF3F28D0FEF7D5
:1040F0006BFC02467B68D31ABA689A4202D3BB684B
:10410000002B1DD1FB681B685B6903F00403042BC3
:1041100016D0FB6800221A63FB68202283F83D203A
:10412000FB68002283F83E20FB681B6C43F02002F2
:10413000FB681A64FB68002283F83C20012307E037
:10414000FB681B685B6903F00403042BC3D10023E5
:1041500018461037BD4680BD80B584B000AFF8600A
:10416000B9607A6049E0FB681B685B6903F0100383
:10417000102B19D1FB681B686FF010025A61FB68A5
:1041800000221A63FB68202283F83D20FB6800228E
:1041900083F83E20FB681A6CFB681A64FB680022F7
:1041A00083F83C20012330E0FEF70EFC02467B68DA
:1041B000D31ABA689A4202D3BB68002B1DD1FB68A0
:1041C0001B685B6903F04003402B16D0FB6800229C
:1041D0001A63FB68202283F83D20FB68002283F8E5
:1041E0003E20FB681B6C43F02002FB681A64FB68EE
:1041F000002283F83C20012307E0FB681B685B6911
:1042000003F04003402BAED1002318461037BD46C3
:1042100080BD80B483B000AF78607B681B685B6949
:1042200003F48063B3F5806F1BD17B681B686FF468
:1042300080625A617B6800221A637B68202283F8BF
:104240003D207B68002283F83E207B681B6C43F096
:1042500004027B681A647B68002283F83C200123F7
:1042600000E0002318460C37BD4680BC70470000B4
:1042700080B586B000AF78607B68002B01D1012348
:1042800072E27B681B6803F00103002B00F087805B
:10429000924B5B6803F00C03042B0CD08F4B5B68D4
:1042A00003F00C03082B12D18C4B5B6803F48033B2
:1042B000B3F5803F0BD1894B1B6803F40033002B0F
:1042C0006CD07B685B68002B68D101234CE27B6873
:1042D0005B68B3F5803F06D1804B1B687F4A43F48F
:1042E000803313602EE07B685B68002B0CD17B4B26
:1042F0001B687A4A23F480331360784B1B68774A33
:1043000023F4802313601DE07B685B68B3F5A02F66
:104310000CD1724B1B68714A43F4802313606F4BBE
:104320001B686E4A43F4803313600BE06B4B1B68D1
:104330006A4A23F480331360684B1B68674A23F48E
:10434000802313607B685B68002B13D0FEF73CFB77
:10435000386108E0FEF738FB02463B69D31A642B4C
:1043600001D9032300E25D4B1B6803F40033002BEB
:10437000F0D014E0FEF728FB386108E0FEF724FBDC
:1043800002463B69D31A642B01D90323ECE1534B5A
:104390001B6803F40033002BF0D100E000BF7B6802
:1043A0001B6803F00203002B63D04C4B5B6803F0E7
:1043B0000C03002B0BD0494B5B6803F00C03082B5C
:1043C0001CD1464B5B6803F48033002B16D1434B62
:1043D0001B6803F00203002B05D07B681B69012BCF
:1043E00001D00123C0E13D4B1B6823F0F8027B683C
:1043F0005B69DB00394913430B603AE07B681B695A
:10440000002B20D0364B01221A60FEF7DDFA38610E
:1044100008E0FEF7D9FA02463B69D31A022B01D90C
:104420000323A1E12D4B1B6803F00203002BF0D006
:104430002A4B1B6823F0F8027B685B69DB00274985
:1044400013430B6015E0264B00221A60FEF7BCFAFE
:10445000386108E0FEF7B8FA02463B69D31A022B2E
:1044600001D9032380E11D4B1B6803F00203002BDD
:10447000F0D17B681B6803F00803002B3AD07B68FF
:104480009B69002B19D0174B01221A60FEF79CFA8A
:10449000386108E0FEF798FA02463B69D31A022B0E
:1044A00001D9032360E10D4B5B6A03F00203002B8B
:1044B000F0D0012000F0CEFA1CE00A4B00221A6076
:1044C000FEF782FA38610FE0FEF77EFA02463B699A
:1044D000D31A022B08D9032346E100BF0010024083
:1044E0000000424280044242924B5B6A03F00203A6
:1044F000002BE9D17B681B6803F00403002B00F05C
:10450000A6800023FB758B4BDB6903F08053002BE7
:104510000DD1884BDB69874A43F08053D361854BCB
:10452000DB6903F08053BB60BB680123FB75824BE2
:104530001B6803F48073002B18D17F4B1B687E4AE5
:1045400043F480731360FEF73FFA386108E0FEF72A
:104550003BFA02463B69D31A642B01D9032303E1DA
:10456000754B1B6803F48073002BF0D07B68DB680D
:10457000012B06D16F4B1B6A6E4A43F00103136295
:104580002DE07B68DB68002B0CD16A4B1B6A694A03
:1045900023F001031362674B1B6A664A23F004038E
:1045A00013621CE07B68DB68052B0CD1614B1B6A36
:1045B000604A43F0040313625E4B1B6A5D4A43F09A
:1045C000010313620BE05B4B1B6A5A4A23F00103A1
:1045D0001362584B1B6A574A23F0040313627B682B
:1045E000DB68002B15D0FEF7EFF938610AE0FEF723
:1045F000EBF902463B69D31A41F28832934201D962
:104600000323B1E04B4B1B6A03F00203002BEED0F7
:1046100014E0FEF7D9F938610AE0FEF7D5F9024651
:104620003B69D31A41F28832934201D903239BE0BC
:10463000404B1B6A03F00203002BEED1FB7D012BE4
:1046400005D13C4BDB693B4A23F08053D3617B6847
:10465000DB69002B00F08780364B5B6803F00C03AE
:10466000082B61D07B68DB69022B46D1334B0022DB
:104670001A60FEF7A9F9386108E0FEF7A5F90246CD
:104680003B69D31A022B01D903236DE0294B1B6828
:1046900003F00073002BF0D17B681B6AB3F5803FF9
:1046A00008D1244B5B6823F400327B689B68214966
:1046B00013434B601F4B5B6823F474127B68196AC9
:1046C0007B685B6A0B431B4913434B601B4B012206
:1046D0001A60FEF779F9386108E0FEF775F90246CD
:1046E0003B69D31A022B01D903233DE0114B1B6810
:1046F00003F00073002BF0D035E0104B00221A605D
:10470000FEF762F9386108E0FEF75EF902463B69A0
:10471000D31A022B01D9032326E0064B1B6803F0B2
:104720000073002BF0D11EE07B68DB69012B07D101
:10473000012319E000100240007000406000424276
:104740000B4B5B68FB60FB6803F480327B681B6A81
:104750009A4206D1FB6803F470127B685B6A9A4246
:1047600001D0012300E0002318461837BD4680BD64
:104770000010024080B584B000AF786039607B687B
:10478000002B01D10123D0E06A4B1B6803F0070323
:104790003A689A4210D9674B1B6823F007026549B3
:1047A0003B6813430B60634B1B6803F007033A68D5
:1047B0009A4201D00123B8E07B681B6803F0020332
:1047C000002B20D07B681B6803F00403002B05D06E
:1047D000594B5B68584A43F4E06353607B681B683D
:1047E00003F00803002B05D0534B5B68524A43F497
:1047F00060535360504B5B6823F0F0027B689B680A
:104800004D4913434B607B681B6803F00103002B89
:1048100040D07B685B68012B07D1474B1B6803F4D2
:104820000033002B15D101237FE07B685B68022BEE
:1048300007D1414B1B6803F00073002B09D1012302
:1048400073E03D4B1B6803F00203002B01D10123F1
:104850006BE0394B5B6823F003027B685B68364989
:1048600013434B60FEF7B0F8F8600AE0FEF7ACF8CF
:104870000246FB68D31A41F28832934201D90323DE
:1048800053E02D4B5B6803F00C027B685B689B0078
:104890009A42EBD1274B1B6803F007033A689A4210
:1048A00010D2244B1B6823F0070222493B681343B4
:1048B0000B60204B1B6803F007033A689A4201D053
:1048C000012332E07B681B6803F00403002B08D04F
:1048D000194B5B6823F4E0627B68DB68164913437D
:1048E0004B607B681B6803F00803002B09D0124B58
:1048F0005B6823F460527B681B69DB000E4913433D
:104900004B6000F021F802460B4B5B681B0903F07B
:104910000F030A49CB5C22FA03F3094A1360094BDF
:104920001B681846FEF70EF8002318461037BD46E0
:1049300080BD00BF0020024000100240408B0008F4
:10494000100000201400002080B487B000AF0023C6
:10495000FB600023BB6000237B6100237B6000239E
:104960003B611E4B5B68FB60FB6803F00C03042B90
:1049700002D0082B03D027E0194B3B6127E0FB68EE
:104980009B0C03F00F03174AD35C7B60FB6803F4B6
:104990008033002B10D0114B5B685B0C03F00103DC
:1049A000114AD35CBB607B680D4A03FB02F2BB6813
:1049B000B2FBF3F37B6104E07B680C4A02FB03F378
:1049C0007B617B693B6102E0054B3B6100BF3B695A
:1049D00018461C37BD4680BC704700BF001002401F
:1049E00000127A00588B0008688B000800093D000F
:1049F00080B400AF024B1B681846BD4680BC7047B0
:104A00001000002080B500AFFFF7F2FF0246054B13
:104A10005B681B0A03F007030349CB5C22FA03F32C
:104A2000184680BD00100240508B000880B500AFD2
:104A3000FFF7DEFF0246054B5B68DB0A03F0070366
:104A40000349CB5C22FA03F3184680BD00100240F4
:104A5000508B000880B485B000AF78600A4B1B68AB
:104A60000A4AA2FB03235B0A7A6802FB03F3FB609A
:104A700000BFFB685A1EFA60002BF9D100BF00BFCF
:104A80001437BD4680BC704710000020D34D621023
:104A900080B582B000AF78607B68002B01D1012324
:104AA00041E07B6893F83D30DBB2002B06D17B6898
:104AB000002283F83C207868FDF7F8FC7B6802222E
:104AC00083F83D207B681A687B68043319461046DA
:104AD00000F028FC7B68012283F846207B680122D5
:104AE00083F83E207B68012283F83F207B68012207
:104AF00083F840207B68012283F841207B680122F3
:104B000083F842207B68012283F843207B680122DE
:104B100083F844207B68012283F845207B680122CA
:104B200083F83D20002318460837BD4680BD0000AD
:104B300080B485B000AF78607B6893F83D30DBB21D
:104B4000012B01D001233AE07B68022283F83D204B
:104B50007B681B68DA687B681B6842F00102DA60D8
:104B60007B681B68184A93420ED07B681B68B3F1C0
:104B7000804F09D07B681B68144A934204D07B683D
:104B80001B68134A934211D17B681B689B6803F032
:104B90000703FB60FB68062B10D07B681B681A6854
:104BA0007B681B6842F001021A6007E07B681B68A3
:104BB0001A687B681B6842F001021A6000231846DD
:104BC0001437BD4680BC7047002C014000040040F3
:104BD0000008004080B582B000AF78607B68002B91
:104BE00001D1012341E07B6893F83D30DBB2002B1B
:104BF00006D17B68002283F83C207868FDF79AFC98
:104C00007B68022283F83D207B681A687B68043346
:104C10001946104600F086FB7B68012283F8462087
:104C20007B68012283F83E207B68012283F83F20C5
:104C30007B68012283F840207B68012283F84120B1
:104C40007B68012283F842207B68012283F843209D
:104C50007B68012283F844207B68012283F8452089
:104C60007B68012283F83D20002318460837BD46A3
:104C700080BD000080B584B000AF786039603B68CB
:104C8000002B09D17B6893F83E30DBB2012B14BFB7
:104C900001230023DBB222E03B68042B09D17B68AF
:104CA00093F83F30DBB2012B14BF01230023DBB2AA
:104CB00015E03B68082B09D17B6893F84030DBB2E4
:104CC000012B14BF01230023DBB208E07B6893F8BB
:104CD0004130DBB2012B14BF01230023DBB2002BD8
:104CE00001D001235EE03B68002B04D17B680222E7
:104CF00083F83E2013E03B68042B04D17B6802223A
:104D000083F83F200BE03B68082B04D17B6802222C
:104D100083F8402003E07B68022283F841207B680F
:104D20001B6801223968184600F07CFD7B681B680F
:104D30001E4A934207D17B681B685A6C7B681B68CC
:104D400042F400425A647B681B68184A93420ED0B2
:104D50007B681B68B3F1804F09D07B681B68144ADD
:104D6000934204D07B681B68124A934211D17B683E
:104D70001B689B6803F00703FB60FB68062B10D0E1
:104D80007B681B681A687B681B6842F001021A6026
:104D900007E07B681B681A687B681B6842F00102A9
:104DA0001A60002318461037BD4680BD002C014014
:104DB000000400400008004080B582B000AF786079
:104DC0007B681B681B6903F00203022B22D17B68FE
:104DD0001B68DB6803F00203022B1BD17B681B6896
:104DE0006FF002021A617B6801221A777B681B68E8
:104DF0009B6903F00303002B03D0786800F076FA78
:104E000005E0786800F069FA786800F078FA7B6865
:104E100000221A777B681B681B6903F00403042BCC
:104E200022D17B681B68DB6803F00403042B1BD1D1
:104E30007B681B686FF004021A617B6802221A7794
:104E40007B681B689B6903F44073002B03D0786870
:104E500000F04CFA05E0786800F03FFA786800F05E
:104E60004EFA7B6800221A777B681B681B6903F087
:104E70000803082B22D17B681B68DB6803F008035A
:104E8000082B1BD17B681B686FF008021A617B68D6
:104E900004221A777B681B68DB6903F00303002B8D
:104EA00003D0786800F022FA05E0786800F015FA7F
:104EB000786800F024FA7B6800221A777B681B6808
:104EC0001B6903F01003102B22D17B681B68DB6881
:104ED00003F01003102B1BD17B681B686FF01002CE
:104EE0001A617B6808221A777B681B68DB6903F408
:104EF0004073002B03D0786800F0F8F905E078687B
:104F000000F0EBF9786800F0FAF97B6800221A7774
:104F10007B681B681B6903F00103012B0ED17B68C2
:104F20001B68DB6803F00103012B07D17B681B685A
:104F30006FF001021A617868FDF7BAF87B681B68A8
:104F40001B6903F08003802B0ED17B681B68DB6834
:104F500003F08003802B07D17B681B686FF0800211
:104F60001A61786800F0E9FC7B681B681B6903F034
:104F70004003402B0ED17B681B68DB6803F04003C5
:104F8000402B07D17B681B686FF040021A6178687C
:104F900000F0BEF97B681B681B6903F02003202B1F
:104FA0000ED17B681B68DB6803F02003202B07D140
:104FB0007B681B686FF020021A61786800F0B4FC0F
:104FC00000BF0837BD4680BD80B586B000AFF86031
:104FD000B9607A600023FB75FB6893F83C30012BC5
:104FE00001D10223AEE0FB68012283F83C207B68FC
:104FF0000C2B00F29F8001A252F823F031500008E0
:10500000355100083551000835510008715000082D
:10501000355100083551000835510008B3500008DB
:10502000355100083551000835510008F35000088B
:10503000FB681B68B968184600F0D6F9FB681B6866
:105040009A69FB681B6842F008029A61FB681B685A
:105050009A69FB681B6822F004029A61FB681B686E
:105060009969BB681A69FB681B680A439A6164E026
:10507000FB681B68B968184600F01CFAFB681B68DF
:105080009A69FB681B6842F400629A61FB681B68BE
:105090009A69FB681B6822F480629A61FB681B684E
:1050A0009969BB681B691A02FB681B680A439A610D
:1050B00043E0FB681B68B968184600F065FAFB68B6
:1050C0001B68DA69FB681B6842F00802DA61FB685A
:1050D0001B68DA69FB681B6822F00402DA61FB686E
:1050E0001B68D969BB681A69FB681B680A43DA61E7
:1050F00023E0FB681B68B968184600F0AFFAFB684C
:105100001B68DA69FB681B6842F40062DA61FB68BD
:105110001B68DA69FB681B6822F48062DA61FB684D
:105120001B68D969BB681B691A02FB681B680A43C4
:10513000DA6102E00123FB7500BFFB68002283F8FF
:105140003C20FB7D18461837BD4680BD80B584B035
:1051500000AF786039600023FB737B6893F83C30C4
:10516000012B01D10223B4E07B68012283F83C20AB
:105170007B68022283F83D207B681B689B68BB60CC
:10518000BB6823F07703BB60BB6823F47F43BB603D
:105190007B681B68BA689A603B681B68B3F5005F60
:1051A0003ED0B3F5005F00F28780B3F5805F00F07A
:1051B0008680B3F5805F7FD8702B1AD0702B7BD898
:1051C000602B50D0602B77D8502B3CD0502B73D80D
:1051D000402B58D0402B6FD8302B64D0302B6BD85D
:1051E000202B60D0202B67D8002B5CD0102B5AD0FE
:1051F00062E07B6818683B6899683B685A683B685E
:10520000DB6800F0F0FA7B681B689B68BB60BB68DA
:1052100043F07703BB607B681B68BA689A604FE015
:105220007B6818683B6899683B685A683B68DB682C
:1052300000F0D9FA7B681B689A687B681B6842F4A7
:1052400080429A603CE07B6818683B6859683B681C
:10525000DB681A4600F050FA7B681B68502118463C
:1052600000F0A7FA2CE07B6818683B6859683B6837
:10527000DB681A4600F06EFA7B681B6860211846EE
:1052800000F097FA1CE07B6818683B6859683B6837
:10529000DB681A4600F030FA7B681B68402118462C
:1052A00000F087FA0CE07B681A683B681B681946B7
:1052B000104600F07EFA03E00123FB7300E000BF1C
:1052C0007B68012283F83D207B68002283F83C2024
:1052D000FB7B18461037BD4680BD80B483B000AF5D
:1052E000786000BF0C37BD4680BC704780B483B087
:1052F00000AF786000BF0C37BD4680BC704780B4FB
:1053000083B000AF786000BF0C37BD4680BC7047EB
:1053100080B483B000AF786000BF0C37BD4680BC5E
:105320007047000080B485B000AF786039607B685A
:105330001B68FB607B68294A93420BD07B68B3F102
:10534000804F07D07B68264A934203D07B68254A6A
:10535000934208D1FB6823F07003FB603B685B68F5
:10536000FA681343FB607B681C4A93420BD07B684E
:10537000B3F1804F07D07B68194A934203D07B6812
:10538000184A934208D1FB6823F44073FB603B68E2
:10539000DB68FA681343FB60FB6823F080023B681C
:1053A0005B691343FB607B68FA681A603B689A6824
:1053B0007B68DA623B681A687B689A627B68074A96
:1053C000934203D13B681A697B681A637B680122A8
:1053D0005A6100BF1437BD4680BC7047002C0140A5
:1053E000000400400008004080B487B000AF78603F
:1053F00039607B681B6A7B617B681B6A23F0010252
:105400007B681A627B685B683B617B689B69FB60B9
:10541000FB6823F07003FB60FB6823F00303FB6071
:105420003B681B68FA681343FB607B6923F0020347
:105430007B613B689B687A6913437B617B681C4A8C
:1054400093420CD17B6923F008037B613B68DB68E6
:105450007A6913437B617B6923F004037B617B687A
:10546000134A934211D13B6923F480733B613B693A
:1054700023F400733B613B685B693A6913433B610A
:105480003B689B693A6913433B617B683A695A60A0
:105490007B68FA689A613B685A687B685A637B68E4
:1054A0007A691A6200BF1C37BD4680BC704700BFD6
:1054B000002C014080B487B000AF786039607B6811
:1054C0001B6A7B617B681B6A23F010027B681A628F
:1054D0007B685B683B617B689B69FB60FB6823F4CE
:1054E000E043FB60FB6823F44073FB603B681B6890
:1054F0001B02FA681343FB607B6923F020037B6186
:105500003B689B681B017A6913437B617B681D4A7A
:1055100093420DD17B6923F080037B613B68DB689C
:105520001B017A6913437B617B6923F040037B6134
:105530007B68144A934213D13B6923F480633B6137
:105540003B6923F400633B613B685B699B003A69FC
:1055500013433B613B689B699B003A6913433B6182
:105560007B683A695A607B68FA689A613B685A6856
:105570007B689A637B687A691A6200BF1C37BD46F4
:1055800080BC7047002C014080B487B000AF7860C9
:1055900039607B681B6A7B617B681B6A23F48072BD
:1055A0007B681A627B685B683B617B68DB69FB60D8
:1055B000FB6823F07003FB60FB6823F00303FB60D0
:1055C0003B681B68FA681343FB607B6923F4007334
:1055D0007B613B689B681B027A6913437B617B6834
:1055E0001D4A93420DD17B6923F400637B613B68C4
:1055F000DB681B027A6913437B617B6923F4806358
:105600007B617B68144A934213D13B6923F4805336
:105610003B613B6923F400533B613B685B691B01C1
:105620003A6913433B613B689B691B013A69134329
:105630003B617B683A695A607B68FA68DA613B686B
:105640005A687B68DA637B687A691A6200BF1C3724
:10565000BD4680BC704700BF002C014080B487B0BD
:1056600000AF786039607B681B6A3B617B681B6AAE
:1056700023F480527B681A627B685B687B617B687D
:10568000DB69FB60FB6823F4E043FB60FB6823F409
:105690004073FB603B681B681B02FA681343FB60A6
:1056A0003B6923F400533B613B689B681B033A69E9
:1056B00013433B617B680F4A934209D17B6923F412
:1056C00080437B613B685B699B017A6913437B6123
:1056D0007B687A695A607B68FA68DA613B685A6865
:1056E0007B681A647B683A691A6200BF1C37BD4642
:1056F00080BC7047002C014080B487B000AFF860D8
:10570000B9607A60FB681B6A7B61FB681B6A23F0E7
:105710000102FB681A62FB689B693B613B6923F0ED
:10572000F0033B617B681B013A6913433B617B6972
:1057300023F00A037B617A69BB6813437B61FB68D2
:105740003A699A61FB687A691A6200BF1C37BD46E4
:1057500080BC704780B487B000AFF860B9607A60F1
:10576000FB681B6A7B61FB681B6A23F01002FB6805
:105770001A62FB689B693B613B6923F470433B61A0
:105780007B681B033A6913433B617B6923F0A003E9
:105790007B61BB681B017A6913437B61FB683A69D3
:1057A0009A61FB687A691A6200BF1C37BD4680BCEB
:1057B000704780B485B000AF786039607B689B68C3
:1057C000FB60FB6823F07003FB603A68FB681343DF
:1057D00043F00703FB607B68FA689A6000BF1437E8
:1057E000BD4680BC704780B487B000AFF860B96038
:1057F0007A603B60FB689B687B617B6923F47F4335
:105800007B613B681A027B681A43BB6813437A6961
:1058100013437B61FB687A699A6000BF1C37BD4601
:1058200080BC704780B487B000AFF860B9607A6020
:10583000BB6803F01F03012202FA03F37B61FB68DC
:105840001A6A7B69DB431A40FB681A62FB681A6AB2
:10585000BB6803F01F03796801FA03F31A43FB687E
:105860001A6200BF1C37BD4680BC704780B485B04B
:1058700000AF786039607B6893F83C30012B01D130
:10588000022346E07B68012283F83C207B680222E9
:1058900083F83D207B681B685B68FB607B681B6846
:1058A0009B68BB60FB6823F07003FB603B681B6870
:1058B000FA681343FB607B681B68FA685A607B6870
:1058C0001B68164A93420ED07B681B68B3F1804F69
:1058D00009D07B681B68124A934204D07B681B681E
:1058E000104A93420CD1BB6823F08003BB603B6835
:1058F0005B68BA681343BB607B681B68BA689A60D0
:105900007B68012283F83D207B68002283F83C20DD
:10591000002318461437BD4680BC7047002C014058
:10592000000400400008004080B483B000AF7860FD
:1059300000BF0C37BD4680BC704780B483B000AF59
:10594000786000BF0C37BD4680BC704780B582B020
:1059500000AF78607B68002B01D1012342E07B68B7
:1059600093F84130DBB2002B06D17B68002283F82C
:1059700040207868FCF748FE7B68242283F84120A9
:105980007B681B68DA687B681B6822F40052DA6067
:10599000786800F0AFF97B681B681A697B681B6840
:1059A00022F490421A617B681B685A697B681B6805
:1059B00022F02A025A617B681B68DA687B681B68E0
:1059C00042F40052DA607B6800225A647B6820222D
:1059D00083F841207B68202283F842207B680022E4
:1059E0005A63002318460837BD4680BD80B58AB08B
:1059F00002AFF860B9603B601346FB8000237B6117
:105A0000FB6893F84130DBB2202B6DD1BB68002BD3
:105A100002D0FB88002B01D1012366E0FB68002245
:105A20005A64FB68212283F84120FCF7CDFF78619E
:105A3000FB68FA889A84FB68FA88DA84FB689B68BA
:105A4000B3F5805F08D1FB681B69002B04D10023EC
:105A5000FB61BB68BB6103E0BB68FB610023BB610A
:105A60002AE03B6800937B6900228021F86800F0FF
:105A7000D2F80346002B01D0032336E0FB69002B4C
:105A80000BD1BB691B881A46FB681B68C2F308026E
:105A90005A60BB690233BB6107E0FB691A78FB6897
:105AA0001B685A60FB690133FB61FB68DB8C9BB2AE
:105AB000013B9AB2FB68DA84FB68DB8C9BB2002B5B
:105AC000CFD13B6800937B6900224021F86800F049
:105AD000A2F80346002B01D0032306E0FB68202236
